:020000041000EA
:10000000002008205D0100101301001015010010F0
:100010001101001011010010110100101101001058
:100020001101001011010010110100101701001042
:100030001101001011010010190100101B01001026
:100040001D0100101D0100101D0100101D010010F8
:100050001D0100101D0100101D0100101D010010E8
:100060001D0100101D0100101D0100101D010010D8
:100070001D0100101D0100101D0100101D010010C8
:100080001D0100101D0100101D0100101D010010B8
:100090001D0100101D0100101D0100101D010010A8
:1000A0001D0100101D0100101D0100101D01001098
:1000B0001D0100101D0100101D0100101D01001088
:1000C0001D0100101D0100101D0100101D01001078
:1000D0001D0100101D0100101D0100101D01001068
:1000E0001D0100101D0100101D0100101D01001058
:1000F0001D0100101D0100101D0100101D01001048
:100100001D0100101D0100101D0100101D01001037
:1001100000BE00BE00BE00BE00BE00BEEFF3058004
:10012000103800BEF2EB887104280010242800105B
:10013000A801001090A31AE7D3DEFFFF42012110AF
:10014000FF010000542B0000793512AB4FF0000086
:100150002049086006C881F3088810474FF05040D6
:10016000006810B14FF00000F2E70FA40ECC002998
:1001700002D000F015F8F9E71749184A002000E00E
:1001800001C19142FCD1002080F30A8814498847BC
:10019000144988471449884700BEFDE701C901C2D8
:1001A0009A42FBD3704700BF2428001010010020A2
:1001B000780500208C2C001000000820000008208A
:1001C0008C2C0010001008200010082000000000F7
:1001D0007047000008ED00E078050020B0370020EF
:1001E000291E001021040010211E0010F8B500BFC8
:1001F000064B0749C91A891048BF0131491003D07D
:10020000044B0BB101481847704700BF7805002028
:10021000780500200000000008B5054B1BB105491A
:100220000548AFF30080BDE80840FFF7E1BF00BF1D
:1002300000000000682F00205C2600104FF4807240
:10024000154B70B51B680F2003F5055313491A634E
:1002500000F068FE01210F2000F03EFE0026104D48
:100260002B78002BFCD015242E70013CA4B202F098
:10027000B3F9002CF9D14FF4907402F0ADF94FF4BA
:1002800080620849084802F0BBF90028F7D0013C19
:10029000A4B2002CF1D1E3E74805002011010020B1
:1002A000AC370020EA070020600F00202DE9F0475E
:1002B0002C4E88B005460121306801F0F9FE002778
:1002C0004FF440234FF48032CDE902374FF4F83336
:1002D0004FF40819CDE900233368DFF88C8003F16F
:1002E0002F4303F560031B0D0DF1100E03F1060CF7
:1002F0004FEAC51A05F10E03C8F800004AEA033AAE
:100300009DE80F008EE80F00CDF814A09EE80F00C6
:100310008DE80F0017205FFA8CF1CDF8009000F007
:1003200077FC172347EC4430019A6B4622F0F852D1
:1003300042F0B851019103992A4621F4782141F401
:10034000382103913068D8F8001001F08DFF0123A7
:100350003268D8F80000116883400B43136008B07E
:10036000BDE8F08748050020A82F00202DE9F04FB8
:10037000294D8BB081460121286801F099FE4FF488
:1003800040234FF4803204934FF4F8334FF0000AC7
:100390008646CDE90223214ECDF800A00DF1180CC0
:1003A000CDF814A002AC306094E80F008CE80F0088
:1003B00009F109073F0347EAC91BCDF81CB09CE8C7
:1003C0000F0084E80F00714652462023286801F090
:1003D00005FF03994FEAC9186FF3D01141EA0801EC
:1003E000394303910499234621F0FA7121F48031B5
:1003F00041F4A8114A4604912868316801F034FF9D
:100400000122296830680B68824023EA02030B60EE
:100410000BB0BDE8F08F00BF48050020A42F0020DE
:10042000474B30B5DB68474A83F4407383F00303DE
:10043000C3F30A0385B04FF47A70D360002101F052
:1004400015F9414803AB02AA01A901F06DFA18B9E8
:100450003D493E4800F060FC0024DDE902120198AD
:1004600001F0A0F92546204600F032FC45EC44405E
:10047000002220461146013400F0E8FB302CF2D176
:1004800000242546204600F023FC45EC4440012191
:100490002046013400F0EEFB0C2CF3D1172000F0C5
:1004A00017FC172045EC4400012100F0E3FB162067
:1004B00000F00EFC162045EC4400254C012100F014
:1004C000D9FB2449206801F00FFE23490546206826
:1004D00001F00AFE04462846FFF7E8FE2046FFF733
:1004E00045FF1E4800F084FB1D4801F05DFF00F051
:1004F000A5FA002000F08AFA184800F07FFB0446B5
:100500000028F9D102F06CF84FF4806215491348C5
:1005100002F06AF80028F7D04FF4B46222201149A3
:1005200002F06AF801344FF4B46222200D4902F05F
:1005300063F8B4F5907FE7D302F06AF8DCE700BF18
:1005400000000D4000100D40203005005C2600101A
:10055000480500204C27001074270010600F002071
:100560003D020010AC2F002008B505210D2000F041
:100570004FFB05210C2000F04BFB0F224FF0010335
:1005800043EC40200E2243EC40200D2243EC40205F
:100590000C2243EC4020824A13689B05FCD500BF27
:1005A00000BF00BF00BF00BF00BF00BF00BF00BF53
:1005B00000BF00BF00BF00BF00BF00BF00BF00BF43
:1005C00000BF00BF00BF00BF00BF00BF00BF00BF33
:1005D00000BF00BF00BF00BF00BF00BF00BF00BF23
:1005E00000BF00BF00BF00BF00BF00BF00BF00BF13
:1005F00000BF00BF00BF00BF00BF00BF00BF00BF03
:1006000000BF00BF00BF00BF00BF00BF00BF00BFF2
:1006100000BF00BF00BF00BF00BF00BF00BF00BFE2
:1006200000BF00BF00BF00BF00BF00BF00BF00BFD2
:1006300000BF00BF00BF00BF00BF00BF00BF00BFC2
:1006400000BF00BF00BF00BF00BF00BF00BF00BFB2
:1006500000BF00BF00BF00BF00BF00BF00BF00BFA2
:1006600000BF00BF00BF00BF00BF00BF00BF00BF92
:1006700000BF00BF00BF00BF00BF00BF00BF00BF82
:1006800000BF00BF00BF00BF00BF00BF00BF00BF72
:1006900000BF00BF00BF00BF00BF00BF00BF00BF62
:1006A00000BF00BF00BF00BF00BF00BF00BF00BF52
:1006B00000BF00BF00BF00BF00BF00BF00BF00BF42
:1006C00000BF00BF00BF00BF00BF00BF00BF00BF32
:1006D00000BF00BF00BF00BF00BF00BF00BF00BF22
:1006E00000BF00BF00BF00BF00BF00BF00BF00BF12
:1006F00000BF00BF00BF00BF00BF00BF00BF00BF02
:1007000000BF00BF00BF00BF00BF00BF00BF00BFF1
:1007100000BF00BF00BF00BF00BF00BF00BF00BFE1
:1007200000BF00BF00BF00BF00BF00BF00BF00BFD1
:1007300000BF00BF00BF00BF00BF00BF00BF00BFC1
:1007400000BF00BF00BF00BF00BF00BF00BF00BFB1
:1007500000BF00BF00BF00BF00BF00BF00BF00BFA1
:1007600000BF00BF00BF00BF00BF00BF00BF05212A
:10077000112000F04DFA0521102000F049FA052162
:100780000D2000F045FA05210C2000F041FA10EE92
:100790001030DB4303F47F2320EE103008BD00BF90
:1007A00000006050F0B5A1B06E468022002168467E
:1007B00001F01EFE004A01E00000605013689B0536
:1007C000FCD500BF00BF00BF00BF00BF00BF00BF1F
:1007D00000BF00BF00BF00BF00BF00BF00BF00BF21
:1007E00000BF00BF00BF00BF00BF00BF00BF00BF11
:1007F00000BF00BF00BF00BF00BF00BF00BF00BF01
:1008000000BF00BF00BF00BF00BF00BF00BF00BFF0
:1008100000BF00BF00BF00BF00BF00BF00BF00BFE0
:1008200000BF00BF00BF00BF00BF00BF00BF00BFD0
:1008300000BF00BF00BF00BF00BF00BF00BF00BFC0
:1008400000BF00BF00BF00BF00BF00BF00BF00BFB0
:1008500000BF00BF00BF00BF00BF00BF00BF00BFA0
:1008600000BF00BF00BF00BF00BF00BF00BF00BF90
:1008700000BF00BF00BF00BF00BF00BF00BF00BF80
:1008800000BF00BF00BF00BF00BF00BF00BF00BF70
:1008900000BF00BF00BF00BF00BF00BF00BF00BF60
:1008A00000BF00BF00BF00BF00BF00BF00BF00BF50
:1008B00000BF00BF00BF00BF00BF00BF00BF00BF40
:1008C00000BF00BF00BF00BF00BF00BF00BF00BF30
:1008D00000BF00BF00BF00BF00BF00BF00BF00BF20
:1008E00000BF00BF00BF00BF00BF00BF00BF00BF10
:1008F00000BF00BF00BF00BF00BF00BF00BF00BF00
:1009000000BF00BF00BF00BF00BF00BF00BF00BFEF
:1009100000BF00BF00BF00BF00BF00BF00BF00BFDF
:1009200000BF00BF00BF00BF00BF00BF00BF00BFCF
:1009300000BF00BF00BF00BF00BF00BF00BF00BFBF
:1009400000BF00BF00BF00BF00BF00BF00BF00BFAF
:1009500000BF00BF00BF00BF00BF00BF00BF00BF9F
:1009600000BF00BF00BF00BF00BF00BF00BF00BF8F
:1009700000BF00BF00BF00BF00BF00BF00BF00BF7F
:1009800000BF00BF00BF00BF00BF00BF00BF00BF6F
:1009900000BF13234FF0000444EC4030112044EC1E
:1009A000400005252B46013BFDD1122344EC40308D
:1009B000102744EC40700A23013BFDD1002100F0D8
:1009C00027F90021384600F023F91423013BFDD11B
:1009D0004FF0A042202116600F23D16144EC40303B
:1009E0000D2044EC4000013DFDD10E2244EC40209E
:1009F0000C2544EC4050013BFDD1002100F008F9EA
:100A00000021284600F004F921B0F0BD70B44FF089
:100A1000A0434FF4B4654FF48851054E054C064A87
:100A200018605E609D601C61116070BC704700BF03
:100A30000400605011006800008006402DE9F04776
:100A4000FFF792FD0820634A634D10606A6D634CA6
:100A500082F0200202F0E0026265AA6D604982F431
:100A6000803202F440325F4BA26508609A68D2433C
:100A700012F00804FAD1132000F02AF9122000F035
:100A800027F922462146132000F0E0F822462146AD
:100A9000122000F0DBF84FF0130A4FF0010545EC8F
:100AA00044A04FF0120945EC449045EC40A045ECC1
:100AB00040900F2000F00CF90E2000F009F92246BA
:100AC00021460F2000F0C2F8224621460E2000F0F9
:100AD000BDF80F2245EC44200E2345EC443045EC94
:100AE000402045EC40300D2000F0F2F80C2000F0E2
:100AF000EFF8224621460D2000F0A8F822462146B4
:100B00000C2000F0A3F80D2745EC44700C2645ECB2
:100B1000446045EC407045EC4060112000F0D8F88E
:100B2000102000F0D5F822462146112000F08EF862
:100B300022462146102000F089F84FF0110845ECBC
:100B40004480102445EC444045EC408045EC404056
:100B50004FF400304FF440314FF48072224B9861D3
:100B600059619A6002F580325A60204A40461A6004
:100B7000012100F08FF82046012100F08BF8384663
:100B8000012100F087F83046012100F083F850463B
:100B9000032100F08DF84846032100F089F8504603
:100BA000032100F085F84846032100F081F8404613
:100BB000032100F07DF82046032100F079F8384643
:100BC000032100F075F83046BDE8F047032100F03E
:100BD0006FB800BF0020024000000140001001403B
:100BE000003002400000024000000C4001020411ED
:100BF000002300F5005003604360704700F5005388
:100C000018685B68C01AB0FA80F04009704700BFEE
:100C100010B44FF480740C4B53F8202003EB800386
:100C2000C00082F0400200F1804003F5805C02F0D9
:100C3000C00200F5203003F54053CCF8002041609D
:100C40001C605DF8044B70470480034010B4084CEE
:100C5000C90041EA820154F8202004EB800351408E
:100C600003F5805301F00C015DF8044B19607047E7
:100C700004800340064B022203EB800319B103F505
:100C800000531A60704703F540531A60704700BF65
:100C900004800340054B53F8202003EB80035140B0
:100CA00001F0010103F5805319607047048003408F
:100CB000064B53F8202003EB800382EA011202F076
:100CC000300203F580531A60704700BF0480034070
:100CD00030B44FF0000343EC440043EC40000525E2
:100CE0004FF480740B4BC20053F8201003EB8000CC
:100CF00081F0400102F1804303F5203301F0C0028E
:100D000000F5805100F540500A605D60046030BC21
:100D1000704700BF048003400FB400B583B0049C4B
:100D2000074801F0A7F93CB105A92046019101F05F
:100D30005DF8044801F09EF9012001F06FF800BF52
:100D400098260010A8260010EFF3108072B6064B0C
:100D5000D3E8CF1F01220029FAD1C3E8412F00298F
:100D6000F6D1BFF35F8F7047030700200023034ACB
:100D7000C2E88F3F80F31088704700BF0307002050
:100D800070B58646EFF3108572B6124CD4E8CF6F7B
:100D90000120002EFAD1C4E8460F002EF6D1BFF391
:100DA0005F8F4FF0010CC80801F007030CFA03F342
:100DB0001EF800C01CEA030608D14CEA030C0EF82A
:100DC00000C0C4E88F6F85F3108870BD1046FFF730
:100DD000A3FF00BF03070020F8B5EFF3108772B63A
:100DE0001C4ED6E8CF5F0124002DFAD1C6E8454F4E
:100DF000002DF6D1BFF35F8F9A421BD8012502E088
:100E00000132934222D3D40810F804E002F0070C18
:100E100005FA0CFC1EEA0C0FF2D14EEA0C0E00F89B
:100E200004E010460023C6E88F3F87F310889842FD
:100E300007DBF8BD0023C6E88F3F87F310884FF02B
:100E4000FF300029F5D00698FFF766FF4FF0FF301E
:100E5000E8E700BF03070020044A1078431CDBB218
:100E6000182B28BF10231370704700BF4C050020BB
:100E70004FF0E022936843F000539360704700BF47
:100E80000021044B03F12002C3E88F1F013393427A
:100E9000FAD17047F80600204FF0E0234FF080327F
:100EA000C3F80024C3F80424C3F80824C3F80C24AE
:100EB000C3F81024C3F81424C3F81824C3F81C245E
:100EC000C3F82024C3F82424C3F82824C3F82C240E
:100ED000C3F83024704700BF012300F01F02934085
:100EE000400941B1800000F1604000F56140C0F868
:100EF000803103607047024A203042F8203070474A
:100F000000E100E00123064A410952F8212000F0E7
:100F10001F0003FA00F01040003818BF012070478E
:100F200000E100E0F8B50D46EFF3108772B6124EFF
:100F3000D6E8CF2F0123002AFAD1C6E8423F002A83
:100F4000F6D1BFF35F8F0D4B00F110049B680C4A84
:100F500053F82430934203D0994201D000F042FE6E
:100F6000064B9B6843F82450BFF35F8F0023C6E80D
:100F70008F3F87F31088F8BD0107002000ED00E0E7
:100F80001D010010014B0B4403607047F806002060
:100F900070B5104C104DAC420ED2FF26236863B1E1
:100FA000FFF75AFF01462046FFF7ECFFA680BFF38C
:100FB0005F8F0834AC42F1D370BDFFF74DFF01469F
:100FC0002046FFF7DFFF2671BFF35F8F0834AC4286
:100FD000E4D370BD68050020780500200D4B1A6829
:100FE000EFF3108172B6D2E8CFCF0120BCF1000F31
:100FF000F9D1C2E84C0FBCF1000FF4D1BFF35F8F01
:1010000000221B68C3E88F2F81F3108840BF0020A7
:1010100000217047A02F00202DE9F04F2DED028B0D
:1010200085B0EFF30583DBB2103B9A0818BF0122AD
:101030004FF0010103F0030B18BFAF4DAF4B08BFDA
:10104000AF4D0BEB820253F8226001FA0BF205F56B
:1010500041539FEDA78B01925A602FE0B3881C0487
:1010600040F19380B379002B40F0DD80B6F9082081
:10107000002AC0F21E81736902EB420203EBC20335
:10108000D3E90247B7F1FF3F08BFB4F1FF3F0ED0ED
:1010900005EB8B01AB6A0A69D21AE31A934205D3B6
:1010A00001232A6A03FA0BF3134200D10C6128468C
:1010B00000F0CAFAA042B941C0F2FB80B6F908308C
:1010C000019A002B0093EA63C8DBD6F8148003EB87
:1010D0004309284608EBC907D7E9024A00F0B4FAE9
:1010E000A04271EB0A01B9DBBAF1000FC0F2C38074
:1010F000D7E90431834A934200F0ED807A88B6F94B
:10110000080092B242EA0040984702460B4652EA73
:10111000030100F0B080002B80F2D180B4EB020E0E
:101120006AEB030A38F93930C7E902EA002B95DB8C
:10113000716903EB430201EBC202D2E90270BE45C2
:101140007AEB000C4FEA430288DBB4462CF8083FE8
:1011500006E003EB430001EBC0005A00D0E9027047
:10116000BE451A447AEB000001EBC20404DB31F9FE
:101170003230A446002BECDA28F83930009BACF86A
:101180000030B3881C043FF56DAF3369EFF3108274
:1011900072B6D3E8CF0F01210028FAD1C3E8401F6F
:1011A0000028F6D1BFF35F8F4FF6FF74B08800239D
:1011B000316900B2B480C1E88F3F82F31088984251
:1011C000FFF650AF0746A946746906F1080807EB19
:1011D000470E04EBCE03D3E90250B6F90830C446FB
:1011E000002B13DBB246009704E034F93630944606
:1011F000002B09DB03EB430604EBC602D2E90271C4
:10120000BD4270EB0101F0DA5646009FACF8007069
:1012100034F93E7024F83E30002FD8DAB3794D46C9
:10122000002B3FF423AF0023B371B6F9083006F169
:101230000808581C3DD01A46776903E08046591CBF
:101240003FF416AF03EB430107EBC100B0F802C057
:101250001C461CF4004F9E4637F93130EED09442C4
:1012600080ED028B05D0A8F80030328927F83120B4
:1012700034817246E3E738F8393033813369EFF36C
:10128000108272B6D3E8CF0F01210028FAD1C3E84B
:10129000401F0028F6D1BFF35F8F7388316928F8AB
:1012A0003930009B73800023C1E88F3F82F31088A0
:1012B000D4E640BF05B0BDEC028BBDE8F08F2846F8
:1012C000CDE9022300F0C0F9029A039B10EB020E55
:1012D00043EB010A26E708460B690291984700286C
:1012E000C9D00299D1E9002311E700BFAFF3008014
:1012F000FFFFFFFFFFFFFFFF00800B40802F00205C
:1013000000000B40191000102DE9F84F364C2569EC
:101310002DB1BDE8F84F0A213448FFF733BEDFF89E
:10132000E4800321404600F07DF90326C4F80C80D8
:10133000FFF792FD4FF0504C2D4B26700344236174
:10134000DCF800300F216370636961801D834FF00A
:101350000405A3F878504FF00505A3F890504FF01E
:101360000605A3F8A8504FF007050E214FF6FF72AF
:1013700008274FF00A0EA3F8C0504FF001094FF0B4
:101380000C0C4FF0020B4FF0090A0D204FF00B052B
:10139000A3F868111749A280A3F808E1A160A3F897
:1013A00048B0A3F8F0A0A3F82051A3F838C1A3F8DF
:1013B0005001A3F83090A3F86060A3F8D8701A80A9
:1013C0000D4B3046C8F820700C49DC60FFF7AAFDD1
:1013D00049463046FFF780FD094B0A211F64034848
:1013E000BDE8F84FFFF7CEBD50050020A02F00202C
:1013F000F8060020FFFF1000802F002019100010B9
:1014000000200B4000000B400146F0B50069EFF3EF
:10141000108772B6D0E8CF5F0124002DFAD1C0E862
:10142000454F002DF6D1BFF35F8FB1F902E04C6953
:101430000EEB4E0CBEF1000F4FEACC05086904EB31
:10144000CC0C3CDB665B4E800026C0E88F6F87F3D8
:101450001088BCF80200CCE902230130C0F30E0072
:10146000012838BF0120059BACF80200CCF81030F1
:10147000069B40EA0E40CCF814300B69EFF3108263
:1014800072B6D3E8CFCF0127BCF1000FF9D1C3E882
:101490004C7FBCF1000FF4D1BFF35F8F8B88635397
:1014A000A1F804E00B69C3E88F6F82F31088012272
:1014B000CB68097803F501538A405A60F0BD0023D8
:1014C000C0E88F3F87F310884FF0FF30F0BD00BFBA
:1014D00003464089B0EB214F37DD58690A1402EB0F
:1014E000420210B500EBC2001C69EFF3108C72B61B
:1014F000D4E8CFEF0122BEF1000FF9D1C4E84E2F9E
:10150000BEF1000FF4D1BFF35F8F428889B292B26F
:101510008A4207D000221B69C3E88F2F8CF3108802
:10152000002010BD42F400424280012100221869CF
:101530009971C0E88F2F8CF310881C78DA68084600
:1015400002F50153A140596010BD0020704700BF53
:101550002DE9F04306460D4683B0EFF30584E4B26F
:101560003CB12D4B5A6AAA421CD2002003B0BDE800
:10157000F0832A4FD7F80C9097F80080484600F087
:1015800063F808F1040859F828301B1A301A65EB83
:101590000101984271F1000110DB20BF1E4B5A6A15
:1015A000AA42E2D314BF012400249B6AB34234BF91
:1015B000204644F0010003B0BDE8F08300F04CF891
:1015C000864265EB0101002914DB154B3846CDE955
:1015D000003432462B46FFF717FF011E0ADD0E4B83
:1015E0005A6AAA4216D39B6AB34211D30B48FFF73B
:1015F0006FFFB6E7084B5C6AAC42B6D3641B18BFFA
:1016000001249B6AB34234BF204644F00100ADE799
:10161000AA42EBD120BFE9E700000B4050050020B3
:10162000DD0F001010B4054B054C064AA04214BF54
:101630001846581C5DF8044BFFF7A2BB2407002096
:1016400000800B40AC2600100346416A0A46986AA7
:10165000596A8A42FAD17047034B596A0A46986A16
:10166000596A9142FAD1704700000B4030B4154AD4
:10167000536A9C46946A536A6345FAD102195941E8
:101680004FF0000528BF01250E4B5B6AB5B15A1C0F
:1016900008BF1A4608D04FF0FF310A460948436A8E
:1016A0008B42FCD38B4207D1064902E0486A98423C
:1016B00002D1886A9042F9D330BC70479942EDD884
:1016C000F0E700BF00000B4000EB400C4FEA8C0C31
:1016D0000CF1804C0CF5803CF0B51646DCF804208B
:1016E000051FB2F5803F38BF4FF48032EDB238BFEE
:1016F000CCF80420012D2AD94FF40067254C0CF5B5
:101700004052176054F82020B2B9DCF80020012DB7
:1017100082EA461202F0E0020CF5805632602AD9C5
:101720004FF4006144F820304FF480330CF5005240
:101730001160CCF80430F0BD6769B7FBF2FE0EF122
:10174000010E0EEB4E0EBEF1030EFCD2DDE70129B9
:10175000D2D103240CF540521460DCF80820D207E3
:10176000FBD5DCF800200B4C82EA461202F0E002C6
:101770000CF5805632600122DCF800504D4005F037
:101780000305356002FA01F1DCF808200A42FBD0BB
:10179000C6E700BF2C070020014B53F8200070471C
:1017A0002C070020584B2DE9F0431C6C1746B4F56C
:1017B000803F38BF4FF4803283B038BF1A640322B1
:1017C00080460E46514B504DDA636C6CE307FCD5F6
:1017D000EB6B4F4A83F0200303F0E003D363EB6B22
:1017E000494D83F0010303F00303D3636C6CA4073A
:1017F000FCD54FF400624FF48039464B464CDA6317
:10180000464B4246636101213346C5F84090444847
:10181000009700F057F94FF400616B6B07FB06F679
:101820004B4538BFC5F83490384B2269B8FBF6F603
:1018300019633AB16369B3FBF2F3013303EB43037A
:10184000033BFDD23049324A0B6B03F0E0031363D4
:101850000B6B83F0020303F0030313638B6B5807D6
:10186000FCD54FF400654FF480332A4A15632D4AA6
:101870004B6322610A6C9A424FF0030238BF0B643B
:10188000224B2149DA634B6CDA07FCD5CB6B204A3B
:1018900003F0E003D363CB6B1B4983F0010303F038
:1018A0000303D3634B6C9B07FCD54FF480334FF499
:1018B0000065184A6661D5630B64CA6C9A4238BFEA
:1018C000CB644FF40061114BA26999643AB163692A
:1018D000B3FBF2F3013303EB4303033BFDD24FF4BD
:1018E00000604FF48031084A094D936C83F0400347
:1018F00003F0E003AB64074B084DA5619864D16425
:1019000003B0BDE8F08300BF00000140003001409B
:1019100000100140002001402C070020006CDC0278
:1019200000000540001BB7002DE9F04F4FF4A078F0
:10193000994685B0CDE902125F4CDFF884A1544589
:101940000AD908F1FF38A4F53B54B8F10F0FA4F100
:101950002004F4D1002069E0072304F53722019424
:1019600003FB03F402F5D872B2FBF4FE70454FF0AE
:10197000010C4FF002074FF003064FF004054FF043
:1019800005013FD0B3F1010E00F094800EFB03F48B
:10199000B2FBF4FB58454CD019B301FB03F4B2FB86
:1019A000F4FB58454FD0E5B105FB03F4B2FBF4FB63
:1019B000584553D0AEB106FB03F4B2FBF4FB5845D7
:1019C00057D077B107FB03F4B2FBF4FB58455BD06B
:1019D000BCF1000F05D00CFB03F4B2FBF4FB834514
:1019E0005DD0734603FB03F4B2FBF4FE704501F1D6
:1019F000FF3105F1FF3506F1FF3607F1FF370CF136
:101A0000FF3CBFD104FB1024002CBBD19E464A46AC
:101A1000DDF808B0DDF80C900120284901FB08F141
:101A2000CBF80010C9F80030C2F800E005B0BDE8FE
:101A3000F08F04FB1024002CAED14A46DDF808B02C
:101A4000DDF80C90E8E704FB1024002CABD14A46EB
:101A50008E46DDF808B0DDF80C90DDE704FB1024BD
:101A6000002CA7D14A46AE46DDF808B0DDF80C9050
:101A7000D2E704FB1024002CA3D14A46B646DDF879
:101A800008B0DDF80C90C7E704FB1024002C9FD1B0
:101A90004A46BE46DDF808B0DDF80C90BCE704FB12
:101AA0001024002C9DD14A46E646DDF808B0DDF84A
:101AB0000C90B1E7019C44E750262F00001BB700B3
:101AC00050F80C0070B4039D04682D0345EA0345EB
:101AD0001B4B002CB3FBF1F3B2FBF3F61FDB194AEF
:101AE000194B904214BF4FF480424FF40042174C00
:101AF0001A6003F580531A60A36832EA0303FBD12E
:101B0000212200F540530433016086601A600268A8
:101B1000002AFCDA0822C5601A6070BC70470368AE
:101B200003F03F038B42DAD18368C3F30B03B34264
:101B3000D5D1C36803F4EE23AB42D0D1EDE700BFAB
:101B4000001BB7000080054000200240000002405A
:101B5000012300EB4000800000F1804000F584107C
:101B600041600360704700BF0023DB8A002242E827
:101B700000F2520201D4102118470421184700BF77
:101B8000034AD2F82838002BFBD0BFF35F8F704791
:101B900000000E400021044B044ABFF35F8F43F85E
:101BA000041B9342F9D170470C080E402C080E40DC
:101BB00010B44FF48D704FF42A64064A064B07495F
:101BC0001460D06019605368002BFCDA5DF8044B98
:101BD000704700BF0080044000A0044000B0FA003D
:101BE000704700BF08B50148FFF796F8D0260010EF
:101BF00038B5054C054DAC4204D254F8043B984727
:101C0000AC42FAD338BD00BF182600105826001089
:101C100038B5054C054DAC4204D254F8043B984706
:101C2000AC42FAD338BD00BF44260010582600103D
:101C300010B40748074C084B084A094904601A6069
:101C40008B6832EA0303FBD15DF8044B704700BF99
:101C5000002002407F3BEFEF00300240F6FFF3032D
:101C600000000240044BDB6CB3F5004F03D14FF48E
:101C70008022024BDA64704700001150002011509E
:101C80004FF0E022044BD2F8881D0B43C2F8883D88
:101C900010EE3004704700BF030330006FF0604166
:101CA000044B054A19609368DB4333F06043FAD173
:101CB000704700BF003002400000024010B545F2FE
:101CC0005320FFF751FFBDE810400346042018479A
:101CD00010B545F25320FFF747FFBDE8104003461B
:101CE00001201847FFF7CCB810B5054B054C4FF451
:101CF00088721846A16800F0C9FBA06010BD00BF43
:101D00000000002000ED00E0002370B52B4C82B0F5
:101D1000C4F88430FFF74CFF0122294BDA63636C6F
:101D2000012BFCD10321264A244B11639C6B012C0F
:101D3000FCD10226052521460523224A2248009689
:101D4000FFF7C0FE21462B46204A21480095FFF7A9
:101D5000B9FE0022042031461E4BFFF7B5FC214698
:101D6000284600221C4BFFF7AFFC0022082011463A
:101D70001A4BFFF7A9FC002209201146174BFFF769
:101D8000A3FC002206201146134BFFF79DFC002206
:101D9000114B07201146FFF797FC0420FFF7FCFCCE
:101DA00000240F4BA3FB0035AD0CE0B229460134F3
:101DB000FFF7CEFE062CF8D102B070BD0000014046
:101DC00000300140002F685900000540008C864714
:101DD00000800540001BB70080D1F008006CDC02D9
:101DE00083DE1B4300B9704700F002B910B5094B00
:101DF00084B01C684CB1034600914FF0FF3203A938
:101E00000548A047012004B010BD00F033F920467A
:101E100004B010BD5C070020E51D001000BEFDE70A
:101E200008B5FFF7FBFF00BF38B5064C064DFFF7BE
:101E3000DFFEAC4204D254F8043B9847AC42FAD3DC
:101E400038BD00BF582600105C2600100368084605
:101E5000114618472DE9F0411546427D0746884650
:101E6000002A46D0002D1DDD0B780A2B23D0012D32
:101E70004FF0000C18D04646012416F8012F2146D9
:101E80000A2A04F1010422D0A542F6D165450BDCF3
:101E900008EB050313F8013CA3F10D03B3FA83F338
:101EA0005B093B75BDE8F0813B68A5EB0C0108EBD5
:101EB0000C009847ECE7037D002BD8D10368022182
:101EC0000F489847012DE3D04FF0010CD3E716F8E7
:101ED000013C0D2BD8D08C4508EB0C00A1EB0C017C
:101EE00001DA3B689847022105483B689847A446B9
:101EF000CAE7294640463B68BDE8F041184700BFA5
:101F0000F82700102DE9F04782B00D4691461C4697
:101F10000646FFF7A1FB4FF0FF3C6FF000472E4A4B
:101F2000821841F10003944577EB03013CBF624600
:101F30003B462A4800F068FB6B1C804640D00CB33F
:101F4000274F284B1C68B4B1B9F1000F1CD1DFF842
:101F50009C9001E0246974B12368002BFAD0D9F871
:101F600000300BB19C42F5D120462A463146B84795
:101F70002469002CF0D1B8F1000F26D1284602B018
:101F8000BDE8F087184FDCE74FF00A0ADFF85C90F5
:101F900002E02469002CEED02368002BF9D0D9F898
:101FA00000300BB1A342F4D12A4631462046B8474F
:101FB000012220460DF107018DF807A0B847E8E798
:101FC000304600F0D9FA0546B9E7044800F010FBA6
:101FD000284602B0BDE8F08740420F00700500209F
:101FE000551E0010540700204D1E001058070020F9
:101FF000F0B583B006468DF80700FFF72DFB4FF0D4
:10200000FF356FF00044174A821841F100039542F2
:1020100074EB03013CBF23462A46134800F0F4FA50
:10202000124B07461C689CB1114D01E024697CB13C
:102030002368002BFAD02B680BB19C42F6D12046C6
:1020400001220DF10701FFF705FF2469002CEFD1F4
:1020500017B9304603B0F0BD034800F0C9FA304666
:1020600003B0F0BD40420F0070050020540700206F
:102070005807002038B5044600F07EFA01230546D3
:102080001A4620462946FFF73DFF084B1C682CB135
:1020900063682BB198472469002CF9D1284638BDD4
:1020A0002469002CF4D1284638BD00BF5407002015
:1020B00010B5044604F12F4404F56004084B240DC8
:1020C00082B0A40000932246E31C0648FEF784FE7B
:1020D0008442CCBF4FF0FF30001B02B010BD00BFE8
:1020E00028270010280700202DE9F0470F46054655
:1020F000FEF72AFE012297F804A097F905C005F122
:102100002F4EDFF8D4800EF5600E02FA0AF24FEA85
:102110001E5EBCF1000F58F82E6002F1FF32CAF1CA
:10212000200435DBA44503DC02FA0CF3334206D06D
:102130004FF0FF34FEF71AFE2046BDE8F087D5F8D1
:102140006831F979002B41D14B0731D4644602FA4A
:102150000CF2164233D13968BAF1000F10D067463D
:1021600001EB4A0A31F8023B07F11209B3F5005FAF
:1021700038BF6344514507F1010745F82930F1D1D3
:10218000324348F82E20FEF7F1FD2046BDE8F087E7
:10219000002C02DA13E0013C11D302FA04F33342BB
:1021A000A446F8D1D5F86811FB7991B95B07CED573
:1021B0006FF00A04FEF7DAFD2046BDE8F0876FF005
:1021C0000804FEF7D3FD2046BDE8F087C907BDD55A
:1021D000EEE7D907BBD5EBE7180700202DE9F04162
:1021E000D0F868419DF81860121B1F2A38D84EF2AB
:1021F0009F044EF280054FF4003801EB410C002E95
:1022000018BF254600EBCC0404F5435400EBCC0C7E
:10221000052BDCF8DC704FEA410EDCF8CC60C4F82A
:102220000C800CD95401053B44F0A0540532052B19
:10223000CCF8DC4002F01F02CCF8D850F2D8714440
:1022400000EBC1010020520142EA8363C1F8DC3097
:10225000C1F8D850C1F8DC70C1F8CC60BDE8F0819D
:102260006FF00400FAE700BFF0B5012504688D4067
:1022700024EA05040460B3B3D3E901561F68DC689F
:1022800001EB410300EBC303C3F8C8704FEA410CF4
:10229000C3F8D060C3F8CC50C3F8DC400CEB0103AA
:1022A0004FF0013500EBC30C4FF0004600EBC30EBE
:1022B00001230EF5865E0C1D01F108078D40CEF856
:1022C000106003FA04F4CEF8106002F01F0285607B
:1022D000BB4000F5005004600EF1100E03600020BA
:1022E000CCF8D820F0BD4FF480374FF440264FF49F
:1022F000F83501EB410400EBC404C4F8C8704FEAA0
:10230000410CC4F8D060C4F8CC50C4F8DC30C5E748
:1023100003BD00BF10B50446FFF77AFC2346BDE8B5
:1023200010401847F0B5054687B0192017460E46ED
:10233000FEF7E8FD002104461920FEF7CDFD00213F
:10234000CDE9046503970026002701224FF0504392
:102350008C46CDE900670292A9B11A6D9507FCD5AC
:10236000596540BF1A6DD00703D420BF1A6DD2073C
:10237000FBD59A6D8A420BD04FF0000C0DEB8C020E
:102380001168E9E79A6D1A6DD607FBD440BFE4E700
:102390000CF1010CBCF1060FF0D12146192007B059
:1023A000BDE8F040FEF798BD0C4B0D4A93420ED3AA
:1023B0009C4603F2F4710B4A9268CCF8F4070A4881
:1023C000CCF8F837CCF8FC070848FFF7ABBF4FF064
:1023D000FF3340F2F3719C46EDE700BF0008082090
:1023E0000000082000ED00E015230010112300106C
:1023F000830730B546D08418844604E003F8011BF7
:102400009D0704D09C46A4456346F7D130BD013AF0
:102410000244A2EB0C02032A29D9CCB20F2A04EB06
:10242000042404EB04442FD9A2F1100C03F110058D
:102430002CF00F0CAC44C3E90044C3E90244103350
:102440006345F8D112F00C0F02F00F0E18D02EF0E9
:10245000030CAEF104051A469C4442F8044B624555
:10246000FBD125F0030404330EF003022344002AB9
:10247000CCD0C9B21A4403F8011B9342FBD130BD42
:102480007246F4E70346C6E79646E0E7844641EA2B
:10249000000313F0030349D1403A23D30B680360D0
:1024A0004B6843608B688360CB68C3600B690361D2
:1024B0004B6943618B698361CB69C3610B6A0362BA
:1024C0004B6A43628B6A8362CB6AC3620B6B0363A2
:1024D0004B6B43638B6B8363CB6BC3634030403187
:1024E000403ADBD230320BD30B6803604B68436059
:1024F0008B688360CB68C36010301031103AF3D220
:102500000C3205D351F8043B40F8043B043AF9D2AD
:10251000043208D0D2071CBF11F8013B00F8013B80
:1025200001D30B8803806046704700BF082A13D38D
:102530008B07B1D010F00303AED0C3F10403D21A5D
:10254000DB071CBF11F8013B00F8013BA4D331F8B5
:10255000023B20F8023B9FE7043AD9D3013A11F835
:10256000013B00F8013BF9D20B7803704B784370C4
:102570008B7883706046704720F0030110F00300F1
:10258000C0F1000051F8043B00F1040C4FEACC0C00
:102590006FF000021CBF22FA0CF213434FF0010C43
:1025A0004CEA0C2C4CEA0C4CA3EB0C0222EA030282
:1025B00012EACC1204BF51F8043B0430F4D0C2F14B
:1025C000000102EA0102B2FA82F2C2F11F0200EB3C
:1025D000D2007047F8B500BF5FF800F02D01002071
:1025E0005FF800F0DD0100205FF800F071030020CB
:1025F0005FF800F0F10400205FF800F041020020D5
:102600005FF800F0A10200205FF800F089040020CC
:102610005FF800F00D020020BD1C0010311C0010FE
:10262000651C0010091D00109D1C0010951B00105A
:10263000E51C0010811B0010910F0010E91C001018
:1026400009130010E11B0010D11C0010811C0010A8
:0C265000710E0010990E0010190200100D
:10265C0053797374656D20636C6F636B206F6620A8
:10266C002575206B487A2063616E6E6F74206265ED
:10267C002065786163746C7920616368696576653F
:10268C0064000000B822A0051E0000000A2A2A2AB5
:10269C002050414E4943202A2A2A0A000A000000F1
:1026AC00486172647761726520616C61726D20257E
:1026BC006420616C726561647920636C61696D651D
:1026CC006400000048617264206173736572740069
:1026DC0052656C6561736500626F6F74325F77323F
:1026EC003571303830000000302E3100322E312E52
:1026FC00310000007069636F320000004672616D3A
:10270C00657468726F7765725F44656E6973650096
:10271C005365702031332032303235004E6F2050EB
:10272C00494F207374617465206D616368696E65CF
:10273C00732061726520617661696C61626C650001
:10274C00542700100FFF0100A03F203F3FE0C000C6
:10275C0042A2430000C0403FA03F53E03FE042A3F1
:10276C004B008A00000000007C2700100AFF0102C9
:10277C00A08027A017259725142094260040142606
:10278C0000404500B8010000070000000600525050
:10279C00D3F07542DC26001006005250E182887F8F
:1027AC00E4260010060052503ABCA911F426001081
:1027BC0006005250ABB36053F8260010060052507E
:1027CC00BBFF3CB60027001006005250861C0302CB
:1027DC0008270010060052505422A29D1C270010FE
:1027EC0005005250DE65F468A02C00100D0A0000A4
:0827FC0090FCFF7F01000000CA
:1028040098270010A4270010B0270010BC27001040
:10281400C8270010D4270010E0270010EC27001070
:10282400044B1B681A6BD20703D5012202491A63B1
:102834000A70704748050020AC37002001224FF091
:10284400004327482749F0B50768096807EB4700A4
:1028540001EBC0003C1D00F5865002FA04F401F5BA
:10286400005507F110060361B24003612C604B6808
:102874001342FCD140F28F12012001EB87052A613B
:102884000A6800FA07F3DFF860E007F10804DF43A1
:1028940013430EF5C866A0400B604B680342FCD19D
:1028A4002C6AC4F303224FEAD20343EA420CC4F372
:1028B40003124FEA920343EA820262F34A1CC4F30E
:1028C40003024FEAD20343EA420262F3CF2C2EF80A
:1028D40002CFB645E1D10B683B400B60F0BD00BFB1
:1028E400A42F0020480500205E070020B822002302
:1028F40000B583B000928DF8043000F0A9F94FF0D0
:10290400A0420523C2F800D0D36113695B01FCD453
:1029140000F09AF903B05DF804FB00BF00B50B4B5F
:1029240083B093E8030000908DF8041000F090F950
:102934004FF0A0420523C2F800D0D36113695B01B4
:10294400FCD400F081F903B05DF804FB902700107B
:102954004FF47F4210B5154B84B0ADF804200C46FB
:1029640093E803008DF80C10029000F071F94FF019
:10297400A042052302A91160D36113695901FCD453
:102984004FF4B4634FF0A0401460D36103695A015B
:10299400FCD402234FF0A04201A90160C361136972
:1029A4005B01FCD400F050F904B010BD9026001077
:1029B4002DE9F04100F5005EDEF80030DEF8044059
:1029C400013B1B1BC3F30B03934254D3DEF80430C7
:1029D4001344B3F5805F38D94FF0A04CDEF804609F
:1029E400DEF80450C6F58053244F00EB4505C3F3CD
:1029F4005D08CCF880105C00CCF88450CCF888805A
:102A0400CCF88C70DCF890305D01FBD42144CCF818
:102A140080104FF0A041A2F58053CCF884003344D9
:102A24001648C3F35D03CCF88830CCF88C00D1F899
:102A340090305801FBD4DEF8043001201344C3F372
:102A44000B03CEF80430BDE8F0814FF0A04CDEF863
:102A54000430CCF8801000EB4300084BC2F35D0156
:102A6400CCF88400CCF88810CCF88C30DCF89030AA
:102A74005B01FBD4DFE70020BDE8F08159407E0014
:102A840000F5005CDCF8043030B5DCF800401B1BBA
:102A9400C3F30B039A4244D8DCF800301344B3F573
:102AA400805F19D8DCF800301F4D00EB43004FF075
:102AB400A043C2F35D04C3F88000C3F88410C3F8D4
:102AC4008840C3F88C50DCF8003001201344C3F371
:102AD4000B03CCF8003030BD4FF0A043DCF80040CD
:102AE400DCF80050C4F5805E00EB4505C3F8805067
:102AF400A2F580552544CEF35D04C3F88410C3F8D1
:102B04008840094CC5F35D0501EB4E01C3F88C40C8
:102B1400C3F88000C3F88410C3F88850C3F88C400D
:102B2400D1E7002030BD00BF59207E004FF0504156
:102B34002DE9F0410027044616461D46D1F80080D1
:102B440008E0C1E88F7F8CF310883046294600F0F6
:102B540077F8E8B92168EFF3108C72B6D1E8CF2F7B
:102B64000123002AFAD1C1E8423F002AF6D1BFF37B
:102B74005F8F94F904302168002BE2DA002384F893
:102B84000480C1E88F3F8CF310880120BDE8F081F8
:102B94000020BDE8F08100BF30B50468EFF3108C6D
:102BA40072B6D4E8CFEF0125BEF1000FF9D1C4E825
:102BB4004E5FBEF1000FF4D1BFF35F8F90F9044074
:102BC4000568002C10DB0021C5E88F1F8CF31088EA
:102BD4004FF0504595F90050A54201D1084630BD4B
:102BE400BDE83040FFF7A2BF4FF050421268002307
:102BF4000271C5E88F3F8CF31088012030BD00BFFF
:102C04000368EFF3108272B6D3E8CFCF0121BCF191
:102C1400000FF9D1C3E84C1FBCF1000FF4D1BFF38E
:102C24005F8F4FF0FF0C0023016880F804C0C1E8F7
:102C34008F3F82F3108840BF704700BF0000000040
:102C44005FF800F0511500105FF800F069050010FE
:102C54005FF800F0A50700100000205010000000ED
:102C64000000000000000000000000000000000060
:102C740000000000780500200000000000000000B3
:082C8400000000000000000048
:102C8C00D3DEFFFFFE010000FF010000ACD4FFFF0C
:042C9C00793512ABC9
:040000051000014D99
:00000001FF
