:020000041000EA
:10000000002008205D0100101301001015010010F0
:100010001101001011010010110100101101001058
:100020001101001011010010110100101701001042
:100030001101001011010010190100101B01001026
:100040001D0100101D0100101D0100101D010010F8
:100050001D0100101D0100101D0100101D010010E8
:100060001D0100101D0100101D0100101D010010D8
:100070001D0100101D0100101D0100101D010010C8
:100080001D0100101D0100101D0100101D010010B8
:100090001D0100101D0100101D0100101D010010A8
:1000A0001D0100101D0100101D0100101D01001098
:1000B0001D0100101D0100101D0100101D01001088
:1000C0001D0100101D0100101D0100101D01001078
:1000D0001D0100101D0100101D0100101D01001068
:1000E0001D0100101D0100101D0100101D01001058
:1000F0001D0100101D0100101D0100101D01001048
:100100001D0100101D0100101D0100101D01001037
:1001100000BE00BE00BE00BE00BE00BEEFF3058004
:10012000103800BEF2EB8871D0310010F0310010B1
:10013000A801001090A31AE7D3DEFFFF42012110AF
:10014000FF01000090430000793512AB4FF0000032
:100150002049086006C881F3088810474FF05040D6
:10016000006810B14FF00000F2E70FA40ECC002998
:1001700002D000F015F8F9E71749184A002000E00E
:1001800001C19142FCD1002080F30A8814498847BC
:10019000144988471449884700BEFDE701C901C2D8
:1001A0009A42FBD3704700BFF031001010010020CD
:1001B000A8120020884300100000082040010820F9
:1001C000C8440010001008200010082000000000A3
:1001D0007047000008ED00E0A81200207425002000
:1001E000B11E00106D060010A91E0010F8B500BF6A
:1001F000064B0749C91A891048BF0131491003D07D
:10020000044B0BB101481847704700BFA8120020EB
:10021000A81200200000000008B5054B1BB10549DD
:100220000548AFF30080BDE80840FFF7E1BF00BF1D
:10023000000000002C2500202C30001000000000E1
:100240002DE9F04301230022112402200821C5B02A
:10025000CDE90204CDE9003105A8114600F006FC05
:10026000002305A91A460EA800F054FC41F20C0325
:100270002148242141F214028646204C0360204B81
:100280004460204E1AA5D5E90045C0E904451E4D3D
:1002900081618260C3600DF1340C1FACA1F2244176
:1002A0005CF8048F0EF1080EDCF84830DCF8907032
:1002B00006EA832205EA07590B4042EA090243EAAB
:1002C0009823C8F30909BF0A42EA090243EA07531F
:1002D000A445CEE90523E3D141F214312D22074C88
:1002E0000A4BC0E92B141A6045B0BDE8F08300BF8B
:1002F0000810000054AFB20A301A0020AB504D3540
:1003000054534D3500FC0F000000F03F241D002029
:100310002DE9F043C1B04BF6803101A800F072FB2B
:10032000002301A91A460AA800F0F4FB41F20C03CD
:100330002148242141F214028646204C0360204BC0
:100340004460204E1AA5D5E90045C0E904451E4D7C
:1003500081610DEB010C8260C3601BACA1F22441F2
:100360005CF8048F0EF1080EDCF84830DCF8907071
:1003700006EA832205EA07590B4042EA090243EAEA
:100380009823C8F30909BF0A42EA090243EA07535E
:10039000A445CEE90523E3D141F214312D22074CC7
:1003A0000A4BC0E92B141A6041B0BDE8F08300BFCE
:1003B0000810000054AFB20A30190020AB504D3580
:1003C00054534D3500FC0F000000F03F201D00206D
:1003D0002DE9F043C1B04FF4C05246F6781101A8A0
:1003E00000F0D0FA002301A91A460AA800F092FBF7
:1003F00041F20C032248242141F214028646214C8A
:100400000360214B4460214E1BA5D5E90045C0E99E
:1004100004451F4D81610DEB010C8260C3601BAC74
:10042000A1F224415CF8048F0EF1080EDCF848308C
:10043000DCF8907006EA832205EA07590B4042EA8D
:10044000090243EA9823C8F30909BF0A42EA0902EC
:1004500043EA0753A445CEE90523E3D141F2143121
:100460002D22084C0B4BC0E92B141A6041B0BDE89B
:10047000F08300BFAFF300800810000054AFB20A51
:10048000A8120020AB504D3554534D3500FC0F00E1
:100490000000F03FCC1C00202DE9F04F0FF23C197A
:1004A000D9E90089444DC1B02B680222434901A813
:1004B00002F092FD002304461A4601A90AA82C6006
:1004C00000F028FB3E4B3F4841F2140258602420C4
:1004D00041F20C010DEB000498611D461F469E463B
:1004E00020469A60384AC3E904891960DFF8F4901D
:1004F000DFF8E0803549DA601BAE50F804AF0EF14A
:10050000080E836CD0F890C009EA832208EA0C5BDD
:100510000B4043EA9A2342EA0B02CAF3090A4FEA64
:100520009C2C42EA0A0243EA0C538642CEF814207D
:10053000CEF81830E1D1012300220AA801A900F069
:10054000E9FA41F208032422C7F8AC30204BDFF867
:1005500094C02048C7F8B420C7F8B030A2F22442B3
:1005600054F8048F0835A36CD4F890E00CEA83218A
:1005700000EA0E59134041EA090143EA9823C8F3FF
:1005800009094FEA9E2E41EA090143EA0E53B4429B
:10059000C5E92C13E4D1542205A1D1E900010E4B89
:1005A000C7E952011A6041B0BDE8F08FAFF3008097
:1005B000E8120000AB504D35181D0020D41C00205F
:1005C000A8130020AB504D3554534D3500FCFFFFB0
:1005D00054AFB20A0000F03FD01C00200810000009
:1005E00054AFB20A00FC0F002DE9F843DFF8749015
:1005F000DFF87480194F1A4E10EE185015F40015DC
:10060000FAD110EE18309902FBD51524013CA4B2A2
:1006100002F0CEFC002CF9D14FF0A04402F0C8FC4F
:100620004FF4B472D8F80030C4F880902B44C4F86A
:100630008430C4F88820C4F88C70D4F890305A0103
:10064000FBD405F5B465B542E8D110EE18309B0235
:10065000D2D410EE18309B02F7D5CDE759407E007A
:1006600000540600B61D0020141D00202DE9F04F97
:1006700032208DB000F0E8FE01F05AFA162001F0A9
:1006800035FA322000F0E0FE9F4BA04A3220DA60BB
:1006900000F0DAFE9E4808AB04AA03A901F012F9A3
:1006A00018B99B499B4800F0B1FA089ADDE90301AB
:1006B00001F046F8322000F0C7FE974801F08AFBAF
:1006C0000024964B25461860FFF7BAFDFFF720FE81
:1006D000FFF77EFE002002F015FA02F09DF9FFF709
:1006E000DBFE204600F06EFA45EC44400121204636
:1006F000013400F057FA0C2CF3D11C2000F062FA00
:100700001C234FF0010242EC4430142000F05AFA4E
:10071000142745EC4470152000F054FA152645ECDA
:100720004460162000F04EFA162445EC44400121A6
:10073000384600F037FA0121304600F033FA2046FF
:10074000012100F02FFA0820754B764D18606B6D73
:10075000754C83F0200303F0E0036365AB6D7349D0
:1007600083F4003303F44033714AA365086093684F
:10077000DB4313F00803FAD16E4A6F494FF4003E91
:1007800091626E494FF4403C51626D4913604FF4E1
:100790008077116040F60A3541F214510C24694EFD
:1007A00069486A4BC2F80CE0C2F810C05760966006
:1007B000D56110625161936120460021013400F03F
:1007C000D3F9142CF8D14FF0A04407220323DFF80B
:1007D000ACC15F4E5F4D604F26600A2065605F4987
:1007E000A260C4F810C026646564A2642765C4F8DA
:1007F0000C34C4F8043400F00FFB01210A2000F08F
:10080000E5FA01254FF48852554B564F56481A6069
:100810005649C4F85054386001F0AAFC2946834672
:10082000386801F089FC4FF480334FF4F8320893B4
:100830004FF440234FF0000C0446CDE90923DFF8C4
:100840004081CDF800C0CDF82CC00DF1100E08ABE2
:10085000C8F800000FCB8EE80F000BF10A094FEA31
:10086000093949EACB133E6805939EE80F000DF164
:10087000200E8EE80F00624621462023304601F00C
:10088000F1FC09994FEACB1A6FF3D01141EA0A0142
:1008900041EA090109910A995A4621F0FA7121F4B5
:1008A000803141F4A81108AB0A913046214601F08D
:1008B0001FFD4FF4807C33683F68D8F8002005FAAC
:1008C00004F423EA040305FA02F2336007F5055342
:1008D000C3F830C00F203A63254900F09DFA29463D
:1008E0000F2000F073FA234801F0A2FD224CFFF71D
:1008F000D3FD02F099F8002300B260F30F0360F318
:100900001F432360F3E700BF00000D4004020040D6
:10091000B01E04002C30001000540600141D0020EE
:100920000020024000000140001001400030024061
:100930000000024000000C406864600000011002EA
:1009400003020550000101000A0B0100141501000B
:10095000040D002004006050190068000100082008
:100960000080064044250020000020502431001063
:1009700011010020E9050010D41C00201920680096
:100980006C25002030B50024A4461C4B4FEA214EB4
:100990006EF3070C5FFA8EFE13F80EE00471C1F3DC
:1009A000072484EA0E0E13F80EE0C9B281EA0E0E97
:1009B00064F30F2C61F3174C13F80E10C2F3074EBB
:1009C0008EEA0101595C6EF31F6CC0F805C0C2F3DA
:1009D000072C8CEA0101595CD2B251405B5C8272F7
:1009E00080F809C0C37242688368054DC260056023
:1009F000036142618361C261036230BD240600204D
:100A00000100004A38B51D2205460C46073000217A
:100A100002F02AF84BF680334FF4C2710A229C424E
:100A20002980AA701ED04AF64443E31AB3FA83F32E
:100A30005B09DB0043F0010311204A24DBB20A4AC0
:100A4000C3F16001C9B22971515CAB714140515C85
:100A5000EC704B40D35C6871D35CD35CD35CD35CEB
:100A6000EB7238BD0D23E7E72406002010B59DF892
:100A7000084041EA42114FEA831C9DF90C204CEAE0
:100A8000041C42EA0C0C013218BF0122002341EA87
:100A900002119DF810E0C9B25FFA8CFC01F19102DD
:100AA0004FEA8E0E9DF814405FFA8EFE6244724447
:100AB00022445242D2B2C0F80930C0F81D30C0F80A
:100AC0000D30C0F81130C0F81530C0F8193003628D
:100AD00062F3070361F30F236CF317436EF31F6395
:100AE00043600A4B04729A5C51405A5C8CEA020CD7
:100AF00013F80C208EEA020E13F80E2054401A5DF3
:100B00009A5C9B5CC372024B036010BD24060020FC
:100B100082020DE4F8B51D4604460F4645EA42023E
:100B2000DFF840C042F00C013CF811500C4E45EA91
:100B30008525012305608664C0F89060211D384634
:100B400002F042FA384604F1940204F14C0102F03A
:100B50002BFA6564C4F88C60C4F8D460F8BD00BF9B
:100B600033CD04000406002010B44FF480740C4B05
:100B700053F8202003EB8003C00082F0400200F114
:100B8000804003F5805C02F0C00200F5203003F5E0
:100B90004053CCF8002041601C605DF8044B704766
:100BA00004800340064B022203EB800319B103F5D6
:100BB00000531A60704703F540531A60704700BF36
:100BC0000480034030B44FF0000343EC440043EC96
:100BD000400005254FF480740B4BC20053F82010E1
:100BE00003EB800081F0400102F1804303F52033E4
:100BF00001F0C00200F5805100F540500A605D60D0
:100C0000046030BC704700BF048003400FB400B5DF
:100C100083B0049C074801F071FA3CB105A9204655
:100C2000019101F0F7F8044801F068FA012001F0A1
:100C300009F900BF6030001070300010EFF3108031
:100C400072B6064BD3E8CF1F01220029FAD1C3E8C0
:100C5000412F0029F6D1BFF35F8F7047AB1C0020F6
:100C60000023034AC2E88F3F80F31088704700BF1B
:100C7000AB1C002070B58646EFF3108572B6124C9F
:100C8000D4E8CF6F0120002EFAD1C4E8460F002E21
:100C9000F6D1BFF35F8F4FF0010CC80801F00703D6
:100CA0000CFA03F31EF800C01CEA030608D14CEA54
:100CB000030C0EF800C0C4E88F6F85F3108870BD78
:100CC0001046FFF7A3FF00BFAB1C0020F8B5EFF301
:100CD000108772B61C4ED6E8CF5F0124002DFAD1E2
:100CE000C6E8454F002DF6D1BFF35F8F9A421BD85F
:100CF000012502E00132934222D3D40810F804E027
:100D000002F0070C05FA0CFC1EEA0C0FF2D14EEAB9
:100D10000C0E00F804E010460023C6E88F3F87F36E
:100D20001088984207DBF8BD0023C6E88F3F87F3A1
:100D300010884FF0FF300029F5D00698FFF766FFC6
:100D40004FF0FF30E8E700BFAB1C0020044A1078EA
:100D5000431CDBB2182B28BF10231370704700BF51
:100D6000200D00204FF0E022936843F00053936081
:100D7000704700BF0021044B03F12002C3E88F1F1E
:100D800001339342FAD17047A01C00204FF0E023BA
:100D90004FF08032C3F80024C3F80424C3F80824B9
:100DA000C3F80C24C3F81024C3F81424C3F818247F
:100DB000C3F81C24C3F82024C3F82424C3F828242F
:100DC000C3F82C24C3F83024704700BF012300F07F
:100DD0001F029340400941B1800000F1604000F5DE
:100DE0006140C0F8803103607047024A203042F809
:100DF0002030704700E100E00123064A410952F823
:100E0000212000F01F0003FA00F01040003818BF46
:100E10000120704700E100E0F8B50D46EFF31087C0
:100E200072B6124ED6E8CF2F0123002AFAD1C6E8B7
:100E3000423F002AF6D1BFF35F8F0D4B00F1100443
:100E40009B680C4A53F82430934203D0994201D056
:100E500000F0C0FE064B9B6843F82450BFF35F8F41
:100E60000023C6E88F3F87F31088F8BDA91C002037
:100E700000ED00E01D010010014B0B4403607047C2
:100E8000A01C002070B5104C104DAC420ED2FF26B5
:100E9000236863B1FFF75AFF01462046FFF7ECFFD6
:100EA000A680BFF35F8F0834AC42F1D370BDFFF76B
:100EB0004DFF01462046FFF7DFFF2671BFF35F8F2E
:100EC0000834AC42E4D370BD98120020A812002070
:100ED0000D4B1A68EFF3108172B6D2E8CFCF012024
:100EE000BCF1000FF9D1C2E84C0FBCF1000FF4D1F6
:100EF000BFF35F8F00221B68C3E88F2F81F3108838
:100F000040BF00200021704768250020000000003D
:100F10002DE9F04F2DED028B85B0EFF30583DBB2A9
:100F2000103B9A0818BF01224FF0010103F0030B98
:100F300018BFAF4DAF4B08BFAF4D0BEB820253F85C
:100F4000226001FA0BF205F541539FEDA78B019248
:100F50005A602FE0B3881C0440F19380B379002BD2
:100F600040F0DD80B6F90820002AC0F21E817369C6
:100F700002EB420203EBC203D3E90247B7F1FF3FA2
:100F800008BFB4F1FF3F0ED005EB8B01AB6A0A69D5
:100F9000D21AE31A934205D301232A6A03FA0BF308
:100FA000134200D10C61284600F038FBA042B94141
:100FB000C0F2FB80B6F90830019A002B0093EA6377
:100FC000C8DBD6F8148003EB4309284608EBC907B1
:100FD000D7E9024A00F022FBA04271EB0A01B9DB1B
:100FE000BAF1000FC0F2C380D7E90431834A9342BB
:100FF00000F0ED807A88B6F9080092B242EA00402B
:10100000984702460B4652EA030100F0B080002BDD
:1010100080F2D180B4EB020E6AEB030A38F9393062
:10102000C7E902EA002B95DB716903EB430201EB90
:10103000C202D2E90270BE457AEB000C4FEA4302CD
:1010400088DBB4462CF8083F06E003EB430001EBD5
:10105000C0005A00D0E90270BE451A447AEB000085
:1010600001EBC20404DB31F93230A446002BECDA88
:1010700028F83930009BACF80030B3881C043FF5E9
:101080006DAF3369EFF3108272B6D3E8CF0F012151
:101090000028FAD1C3E8401F0028F6D1BFF35F8FC4
:1010A0004FF6FF74B0880023316900B2B480C1E804
:1010B0008F3F82F310889842FFF650AF0746A9464B
:1010C000746906F1080807EB470E04EBCE03D3E979
:1010D0000250B6F90830C446002B13DBB246009725
:1010E00004E034F936309446002B09DB03EB430669
:1010F00004EBC602D2E90271BD4270EB0101F0DAE5
:101100005646009FACF8007034F93E7024F83E302B
:10111000002FD8DAB3794D46002B3FF423AF0023DC
:10112000B371B6F9083006F10808581C3DD01A46CC
:10113000776903E08046591C3FF416AF03EB430187
:1011400007EBC100B0F802C01C461CF4004F9E46DD
:1011500037F93130EED0944280ED028B05D0A8F8FB
:101160000030328927F8312034817246E3E738F8BD
:10117000393033813369EFF3108272B6D3E8CF0F81
:1011800001210028FAD1C3E8401F0028F6D1BFF39F
:101190005F8F7388316928F83930009B7380002392
:1011A000C1E88F3F82F31088D4E640BF05B0BDECA4
:1011B000028BBDE8F08F2846CDE9022300F02EFA1D
:1011C000029A039B10EB020E43EB010A26E7084646
:1011D0000B69029198470028C9D00299D1E90023F0
:1011E00011E700BFAFF30080FFFFFFFFFFFFFFFF2E
:1011F00000800B404825002000000B40110F00101C
:101200002DE9F84F364C25692DB1BDE8F84F0A217C
:101210003448FFF731BEDFF8E4800321404600F098
:10122000EBF90326C4F80C80FFF790FD4FF0504C0B
:101230002D4B267003442361DCF800300F216370CE
:10124000636961801D834FF00405A3F878504FF067
:101250000505A3F890504FF00605A3F8A8504FF0ED
:1012600007050E214FF6FF7208274FF00A0EA3F86C
:10127000C0504FF001094FF00C0C4FF0020B4FF033
:10128000090A0D204FF00B05A3F868111749A28039
:10129000A3F808E1A160A3F848B0A3F8F0A0A3F870
:1012A0002051A3F838C1A3F85001A3F83090A3F857
:1012B0006060A3F8D8701A800D4B3046C8F82070D3
:1012C0000C49DC60FFF7A8FD49463046FFF77EFD7C
:1012D000094B0A211F640348BDE8F84FFFF7CCBD56
:1012E000240D002068250020A01C0020FFFF100016
:1012F00048250020110F001000200B4000000B407B
:101300000146F0B50069EFF3108772B6D0E8CF5F01
:101310000124002DFAD1C0E8454F002DF6D1BFF3CE
:101320005F8FB1F902E04C690EEB4E0CBEF1000F7D
:101330004FEACC05086904EBCC0C3CDB665B4E80C5
:101340000026C0E88F6F87F31088BCF80200CCE954
:1013500002230130C0F30E00012838BF0120059B95
:10136000ACF80200CCF81030069B40EA0E40CCF8F6
:1013700014300B69EFF3108272B6D3E8CFCF012798
:10138000BCF1000FF9D1C3E84C7FBCF1000FF4D1E0
:10139000BFF35F8F8B886353A1F804E00B69C3E848
:1013A0008F6F82F310880122CB68097803F501530F
:1013B0008A405A60F0BD0023C0E88F3F87F3108851
:1013C0004FF0FF30F0BD00BF03464089B0EB214F26
:1013D00037DD58690A1402EB420210B500EBC20077
:1013E0001C69EFF3108C72B6D4E8CFEF0122BEF186
:1013F000000FF9D1C4E84E2FBEF1000FF4D1BFF3B6
:101400005F8F428889B292B28A4207D000221B695C
:10141000C3E88F2F8CF31088002010BD42F40042E7
:1014200042800121002218699971C0E88F2F8CF346
:1014300010881C78DA68084602F50153A14059600B
:1014400010BD0020704700BF2DE9F04182B0064674
:1014500000F0ECF84FF47A7304464FF0FF306FF071
:101460000042E6FB0341A04272EB01033ABF04468F
:1014700015460D46A61F45F1FF37B44275EB07032D
:101480003CBF0026374600F0D1F8301A67EB010167
:10149000012871F1000106DA2046294602B0BDE8B4
:1014A000F04100F0CDB800F0C1F8864267EB0101D1
:1014B00000290ADB0021174B3246009316483B46B1
:1014C0000191FFF71DFF0130E6D04FF0000C134AE9
:1014D0001349536A9F4204D8906AB042DCD29F42BB
:1014E000DAD10B68EFF3108072B6D3E8CF8F5FF0DC
:1014F000010EB8F1000FF8D1C3E848EFB8F1000FC2
:10150000F3D1BFF35F8F0B68C3E88FCF80F31088F0
:1015100020BFDEE7D10E0010240D002000000B409C
:10152000682500202DE9F04306460D4683B0EFF311
:101530000584E4B23CB12D4B5A6AAA421CD2002069
:1015400003B0BDE8F0832A4FD7F80C9097F80080DD
:10155000484600F063F808F1040859F828301B1ACF
:10156000301A65EB0101984271F1000110DB20BFD8
:101570001E4B5A6AAA42E2D314BF012400249B6A7C
:10158000B34234BF204644F0010003B0BDE8F0830D
:1015900000F04CF8864265EB0101002914DB154B85
:1015A0003846CDE9003432462B46FFF7A9FE011E2E
:1015B0000ADD0E4B5A6AAA4216D39B6AB34211D374
:1015C0000B48FFF701FFB6E7084B5C6AAC42B6D3A5
:1015D000641B18BF01249B6AB34234BF204644F009
:1015E0000100ADE7AA42EBD120BFE9E700000B40C4
:1015F000240D0020D10E001010B4054B054C064AF6
:10160000A04214BF1846581C5DF8044BFFF732BBCC
:10161000D81C002000800B40743000100346416A43
:101620000A46986A596A8A42FAD17047034B596A46
:101630000A46986A596A9142FAD1704700000B40F5
:10164000074A536A9942FCD8994207D1044B02E0F9
:101650005A6A914202D19A6A9042F9D8704700BF03
:1016600000000B4000EB400C4FEA8C0C0CF1804C5E
:101670000CF5803CF0B51646DCF80420051FB2F5E9
:10168000803F38BF4FF48032EDB238BFCCF8042031
:10169000012D2AD94FF40067254C0CF540521760F4
:1016A00054F82020B2B9DCF80020012D82EA46125D
:1016B00002F0E0020CF5805632602AD94FF4006146
:1016C00044F820304FF480330CF500521160CCF810
:1016D0000430F0BD6769B7FBF2FE0EF1010E0EEBB0
:1016E0004E0EBEF1030EFCD2DDE70129D2D1032458
:1016F0000CF540521460DCF80820D207FBD5DCF86A
:1017000000200B4C82EA461202F0E0020CF58056F3
:1017100032600122DCF800504D4005F003053560D1
:1017200002FA01F1DCF808200A42FBD0C6E700BF4C
:10173000E01C0020014B53F820007047E01C002003
:10174000584B2DE9F0431C6C1746B4F5803F38BF69
:101750004FF4803283B038BF1A64032280460E46AD
:10176000514B504DDA636C6CE307FCD5EB6B4F4A81
:1017700083F0200303F0E003D363EB6B494D83F068
:10178000010303F00303D3636C6CA407FCD54FF48F
:1017900000624FF48039464B464CDA63464B424672
:1017A000636101213346C5F840904448009700F03A
:1017B00057F94FF400616B6B07FB06F64B4538BFDA
:1017C000C5F83490384B2269B8FBF6F619633AB184
:1017D0006369B3FBF2F3013303EB4303033BFDD235
:1017E0003049324A0B6B03F0E00313630B6B83F059
:1017F000020303F0030313638B6B5807FCD54FF40C
:1018000000654FF480332A4A15632D4A4B632261E9
:101810000A6C9A424FF0030238BF0B64224B2149F5
:10182000DA634B6CDA07FCD5CB6B204A03F0E0039C
:10183000D363CB6B1B4983F0010303F00303D36332
:101840004B6C9B07FCD54FF480334FF40065184A6E
:101850006661D5630B64CA6C9A4238BFCB644FF49F
:101860000061114BA26999643AB16369B3FBF2F369
:10187000013303EB4303033BFDD24FF400604FF40D
:101880008031084A094D936C83F0400303F0E00374
:10189000AB64074B084DA5619864D16403B0BDE803
:1018A000F08300BF00000140003001400010014003
:1018B00000200140E01C0020006CDC02000005401C
:1018C000001BB7002DE9F04F4FF4A078994685B082
:1018D000CDE902125F4CDFF884A154450AD908F122
:1018E000FF38A4F53B54B8F10F0FA4F12004F4D154
:1018F000002069E0072304F53722019403FB03F479
:1019000002F5D872B2FBF4FE70454FF0010C4FF0B7
:1019100002074FF003064FF004054FF005013FD0DA
:10192000B3F1010E00F094800EFB03F4B2FBF4FB64
:1019300058454CD019B301FB03F4B2FBF4FB5845F6
:101940004FD0E5B105FB03F4B2FBF4FB584553D08F
:10195000AEB106FB03F4B2FBF4FB584557D077B1A8
:1019600007FB03F4B2FBF4FB58455BD0BCF1000F5E
:1019700005D00CFB03F4B2FBF4FB83455DD073464A
:1019800003FB03F4B2FBF4FE704501F1FF3105F1F6
:10199000FF3506F1FF3607F1FF370CF1FF3CBFD1F1
:1019A00004FB1024002CBBD19E464A46DDF808B04B
:1019B000DDF80C900120284901FB08F1CBF800105C
:1019C000C9F80030C2F800E005B0BDE8F08F04FBB4
:1019D0001024002CAED14A46DDF808B0DDF80C909A
:1019E000E8E704FB1024002CABD14A468E46DDF814
:1019F00008B0DDF80C90DDE704FB1024002CA7D123
:101A00004A46AE46DDF808B0DDF80C90D2E704FB9C
:101A10001024002CA3D14A46B646DDF808B0DDF804
:101A20000C90C7E704FB1024002C9FD14A46BE4609
:101A3000DDF808B0DDF80C90BCE704FB1024002CA6
:101A40009DD14A46E646DDF808B0DDF80C90B1E7D6
:101A5000019C44E750262F00001BB70050F80C00F3
:101A600070B4039D04682D0345EA03451B4B002C0D
:101A7000B3FBF1F3B2FBF3F61FDB194A194B9042AB
:101A800014BF4FF480424FF40042174C1A6003F524
:101A900080531A60A36832EA0303FBD1212200F5C8
:101AA00040530433016086601A600268002AFCDA41
:101AB0000822C5601A6070BC7047036803F03F03DA
:101AC0008B42DAD18368C3F30B03B342D5D1C36829
:101AD00003F4EE23AB42D0D1EDE700BF001BB7000B
:101AE0000080054000200240000002400A4B0B49E4
:101AF0000B4A5960D3681904FCD40A4BD26843EAF4
:101B000000130949534009481940054AC160D36888
:101B10001B04FCD4704700BF002010400020FE5A78
:101B2000000010400000FE5AF001FE5A0010104064
:101B3000014B024A5A607047002010400001FE5AD3
:101B4000012300EB4000800000F1804000F584108C
:101B500041600360704700BF0023DB8A002242E837
:101B600000F2520201D4102118470421184700BF87
:101B7000034AD2F82838002BFBD0BFF35F8F7047A1
:101B800000000E400021044B044ABFF35F8F43F86E
:101B9000041B9342F9D170470C080E402C080E40EC
:101BA00010B44FF48D704FF42A64064A064B07496F
:101BB0001460D06019605368002BFCDA5DF8044BA8
:101BC000704700BF0080044000A0044000B0FA004D
:101BD000704700BF08B50148FFF718F898300010AB
:101BE00038B5054C054DAC4204D254F8043B984737
:101BF000AC42FAD338BD00BFE82F001028300010E7
:101C000038B5054C054DAC4204D254F8043B984716
:101C1000AC42FAD338BD00BF143000102830001099
:101C200010B40748074C084B084A094904601A6079
:101C30008B6832EA0303FBD15DF8044B704700BFA9
:101C4000002002407F3BEFEF00300240F6FFF3033D
:101C500000000240044BDB6CB3F5004F03D14FF49E
:101C60008022024BDA6470470000115000201150AE
:101C70004FF0E022044BD2F8881D0B43C2F8883D98
:101C800010EE3004704700BF030330006FF0604176
:101C9000044B054A19609368DB4333F06043FAD183
:101CA000704700BF003002400000024010B545F20E
:101CB0005320FFF751FFBDE81040034604201847AA
:101CC00010B545F25320FFF747FFBDE8104003462B
:101CD00001201847FFF74EB810B5054B054C4FF4DF
:101CE00088721846A16800F069FFA06010BD00BFAF
:101CF0000000002000ED00E0002370B52B4C82B006
:101D0000C4F88430FFF74CFF0122294BDA63636C7F
:101D1000012BFCD10321264A244B11639C6B012C1F
:101D2000FCD10226052521460523224A2248009699
:101D3000FFF796FE21462B46204A21480095FFF7E3
:101D40008FFE0022042031461E4BFFF78BFC2146FC
:101D5000284600221C4BFFF785FC00220820114674
:101D60001A4BFFF77FFC002209201146174BFFF7A3
:101D700079FC002206201146134BFFF773FC00226A
:101D8000114B07201146FFF76DFC0420FFF7D2FC32
:101D900000240F4BA3FB0035AD0CE0B22946013403
:101DA000FFF7CEFE062CF8D102B070BD0000014056
:101DB00000300140002F685900000540008C864724
:101DC00000800540001BB70080D1F008006CDC02E9
:101DD00083DE1B4338B50446094801F0F9F8204674
:101DE00000F04AFB0546064801F0E6F82DB1054B28
:101DF0002C449C4201D8284638BD0348FEF706FF14
:101E00009812002000000820A430001000B970478C
:101E100000F032B910B5094B84B01C684CB10346D0
:101E200000914FF0FF3203A90548A047012004B0FC
:101E300010BD00F063F9204604B010BD281D00203D
:101E40000D1E001000BEFDE7074A0346106838B1BA
:101E5000064903448B428CBF4FF0FF30136070473C
:101E6000034908461160F3E71C1D0020000008200C
:101E70007425002090B110B50446FFF7D7FB084A3F
:101E8000D2E90032C01A61EB02010023054A01F0D9
:101E900097F8C4E90001A260002010BD002070473F
:101EA0002819002040420F0008B5FFF7CBFF00BF04
:101EB00038B5064C064DFFF793FEAC4204D254F8F9
:101EC000043B9847AC42FAD338BD00BF283000101D
:101ED0002C30001003680846114618472DE9F041E0
:101EE0001546427D07468846002A46D0002D1DDD56
:101EF0000B780A2B23D0012D4FF0000C18D046464A
:101F0000012416F8012F21460A2A04F1010422D0E7
:101F1000A542F6D165450BDC08EB050313F8013C3F
:101F2000A3F10D03B3FA83F35B093B75BDE8F081C0
:101F30003B68A5EB0C0108EB0C009847ECE7037D30
:101F4000002BD8D1036802210F489847012DE3D018
:101F50004FF0010CD3E716F8013C0D2BD8D08C457F
:101F600008EB0C00A1EB0C0101DA3B689847022159
:101F700005483B689847A446CAE7294640463B685F
:101F8000BDE8F041184700BFC43100102DE9F0470B
:101F900082B00D4691461C460646FFF747FB4FF0C0
:101FA000FF3C6FF000472E4A821841F10003944530
:101FB00077EB03013CBF62463B462A4801F010F82C
:101FC0006B1C804640D00CB3274F284B1C68B4B123
:101FD000B9F1000F1CD1DFF89C9001E0246974B1C5
:101FE0002368002BFAD0D9F800300BB19C42F5D110
:101FF00020462A463146B8472469002CF0D1B8F172
:10200000000F26D1284602B0BDE8F087184FDCE764
:102010004FF00A0ADFF85C9002E02469002CEED051
:102020002368002BF9D0D9F800300BB1A342F4D1CA
:102030002A4631462046B847012220460DF10701C5
:102040008DF807A0B847E8E7304600F02DFE0546BA
:10205000B9E7044800F0B0FF284602B0BDE8F087B9
:1020600040420F00A0120020DD1E0010081D0020BD
:10207000D51E0010101D0020F0B583B006468DF867
:102080000700FFF7D3FA4FF0FF356FF00044174A0F
:10209000821841F10003954274EB03013CBF2346D3
:1020A0002A46134800F09CFF124B07461C689CB15F
:1020B000114D01E024697CB12368002BFAD02B6814
:1020C0000BB19C42F6D1204601220DF10701FFF72A
:1020D00005FF2469002CEFD117B9304603B0F0BDDD
:1020E000034800F069FF304603B0F0BD40420F00E6
:1020F000A0120020081D0020101D002038B5044645
:1021000000F0D2FD012305461A4620462946FFF776
:102110003DFF084B1C682CB163682BB198472469BC
:10212000002CF9D1284638BD2469002CF4D128466A
:1021300038BD00BF081D002010B5044604F12F442F
:1021400004F56004084B240D82B0A40000932246DD
:10215000E31C0648FEF7BAFD8442CCBF4FF0FF30C7
:10216000001B02B010BD00BF00310010DC1C0020BD
:102170002DE9F0470F460546FEF760FD012297F86E
:1021800004A097F905C005F12F4EDFF8D4800EF5B5
:10219000600E02FA0AF24FEA1E5EBCF1000F58F818
:1021A0002E6002F1FF32CAF1200435DBA44503DCC6
:1021B00002FA0CF3334206D04FF0FF34FEF750FD25
:1021C0002046BDE8F087D5F86831F979002B41D178
:1021D0004B0731D4644602FA0CF2164233D1396807
:1021E000BAF1000F10D0674601EB4A0A31F8023B02
:1021F00007F11209B3F5005F38BF6344514507F199
:10220000010745F82930F1D1324348F82E20FEF776
:1022100027FD2046BDE8F087002C02DA13E0013CE0
:1022200011D302FA04F33342A446F8D1D5F8681169
:10223000FB7991B95B07CED56FF00A04FEF710FD6C
:102240002046BDE8F0876FF00804FEF709FD204640
:10225000BDE8F087C907BDD5EEE7D907BBD5EBE7E9
:10226000C01C00202DE9F041D0F868419DF81860AD
:10227000121B1F2A38D84EF29F044EF280054FF4ED
:10228000003801EB410C002E18BF254600EBCC04B2
:1022900004F5435400EBCC0C052BDCF8DC704FEA62
:1022A000410EDCF8CC60C4F80C800CD95401053B1D
:1022B00044F0A0540532052BCCF8DC4002F01F029C
:1022C000CCF8D850F2D8714400EBC1010020520183
:1022D00042EA8363C1F8DC30C1F8D850C1F8DC7041
:1022E000C1F8CC60BDE8F0816FF00400FAE700BFF0
:1022F000F0B5012504688D4024EA05040460B3B3F9
:10230000D3E901561F68DC6801EB410300EBC3030E
:10231000C3F8C8704FEA410CC3F8D060C3F8CC5082
:10232000C3F8DC400CEB01034FF0013500EBC30CAC
:102330004FF0004600EBC30E01230EF5865E0C1D28
:1023400001F108078D40CEF8106003FA04F4CEF8CE
:10235000106002F01F028560BB4000F50050046071
:102360000EF1100E03600020CCF8D820F0BD4FF421
:1023700080374FF440264FF4F83501EB410400EB71
:10238000C404C4F8C8704FEA410CC4F8D060C4F863
:10239000CC50C4F8DC30C5E703BD00BF10B504461F
:1023A000FFF72EFC2346BDE810401847F0B5054660
:1023B00087B0192017460E46FEF71EFD0021044681
:1023C0001920FEF703FD0021CDE9046503970026DF
:1023D000002701224FF050438C46CDE9006702925E
:1023E000A9B11A6D9507FCD5596540BF1A6DD00784
:1023F00003D420BF1A6DD207FBD59A6D8A420BD049
:102400004FF0000C0DEB8C021168E9E79A6D1A6D24
:10241000D607FBD440BFE4E70CF1010CBCF1060F7A
:10242000F0D12146192007B0BDE8F040FEF7CEBC40
:102430000C4B0D4A93420ED39C4603F2F4710B4AA7
:102440009268CCF8F4070A48CCF8F837CCF8FC07C7
:102450000848FFF7ABBF4FF0FF3340F2F3719C46E3
:10246000EDE700BF000808204001082000ED00E073
:102470009D23001099230010024B0146186800F0BC
:1024800003B800BF5011002001F10B03162B2DE9FA
:10249000F04F074683B023D8102900F2AF8000F038
:1024A000AFFA102518230220BA4E33445C68A3F11A
:1024B0000802944200F056816368384623F0030313
:1024C000D4E902122344CA6091605A68083442F089
:1024D00001025A6000F09AFA204603B0BDE8F08F7E
:1024E000002B23F00705C0F28980A94200F2868004
:1024F00000F086FAB5F5FC7FC0F07B826B0A00F035
:102500008480042B00F26281AB0903F1390003F1EE
:10251000380EC3009F4E3344A3F1080C5C68A445F9
:1025200007D10DE0002AE16880F216818C450C4647
:1025300006D0636823F003035A1B0F2AF2DD7046AE
:10254000DFF868823469444500F0F280636823F064
:10255000030CACEB05030F2B00F37481002BC6E9D1
:10256000048880F26381BCF5007FD6F804E080F037
:10257000FF804FEADC0301224FEA5C1C013302FAC0
:102580000CF256F833104EEA020E06EBC302083A7C
:10259000C6F804E0C4E9021246F83340CC60831068
:1025A0004FF0010C0CFA03FCF44534D81CEA0E0F72
:1025B00007D120F003004FEA4C0C04301CEA0E0F48
:1025C000F9D006EBC00A8146D646DEF80C300BE0A7
:1025D0005A681C46DB6822F00302511B0F2900F3E6
:1025E0000181002980F215819E45F1D109F101098F
:1025F0000EF1080E19F0030FE7D158E10C233B60F0
:102600000024204603B0BDE8F08F4FF40073402053
:102610004FF03F0E7EE7B468636823F00309A945D5
:10262000A9EB050302D30F2B00F385805A4B08203A
:102630001B6803F1100804EB0903009300F0B0FAE3
:10264000564AA84483461368013305D008F1FF3881
:102650004342804403EA08084146384600F084FAC1
:10266000B0F1FF3F82464D4A00F0078104EB0903B9
:10267000834200F200814A4B0BF1FF3C1868404452
:10268000186000F064811168013100F06C8104EB86
:102690000902AAEB020202441A601AF00702CDE90D
:1026A000002300F02781C2F10802384692445A44C0
:1026B000D04408EA0C01521A02EA0C0B594600F009
:1026C00053FA421C019B00F06A81A0EB0A0000EB68
:1026D0000B08186848F00102B442C6F808A0584434
:1026E000CAF80420186017D0B9F10F0F40F23E81EC
:1026F0006168A9F10C024FF0050C22F0070201F00D
:10270000010111430F2A616004EB0201C1E901CC10
:1027100000F24D81DAF80420224B544619688142B8
:1027200038BF1860204B1968814238BF1860A6E096
:10273000D6F804E033E7621945F0010543F00103E0
:10274000083444F8045C3846B260536000F05EF927
:10275000204603B0BDE8F08FA26823443846D1601C
:102760008A60B2E6DC68A3427FF4A6AE0230E7E6F8
:10277000BCF5206F4FEA5C2276D3142A00F2CD809C
:1027800002F15C035B32DB00F118F358083999421F
:1027900011D1A5E0480D0020641B00203C0D002055
:1027A000341B00205C1B0020601B0020500D00200B
:1027B0009B68994204D05A6822F003026245F7D818
:1027C000D968C4E902318C60DC60E8E6142B63D977
:1027D000542B00F2AB802B0B03F16F0003F16E0E54
:1027E000C30097E6D4F808C03846671945F00105DC
:1027F0006560CCF80C30C3F808C041F00103C6E9AD
:102800000477C7E902887B60A150083400F0FEF825
:10281000F7E622443846516841F00101516054F80E
:10282000082FD3609A6000F0F1F8EAE6A444384635
:102830000834DCF8043043F00103CCF8043000F035
:10284000E5F8DEE6621943F0010145F0010538467E
:102850006560C6E90422C2E90288516044F80C3080
:10286000083400F0D3F8CCE64FEA9C1202F13903A9
:102870003832DB0088E7B44262D0B468626822F084
:102880000308A845A8EB050302D30F2B3FF753AF6E
:10289000384600F0BBF8B3E603F15C0003F15B0ED1
:1028A000C30037E65AF80839534540F0A08010F0CD
:1028B000030F00F1FF30F5D1736823EA0C03736056
:1028C0004FEA4C0C0CF1FF329A4204D3A3E64FEAD4
:1028D0004C0C09F104091CEA030FF8D0484670E6D5
:1028E00092104FF0010C0CFA02F24EEA020EC6F8FA
:1028F00004E066E70AEB0802384602EA0C02ABEB9A
:10290000020B0BEA0C0B594600F02EF9431C019BFD
:102910007FF4DBAEDDF800B0DBE6542A2AD84FEABC
:102920001C3202F16F036E32DB002DE7B3F5AA7F94
:102930002AD8EB0B03F1780003F1770EC300E9E529
:102940002E4B0BF1FF3C1868404418609BE61AEAD6
:102950000C0F7FF498AEC844D6F808A048F00102E6
:10296000CAF80420D8E6C2F800A096E60123CAF807
:1029700004308DE7B2F5AA7F24D84FEADC3202F1A9
:1029800078037732DB00FFE640F25452934224D8BA
:10299000AB0C03F17D0003F17C0EC300BAE5009A95
:1029A0004FF0000B083A9044A8EB0A0891E638462D
:1029B00004F10801009300F001FA009BD6F808A08A
:1029C0001868A7E640F254539A420CD84FEA9C424A
:1029D00002F17D037C32DB00D6E64FF47E737F206C
:1029E0004FF07E0E96E54FF47E737E22CCE6736840
:1029F00066E7E80805F1080356E500BF341B002030
:102A0000014800F0C9B800BF301B0020014800F0A9
:102A1000C5B800BF301B0020024B00221B68C3E971
:102A200026027047501100200C4B0D4819680D4AC2
:102A3000D1F8983010B403FB00F0D1F89C4002FBB1
:102A400004005DF8044BA3FB0232013340EB0200AB
:102A5000C1E9263020F00040704700BF501100202F
:102A60002DF451582D7F954C830730B546D08418EE
:102A7000844604E003F8011B9D0704D09C46A4454E
:102A80006346F7D130BD013A0244A2EB0C02032A9F
:102A900029D9CCB20F2A04EB042404EB04442FD927
:102AA000A2F1100C03F110052CF00F0CAC44C3E99B
:102AB0000044C3E9024410336345F8D112F00C0F0F
:102AC00002F00F0E18D02EF0030CAEF104051A46DA
:102AD0009C4442F8044B6245FBD125F003040433C7
:102AE0000EF003022344002ACCD0C9B21A4403F8E2
:102AF000011B9342FBD130BD7246F4E70346C6E7A3
:102B00009646E0E770B50C4B84B04FF0FF360446B4
:102B1000002218686946CDE9006600F00FF8002829
:102B200006DBDDE900010CB1C4E9000104B070BDB1
:102B300030463146F7E700BF5011002070B50C4613
:102B40000346084D0026204611461C462E60FFF71E
:102B500091F9431C00D070BD2B68002BFBD0236083
:102B600070BD00BF0C1D002038B50022064D044684
:102B700008462A60FFF768F9431C00D038BD2B686F
:102B8000002BFBD0236038BD0C1D0020014B1868C2
:102B9000704700BF50110020704700BF704700BF52
:102BA000082802D14FF48050704708B5FFF7EEFFB8
:102BB000162203464FF0FF301A6008BD844641EAF2
:102BC000000313F0030349D1403A23D30B68036099
:102BD0004B6843608B688360CB68C3600B6903619B
:102BE0004B6943618B698361CB69C3610B6A036283
:102BF0004B6A43628B6A8362CB6AC3620B6B03636B
:102C00004B6B43638B6B8363CB6BC363403040314F
:102C1000403ADBD230320BD30B6803604B68436021
:102C20008B688360CB68C36010301031103AF3D2E8
:102C30000C3205D351F8043B40F8043B043AF9D276
:102C4000043208D0D2071CBF11F8013B00F8013B49
:102C500001D30B8803806046704700BF082A13D356
:102C60008B07B1D010F00303AED0C3F10403D21A26
:102C7000DB071CBF11F8013B00F8013BA4D331F87E
:102C8000023B20F8023B9FE7043AD9D3013A11F8FE
:102C9000013B00F8013BF9D20B7803704B7843708D
:102CA0008B7883706046704720F0030110F00300BA
:102CB000C0F1000051F8043B00F1040C4FEACC0CC9
:102CC0006FF000021CBF22FA0CF213434FF0010C0C
:102CD0004CEA0C2C4CEA0C4CA3EB0C0222EA03024B
:102CE00012EACC1204BF51F8043B0430F4D0C2F114
:102CF000000102EA0102B2FA82F2C2F11F0200EB05
:102D0000D20070472DE9F8430646DFF8AC80082072
:102D10008946FFF745FF05463046FFF771FED8F8B4
:102D200008305F6827F00307A7F11104A4EB09043A
:102D30002C44B4FBF5F4013C05FB04F4A54208DC8B
:102D400000213046FFF710FFD8F808303B44984286
:102D500005D03046FFF75AFE0020BDE8F8836142F7
:102D60003046FFF701FF01300FD03F1B104AD8F863
:102D70000830304647F001075F6013681B1B136083
:102D8000FFF744FE0120BDE8F88300213046FFF73D
:102D9000EBFED8F80820831A0F2BDADD43F001038D
:102DA00003495360034B1B68C01A0860D1E700BF9A
:102DB000341B00203C0D0020480D002000295AD073
:102DC000F8B50C460746FFF71BFE734D54F804CCCC
:102DD000A4F10802A8682CF001030CF0010ED11830
:102DE0004E68884226F003067CD088194E60406801
:102DF00000F00100BEF1000F2ED154F8084C05F18F
:102E0000080C121B23449468644560D0D2F80CE08F
:102E1000C4F80CE0CEF8084000287DD043F0010053
:102E200050600B60B3F5007F2ED25809D9080123FA
:102E3000834068680131034355F831006B6005EB4E
:102E4000C103083BC2E9020345F83120C26038469D
:102E5000BDE8F840FFF7DABD70B9334405F1080C5E
:102E6000886843F0010460456ED0C968C16088601D
:102E70005460D350D6E770474CF00101B3F5007FA2
:102E800044F8041CD350D0D3B3F5206F4FEA53213C
:102E900044D2990901F1390001F13804C1006818E0
:102EA00069580838884203D155E08968884204D0BF
:102EB0004C6824F003049C42F7D8C868C2E90210A9
:102EC00082603846CA60BDE8F840FFF79FBD80BB0E
:102ED0001E44D1E90213CB60996046F001035360B0
:102EE0009651B4E71E44BEF1000F07D154F8083CD8
:102EF000D21A1E44D2E90213CB60996046F0010356
:102F00005360264BAA601B68B342A0D8244B3846B6
:102F10001968FFF7F7FE9AE73344A1E714290DD9A2
:102F200054291FD8190B01F16F0001F16E04C10083
:102F3000B5E743F0010050600B6088E701F15C00E9
:102F400001F15B04C100AAE7C5E90422C2E902CC91
:102F50005460D3507BE7A4100123A3406C68234343
:102F60006B60ABE7B1F5AA7F06D8D90B01F1780009
:102F700001F17704C10092E740F25450814206D833
:102F8000990C01F17D0001F17C04C10087E74FF449
:102F90007E717E2483E700BF480D0020400D002095
:102FA000641B0020F8B500BF5FF800F0110400209A
:102FB0005FF800F03D0100205FF800F07908002084
:102FC0005FF800F0B50800205FF800F0DD01002098
:102FD0005FF800F0250700205FF800F0C50400202E
:102FE0005FF800F011080020AD1C0010211C00103B
:102FF000551C0010F91C00108D1C0010851B0010C2
:10300000D51C0010711B0010850E0010D91C00107B
:1030100001120010D11B0010C11C0010711C001007
:0C302000650D00108D0D0010190200104D
:10302C0053797374656D20636C6F636B206F6620CE
:10303C002575206B487A2063616E6E6F7420626513
:10304C002065786163746C79206163686965766565
:10305C00640000000A2A2A2A2050414E4943202AA3
:10306C002A2A0A000A0000004861726477617265BE
:10307C0020616C61726D20256420616C72656164E5
:10308C007920636C61696D6564000000486172644D
:10309C0020617373657274004F7574206F66206DB8
:1030AC00656D6F727900000052656C656173650027
:1030BC00626F6F74325F77323571303830000000D8
:1030CC00302E3100322E312E310000007069636FCA
:1030DC00320000004672616D657468726F776572BC
:1030EC005F44656E697365004A756E202037203227
:1030FC00303235004E6F2050494F20737461746527
:10310C00206D616368696E657320617265206176FC
:10311C0061696C61626C65002C3100100BFF01025F
:10312C00A08027A01425942500C0162096240040CA
:10313C0016240040460000009669699669969669C7
:10314C00699696699669699669969669966969967B
:10315C00966969966996966906005250D3F0754245
:10316C00B430001006005250E182887FBC30001051
:10317C00060052503ABCA911CC3000100600525037
:10318C00ABB36053D030001006005250BBFF3CB6BE
:10319C00D830001006005250861C0302E03000109C
:1031AC00060052505422A29DF430001005005250DB
:0C31BC00DE65F468DC4400100D0A000021
:0831C800F4F9FF7F0100000093
:1031D00064310010703100107C3100108831001013
:1031E00094310010A0310010AC310010B831001043
:1031F000084B1B681A6BD2070AD51C21012242EC2E
:10320000401005481A634FF00003027043EC401071
:10321000704700BF4425002072250020012170B5B1
:103220004FF00045224A234B10681A6800EB400318
:1032300002EBC303041D03F5865301FA04F402F5FF
:10324000005600F1100C1D6101FA0CF11D61346093
:1032500053680B42FCD1012140F28F1300F10806A4
:1032600002EB800401FA00F0B140C6432361136809
:10327000DFF844E003430EF5C865136053680B4262
:10328000FCD1206A03094FEA003C03F0F0030CF480
:10329000704C43EA0C0300F0F00043EA00132EF8F0
:1032A000023F7545EAD113681E40166070BD00BF2D
:1032B0006C250020442500202A1D002042F0080C27
:1032C000002B08BF624670B50378884C5D0005F09E
:1032D000040545EA0C0534F815609D0005F0040569
:1032E0002A4334F8122042EA86220A605A0802F081
:1032F000040242EA0C0234F812E0DA0802F0040296
:1033000042EA0C0234F812609A0802F0040242EA1F
:103310000C0234F812505A0902F0040242EA0C027C
:1033200045EA862534F812601A0903F0040343EADB
:103330000C0334F8133002F0040243EA8E2342EA0D
:103340000C024B6034F812308D6043EA8623CB6068
:1033500043785A0002F0040242EA0C0234F8125098
:103360009A0002F0040242EA0C0234F8122042EA07
:1033700085220A615A0802F0040242EA0C0234F87B
:1033800012E0DA0802F0040242EA0C0234F8126099
:103390009A0802F0040242EA0C0234F812505A0968
:1033A00002F0040242EA0C0245EA862534F8126073
:1033B0001A0903F0040343EA0C0334F8133002F053
:1033C000040242EA0C0243EA8E234B6134F81230C5
:1033D0008D6143EA8623CB6183785A0002F00402B0
:1033E00042EA0C0234F812509A0002F0040242EA57
:1033F0000C0234F8122042EA85220A625A0802F0CE
:10340000040242EA0C0234F8125003F0040242EAC9
:103410000C0234F8122042EA85224A62DA0802F0ED
:10342000040242EA0C0234F812509A0802F0040234
:1034300042EA0C0234F8122042EA85228A625A09D2
:103440001B0902F0040203F0040342EA0C0243EAFF
:103450000C0334F8122034F8133043EA8223CB6291
:10346000C3785A0002F0040242EA0C0234F8120057
:103470009A0002F0040242EA0C0234F8122042EAF6
:1034800080220A635A0802F0040242EA0C0234F86D
:103490001200DA0802F0040242EA0C0234F8125078
:1034A0009A0802F0040242EA0C0234F8122042EABE
:1034B00085228A635A0902F0040242EA0C0234F8B7
:1034C00012601A0902F0040203F0040343EA0C0339
:1034D00042EA0C0234F8135034F8123045EA8020E6
:1034E00043EA86234863CB6370BD00BF0406002017
:1034F0002DE9F0474CF6CC4E294C01F1080C033075
:1035000008324831437C477A46781B04457E43EABB
:103510000723334343EA056383EAD31505F0AA156D
:103520006B4083EAC51383EA933505EA0E056B40C9
:1035300083EA8533C3F3034803F00F07C3F303168D
:10354000C3F3035534F818A034F8155034F8178035
:1035500034F81670C3F30369C3F3032647EA8527DB
:10356000C3F303351B0F34F8199034F8166034F8A0
:10357000155034F8133048EA8A284CE902870CF1D8
:10358000080C46EA892645EA8323614542E902633D
:1035900000F1010002F10802B4D1BDE8F08700BFDC
:1035A000040600202DE9F04F0124032B1E46C8BF5E
:1035B00000239046D8BF04FA03F304FA02F24FF056
:1035C000020402F1FF32454FD2B283B0427082F062
:1035D000B502D8BF1B01BA5CD8BFDBB283705340C1
:1035E000FB5CB8F1000F0470C37074DD84464FF0CB
:1035F000000ACDE900083A4A04314FEAC80500EB59
:10360000C80B31F9044C31F9020C5FFA84F817F851
:103610000830C4F307246340FB5C5FFA80FEFB5C68
:10362000C0F307208EEA0303FB5C8CF8064043409E
:1036300017F80390E308D35C04F0070423414FEA32
:10364000D804145D8CF8058008F0070844FA08F4E3
:103650006340C408145D8CF8090000F0070044FAC8
:1036600000F04FEADE04145D8CF808E00EF0070E5F
:1036700044FA0EF483F04B03604003F0010380F042
:103680004B00DB0000F0010043EAC01343F01103DC
:1036900083EA09098CF80A3017F809308CF804A07D
:1036A0008CF807A08CF80B300CF1080CE34501F105
:1036B0000401A6D1DDE90008C8F1040204350021A7
:1036C0002844D20000F060FBB6EB080000D5C03003
:1036D00003B0BDE8F08F4FEAC805EDE724060020EF
:1036E000443100109C026302E402E20271011E01F7
:1036F0008E013C01CC0239019C01C6028E0271028E
:103700006301C30200D9B56C6DB4D801DA036FB69A
:10371000B76E02DBB36A06DFDE076BB269B0DC05A9
:1037200004DDB16861B8D40D0CD5B960BB620ED7A9
:10373000D60F63BAD20B67BEBF660AD308D1BD6489
:1037400065BCD009C21B77AEAF761AC318C1AD7481
:1037500075ACC01971A8C41D1CC5A970AB721EC779
:10376000C61F73AAA37A16CFCE177BA279A0CC1559
:1037700014CDA17810C9A57C7DA4C811CA137FA659
:10378000A77E12CB835A36EFEE375B825980EC3539
:1037900034ED815830E9855C5D84E831EA335F8639
:1037A000875E32EBE23B578E8F563AE338E18D5419
:1037B000558CE0395188E43D3CE589508B523EE719
:1037C000E63F538A4198F42D2CF599409B422EF701
:1037D000F62F439AF22B479E9F462AF328F19D44E9
:1037E000459CF02920F9954C4D94F821FA234F96E9
:1037F000974E22FB934A26FFFE274B924990FC25C9
:1038000024FD91484FF0504310B5026893F90040F1
:10381000EFF3108372B6D2E8CFCF0121BCF1000FD5
:10382000F9D1C2E84C1FBCF1000FF4D1BFF35F8F98
:1038300090F90420002A1CDB00210268C2E88F1FD7
:1038400083F3108820BF0268EFF3108372B6D2E8CA
:10385000CFEF5FF0010CBEF1000FF8D1C2E84ECF00
:10386000BEF1000FF3D1BFF35F8F90F90420002A5F
:10387000E3DA002201680471C1E88F2F83F3108816
:1038800010BD00BF4FF050412DE9F0410027044624
:1038900016461D46D1F8008008E0C1E88F7F8CF302
:1038A00010883046294600F073FAE8B92168EFF332
:1038B000108C72B6D1E8CF2F0123002AFAD1C1E8CB
:1038C000423F002AF6D1BFF35F8F94F9043021689C
:1038D000002BE2DA002384F80480C1E88F3F8CF3E8
:1038E00010880120BDE8F0810020BDE8F08100BF14
:1038F00030B50468EFF3108C72B6D4E8CFEF012531
:10390000BEF1000FF9D1C4E84E5FBEF1000FF4D153
:10391000BFF35F8F90F904400568002C10DB002195
:10392000C5E88F1F8CF310884FF0504595F9005073
:10393000A54201D1084630BDBDE83040FFF7A2BF27
:103940004FF05042126800230271C5E88F3F8CF39C
:103950001088012030BD00BF0368EFF3108272B6FB
:10396000D3E8CFCF0121BCF1000FF9D1C3E84C1F40
:10397000BCF1000FF4D1BFF35F8F4FF0FF0C0023B9
:10398000016880F804C0C1E88F3F82F3108840BF0F
:10399000704700BF7BB972B90029BEBF00204FF04D
:1039A000004106E008BF00281CBF6FF000414FF047
:1039B000FF3000F0E5B9ADF1080C6DE904CE002947
:1039C00009DB002B1ADB00F035F8DDF804E0DDE957
:1039D000022304B07047404261EB4101002B1BDB26
:1039E00000F028F8DDF804E0DDE9022304B04042ED
:1039F00061EB4101524263EB43037047524263EB78
:103A0000430300F017F8DDF804E0DDE9022304B019
:103A1000404261EB41017047524263EB430300F0C7
:103A200009F8DDF804E0DDE9022304B0524263EB5B
:103A3000430370472DE9F04F8C46099E04460F461C
:103A4000002B48D18A4215465ED9B2FA82F33BB1C7
:103A5000C3F120029F409D409C4020FA02F2174390
:103A60004FEA154E1FFA85FC220CB7FBFEF10EFB48
:103A7000117701FB0CF042EA0742904207D9AA18DD
:103A800001F1FF3702D2904200F258813946121AF2
:103A9000A4B2B2FBFEF00EFB102200FB0CFC44EAC9
:103AA0000244A4450BD92C1900F1FF322CBF012789
:103AB0000027A44502D9002F00F04381104640EAB8
:103AC0000140A4EB0C0400211EB1DC400023C6E938
:103AD0000043BDE8F08F8B4206D90EB1C6E9000164
:103AE00000210846BDE8F08FB3FA83F1002951D1D7
:103AF0006345C0F01681824240F213810846002ED1
:103B0000E7D0C6E90047E4E7002A00F0AF80B2FA48
:103B100082F3002B40F0C2808A1A4FEA154EAFB2F2
:103B20000121200CB2FBFEFC0EFB1C2240EA0242EB
:103B300007FB0CF090420ED9AA180CF1FF382CBFED
:103B40004FF001094FF00009904203D9B9F1000F7D
:103B500000F0F080C446121AA4B2B2FBFEF00EFBD5
:103B6000102200FB07F744EA0244A7420ED92C19A1
:103B700000F1FF322CBF4FF0010E4FF0000EA742B4
:103B800003D9BEF1000F00F0D2801046E41B40EADA
:103B90000C4099E7C1F120058B400CFA01F400FAC2
:103BA00001F922FA05F72CFA05FC8A401F4320FA96
:103BB00005F3380C23431FFA87FE1C0CBCFBF0F8FE
:103BC00000FB18CC44EA0C4408FB0EFCA4450ED9BB
:103BD0003C1908F1FF3A2CBF4FF0010B4FF0000BDE
:103BE000A44503D9BBF1000F00F0B880D046A4EB88
:103BF0000C041FFA83FCB4FBF0F300FB134403FB3B
:103C00000EFE4CEA0444A6450ED93C1903F1FF30E0
:103C10002CBF4FF0010C4FF0000CA64503D9BCF1AE
:103C2000000F00F09F80034643EA0840A4EB0E0417
:103C3000A0FB02EC64457346E04602D307D1F14590
:103C400005D2BEEB02036CEB070C0138E0465EB117
:103C5000B9EB030264EB080404FA05F522FA01F358
:103C6000CC401D43C6E90054002132E742082F46EC
:103C70004B08AC4642EAC172AE46C407110C92B280
:103C800041EA034142EA0142B1FBF5F1B3FBF5F031
:103C90001F23A2EB0C0241EA004142E79D40C3F121
:103CA000200299409C402CFA02FC4FEA154E20FA63
:103CB00002F2AFB2BCFBFEF80A430EFB18CC110CAB
:103CC00041EA0C4108FB07FC8C4550D9691808F102
:103CD000FF302CBF4FF001094FF000098C4502D98D
:103CE000B9F1000F30D0A1EB0C01B1FBFEF808FBDD
:103CF00007FC0EFB181192B242EA0142624534D22F
:103D0000AA1808F1FF312CBF4FF001094FF000094C
:103D10006245BED2B9F1000FBBD1A8F102012A441D
:103D2000B7E7841A6CEB030201201746E7E62C4440
:103D300002382BE7ACF1020C2A440CE702392A4482
:103D4000A5E62C440238BAE6A5EB0C0CA8F102005B
:103D50006144B1FBFEF808FB07FCCAE7A8F10208C2
:103D60003C4444E7023B3C445EE7414691E7A1EB1B
:103D70000C014046B1FBFEF808FB07FCB9E700BFA9
:103D8000704700BF000000005FF800F0692A0010D3
:103D90005FF800F025150010020000000C10000074
:103DA000AB524D354010000054514D353A100000D3
:103DB000AB524D3508100000ABAE4235021000008A
:103DC000CCCEC42CD02200000C100000AB504D35DE
:103DD0004010000054534D3514130000AB504D35C6
:103DE00000F000000C100000AB524D3540100000F8
:103DF00054514D3514130000AB524D3500F0000006
:103E000010000000000000000000000000000000A2
:103E10000000000000000000A8170020FFFFFFFFC7
:103E20000000020000000000000000000000000090
:103E3000480D0020480D0020500D0020500D00209E
:103E4000580D0020580D0020600D0020600D00204E
:103E5000680D0020680D0020700D0020700D0020FE
:103E6000780D0020780D0020800D0020800D0020AE
:103E7000880D0020880D0020900D0020900D00205E
:103E8000980D0020980D0020A00D0020A00D00200E
:103E9000A80D0020A80D0020B00D0020B00D0020BE
:103EA000B80D0020B80D0020C00D0020C00D00206E
:103EB000C80D0020C80D0020D00D0020D00D00201E
:103EC000D80D0020D80D0020E00D0020E00D0020CE
:103ED000E80D0020E80D0020F00D0020F00D00207E
:103EE000F80D0020F80D0020000E0020000E00202C
:103EF000080E0020080E0020100E0020100E0020DA
:103F0000180E0020180E0020200E0020200E002089
:103F1000280E0020280E0020300E0020300E002039
:103F2000380E0020380E0020400E0020400E0020E9
:103F3000480E0020480E0020500E0020500E002099
:103F4000580E0020580E0020600E0020600E002049
:103F5000680E0020680E0020700E0020700E0020F9
:103F6000780E0020780E0020800E0020800E0020A9
:103F7000880E0020880E0020900E0020900E002059
:103F8000980E0020980E0020A00E0020A00E002009
:103F9000A80E0020A80E0020B00E0020B00E0020B9
:103FA000B80E0020B80E0020C00E0020C00E002069
:103FB000C80E0020C80E0020D00E0020D00E002019
:103FC000D80E0020D80E0020E00E0020E00E0020C9
:103FD000E80E0020E80E0020F00E0020F00E002079
:103FE000F80E0020F80E0020000F0020000F002027
:103FF000080F0020080F0020100F0020100F0020D5
:10400000180F0020180F0020200F0020200F002084
:10401000280F0020280F0020300F0020300F002034
:10402000380F0020380F0020400F0020400F0020E4
:10403000480F0020480F0020500F0020500F002094
:10404000580F0020580F0020600F0020600F002044
:10405000680F0020680F0020700F0020700F0020F4
:10406000780F0020780F0020800F0020800F0020A4
:10407000880F0020880F0020900F0020900F002054
:10408000980F0020980F0020A00F0020A00F002004
:10409000A80F0020A80F0020B00F0020B00F0020B4
:1040A000B80F0020B80F0020C00F0020C00F002064
:1040B000C80F0020C80F0020D00F0020D00F002014
:1040C000D80F0020D80F0020E00F0020E00F0020C4
:1040D000E80F0020E80F0020F00F0020F00F002074
:1040E000F80F0020F80F0020001000200010002022
:1040F00008100020081000201010002010100020D0
:10410000181000201810002020100020201000207F
:10411000281000202810002030100020301000202F
:1041200038100020381000204010002040100020DF
:10413000481000204810002050100020501000208F
:10414000581000205810002060100020601000203F
:1041500068100020681000207010002070100020EF
:10416000781000207810002080100020801000209F
:10417000881000208810002090100020901000204F
:104180009810002098100020A0100020A0100020FF
:10419000A8100020A8100020B0100020B0100020AF
:1041A000B8100020B8100020C0100020C01000205F
:1041B000C8100020C8100020D0100020D01000200F
:1041C000D8100020D8100020E0100020E0100020BF
:1041D000E8100020E8100020F0100020F01000206F
:1041E000F8100020F810002000110020001100201D
:1041F00008110020081100201011002010110020CB
:10420000181100201811002020110020201100207A
:10421000281100202811002030110020301100202A
:1042200038110020381100204011002040110020DA
:10423000581100200000000000000000681B002052
:10424000D01B0020381C00200000000000000000EF
:10425000000000000000000000000000000000005E
:10426000000000000000000000000000000000004E
:10427000000000000000000000000000000000003E
:10428000000000000000000000000000000000002E
:10429000000000000000000000000000000000001E
:1042A000000000000000000000000000000000000E
:1042B00000000000000000000000000000000000FE
:1042C00000000000000000000000000000000000EE
:1042D00001000000000000000E33CDAB34126DE68B
:1042E000ECDE05000B0000000000000000000000F4
:1042F00000000000000000000000000000000000BE
:1043000000000000000000000000000000000000AD
:10431000000000000000000000000000000000009D
:10432000000000000000000000000000000000008D
:10433000000000000000000000000000000000007D
:10434000000000000000000000000000000000006D
:10435000000000000000000000000000000000005D
:10436000000000000000000000000000000000004D
:10437000000000000000000000000000000000003D
:08438000000000000000000035
:104388004FF0010C70B54FF0A0453B493B480B7806
:104398003B4C83EA0C0E9A010CFA03F3C5F800347F
:1043A800036881F800E0A3F1050E2A44BEF1340F3A
:1043B800D16821781CD8072B3ED049D8052B41D08D
:1043C800304C1460304C2468946000252F4C304ADF
:1043D800157022680132226049B940F271212D4AD4
:1043E8000133A2FB0342520A01FB1233036070BD82
:1043F800302B04D8284C146007249460ECE7A1B152
:10440800234E3578002D32D1A3F131056D08317076
:1044180000214FF4B46C4FF4B47621701F49096839
:104428000CFB051111609660D7E70B231C4984F833
:1044380000C01160936070BD1A4C14601A4C246857
:104448009460C2E7194C1460194C24689460BCE766
:10445800A3F10804282C05D8164C1460164C2468BF
:104468009460B2E7154C146007249460ADE75D08CA
:104478000021193DCBE700BF70250020B80C0020B3
:104488007325002030190020201D0020181D002051
:10449800712500205917B7D1040D0020141D0020E4
:1044A800BC0C0020A8120020CC1C0020301A0020D0
:1044B800241D0020A8130020D01C0020E80C002098
:1044C800D3DEFFFFFE010000FF01000070BCFFFF0C
:0444D800793512AB75
:040000051000014D99
:00000001FF
