:020000041000EA
:10000000002008205D0100101301001015010010F0
:100010001101001011010010110100101101001058
:100020001101001011010010110100101701001042
:100030001101001011010010190100101B01001026
:100040001D0100101D0100101D0100101D010010F8
:100050001D0100101D0100101D0100101D010010E8
:100060001D0100101D0100101D0100101D010010D8
:100070001D0100101D0100101D0100101D010010C8
:100080001D0100101D0100101D0100101D010010B8
:100090001D0100101D0100101D0100101D010010A8
:1000A0001D0100101D0100101D0100101D01001098
:1000B0001D0100101D0100101D0100101D01001088
:1000C0001D0100101D0100101D0100101D01001078
:1000D0001D0100101D0100101D0100101D01001068
:1000E0001D0100101D0100101D0100101D01001058
:1000F0001D0100101D0100101D0100101D01001048
:100100001D0100101D0100101D0100101D01001037
:1001100000BE00BE00BE00BE00BE00BEEFF3058004
:10012000103800BEF2EB88710002001020020010AF
:10013000A801001090A31AE7D3DEFFFF42012110AF
:10014000FF010000E46C0000793512AB4FF00000B5
:100150002349086006C881F3088810474FF05040D3
:10016000006810B14FF00000F2E70FA40ECC002998
:1001700002D000F015F8F9E71A491B4A002000E008
:1001800001C19142FCD1002080F30A8817498847B9
:10019000174988471749884700BEFDE701C901C2D2
:1001A0009A42FBD3704700BF2002001010010020CC
:1001B000F03F002000410010F03F00202C5C0020A8
:1001C0003C5D00100000082000000820DC620010E8
:1001D00000100820001008200000000070470000F8
:1001E00008ED00E02C5C0020D8F00620E53200206D
:0801F00039430020A932002070
:0801F800C038001001000000F6
:10020000705A00207C5A0020885A0020945A0020FE
:10021000A05A0020AC5A0020B85A0020C45A00202E
:10022000F8B500BF064B0749C91A891048BF01310C
:10023000491003D0044B0BB101481847704700BF69
:100240002C5C00202C5C00200000000008B5054B51
:100250001BB105490548AFF30080BDE80840FFF732
:10026000E1BF00BF0000000068BF0620F03F002093
:100270002DE9F04F334F8DB006460121386803F069
:1002800023FB4FF000084FF440234FF48032CDE9B8
:1002900004384FF4F83307AC0DF1080AD64625466A
:1002A0004FF0FF3BCDE9022306F10F02F30143EAD1
:1002B00002330193DFF894903B68C9F8000003F122
:1002C0002F4CBAE80F000FC4019B0CF5600C08938B
:1002D0000FCDAEE80F004FEA1C5C1B4B0CF1060C77
:1002E000CEF800B017205FFA8CF10293C4F800B08A
:1002F00000F074FD172348EC4430039B059A23F06B
:10030000F85343F0B8510391069922F478226FF321
:10031000D83142F4382241F48411059202AB3246BE
:1003200006913868D9F8001003F061FB01233A68A0
:10033000D9F80000116883400B4313600DB0BDE88D
:10034000F08F00BFB45B002000CD2200CCF006206F
:100350002DE9F04F304F8FB004460121386803F08B
:10036000B3FA4FF44023E201069304F108034FEA85
:10037000033B03924FF4F8334FF480324FF0000AFE
:10038000CDE90423DFF89490CDF800A0CDF81CA0AF
:100390000DF1240C04AE8046C9F80000B6460FCE1D
:1003A0006546ACE80F004FF0FF314BEAC4130A93E7
:1003B000CCF800100FCDAEE80F006FF47821524654
:1003C000089120234146386803F0C2FA059B224673
:1003D00023F4FF31039B21F4C0711943069B41EACA
:1003E0000B0123F0FA7323F4803343F4A81305912F
:1003F0000693D9F8001004AB386803F0F8FA01222C
:100400003968D9F800000B68824023EA02030B60C8
:100410000FB0BDE8F08F00BFB45B0020C8F006202D
:100420002DE9F04F2F4F8BB006461021386803F0AE
:1004300067FA0121386803F047FA4FF4402B002394
:100440004FEAC61ACDE902B306F10A034FF480322F
:100450004AEA033A4FF4F8336D46CDE90023DFF85A
:1004600088900DF1140C80466446C9F80000EE46F1
:100470000FCDACE80F004FF0FF33CDF818A0CCF84B
:1004800000300FCCAEE80F006FF4702332464146C7
:10049000049338686B46CDF80CB003F0A8FA01213C
:1004A000D9F800003A6800F11003994053680B42F4
:1004B000FCD1F9250123011D42F821501168834028
:1004C0000B4348F280044AF2270100EB400002EBA4
:1004D000C0001360C0F8D840C0F8D8100BB0BDE819
:1004E000F08F00BFB05B0020C0F006202DE9F04F78
:1004F0003B4D8BB006461021286803F001FA01211C
:10050000286803F0E1F900234FF44022CDE90223EB
:100510004FF480324FF4F833E846CDE90023DFF89A
:10052000C8900DF1140C6746EE46C9F80000B8E813
:100530000F00ACE80F004FF0FF3306F10A0A4FEA54
:100540000A3A4AEAC6110691CCF800300FCFAEE85D
:100550000F004FF086722024224B4FEAC61BCDE9D4
:1005600003232968204601F12F4101F56001090D9F
:100570000631C9B2013400F031FC312CF1D10199BE
:100580006B466FF3D01141EA0B0141EA0A01324692
:1005900001912868D9F8001003F029FA0121D9F84F
:1005A00000002A6800F11003994053680B42FCD107
:1005B000FA250123011D42F82150116883400B43A5
:1005C00048F280044AF2270100EB400002EBC00031
:1005D0001360C0F8D840C0F8D8100BB0BDE8F08F59
:1005E000B05B0020E2FFF0FFC4F0062010B501244C
:1005F0000E4BC3F8044405210D2000F0EFFB05214C
:100600000C2000F0EBFB0F2244EC40200E2244ECC7
:1006100040200D2244EC40200C2244EC4020044BAE
:100620001B6813F4007FFAD004E000BF00300050D4
:100630000000605000BF00BF00BF00BF00BF00BF90
:1006400000BF00BF00BF00BF00BF00BF00BF00BFB2
:1006500000BF00BF00BF00BF00BF00BF00BF00BFA2
:1006600000BF00BF00BF00BF00BF00BF00BF00BF92
:1006700000BF00BF00BF00BF00BF00BF00BF00BF82
:1006800000BF00BF00BF00BF00BF00BF00BF00BF72
:1006900000BF00BF00BF00BF00BF00BF00BF00BF62
:1006A00000BF00BF00BF00BF00BF00BF00BF00BF52
:1006B00000BF00BF00BF00BF00BF00BF00BF00BF42
:1006C00000BF00BF00BF00BF00BF00BF00BF00BF32
:1006D00000BF00BF00BF00BF00BF00BF00BF00BF22
:1006E00000BF00BF00BF00BF00BF00BF00BF00BF12
:1006F00000BF00BF00BF00BF00BF00BF00BF00BF02
:1007000000BF00BF00BF00BF00BF00BF00BF00BFF1
:1007100000BF00BF00BF00BF00BF00BF00BF00BFE1
:1007200000BF00BF00BF00BF00BF00BF00BF00BFD1
:1007300000BF00BF00BF00BF00BF00BF00BF00BFC1
:1007400000BF00BF00BF00BF00BF00BF00BF00BFB1
:1007500000BF00BF00BF00BF00BF00BF00BF00BFA1
:1007600000BF00BF00BF00BF00BF00BF00BF00BF91
:1007700000BF00BF00BF00BF00BF00BF00BF00BF81
:1007800000BF00BF00BF00BF00BF00BF00BF00BF71
:1007900000BF00BF00BF00BF00BF00BF00BF00BF61
:1007A00000BF00BF00BF00BF00BF00BF00BF00BF51
:1007B00000BF00BF00BF00BF00BF00BF00BF00BF41
:1007C00000BF00BF00BF00BF00BF00BF00BF00BF31
:1007D00000BF00BF00BF00BF00BF00BF00BF00BF21
:1007E00000BF00BF00BF00BF00BF00BF00BF00BF11
:1007F00000BF00BF00BF00BF00BF00BF00BF00BF01
:1008000000BF00BF0521112000F0E8FA05211020EB
:1008100000F0E4FA05210D2000F0E0FA05210C209B
:1008200000F0DCFA10EE1030DB4303F47F2320EEFF
:100830001030024B00221A7010BD00BFD2F006200B
:100840002DE9F04188B0074B01221A7020220021C7
:10085000684603F061FB044B1B6813F4007FFAD079
:1008600004E000BFD2F006200000605000BF00BFCF
:1008700000BF00BF00BF00BF00BF00BF00BF00BF80
:1008800000BF00BF00BF00BF00BF00BF00BF00BF70
:1008900000BF00BF00BF00BF00BF00BF00BF00BF60
:1008A00000BF00BF00BF00BF00BF00BF00BF00BF50
:1008B00000BF00BF00BF00BF00BF00BF00BF00BF40
:1008C00000BF00BF00BF00BF00BF00BF00BF00BF30
:1008D00000BF00BF00BF00BF00BF00BF00BF00BF20
:1008E00000BF00BF00BF00BF00BF00BF00BF00BF10
:1008F00000BF00BF00BF00BF00BF00BF00BF00BF00
:1009000000BF00BF00BF00BF00BF00BF00BF00BFEF
:1009100000BF00BF00BF00BF00BF00BF00BF00BFDF
:1009200000BF00BF00BF00BF00BF00BF00BF00BFCF
:1009300000BF00BF00BF00BF00BF00BF00BF00BFBF
:1009400000BF00BF00BF00BF00BF00BF00BF00BFAF
:1009500000BF00BF00BF00BF00BF00BF00BF00BF9F
:1009600000BF00BF00BF00BF00BF00BF00BF00BF8F
:1009700000BF00BF00BF00BF00BF00BF00BF00BF7F
:1009800000BF00BF00BF00BF00BF00BF00BF00BF6F
:1009900000BF00BF00BF00BF00BF00BF00BF00BF5F
:1009A00000BF00BF00BF00BF00BF00BF00BF00BF4F
:1009B00000BF00BF00BF00BF00BF00BF00BF00BF3F
:1009C00000BF00BF00BF00BF00BF00BF00BF00BF2F
:1009D00000BF00BF00BF00BF00BF00BF00BF00BF1F
:1009E00000BF00BF00BF00BF00BF00BF00BF00BF0F
:1009F00000BF00BF00BF00BF00BF00BF00BF00BFFF
:100A000000BF00BF00BF00BF00BF00BF00BF00BFEE
:100A100000BF00BF00BF00BF00BF00BF00BF00BFDE
:100A200000BF00BF00BF00BF00BF00BF00BF00BFCE
:100A300000BF00BF00BF00BF00BF00BF00261323E0
:100A400046EC4030112046EC400005273B46013B78
:100A5000FDD1122346EC4030102546EC40500B23CC
:100A6000013BFDD1314600F0B9F93146284600F08E
:100A7000B5F91623013BFDD14FF0A048C8F800D0CE
:100A80002023C8F81C300F2346EC40300D2046ECE4
:100A90004000013FFDD10E2346EC40300C2746ECD0
:100AA0004070013DFDD1314600F098F9314638469D
:100AB00000F094F90123C8F80C34034AC2F8043456
:100AC00008B0BDE8F08100BF0020005008B5102933
:100AD00006D8036823F4F03343EA4131016008BDCE
:100AE000024B034ACD21034802F06AFC0C5200205D
:100AF000BC5900202C52002000B583B001460023D1
:100B000001931023019303F5FC03019301A8FFF760
:100B1000DDFF019B23F00C0242F00802019223F456
:100B2000F85222F00C0242F0080201920C4A1A40DC
:100B300042F0080201920B4A1A4042F0080101916A
:100B400042F009020192084A1A4042F00902019259
:100B50000648184040F00900019003B05DF804FB1E
:100B6000F3E0FFFEF3E07FFEF3E07FFCF1E07FFCCB
:100B700010B504460020FFF7BFFF20F4FC0323F06C
:100B80000C0343F4D00343F002034FF0A04214607F
:100B9000094951604FF4B46191601361074B4FF400
:100BA00088521A6006490A2000F07CFA01210A20C6
:100BB00000F066FA10BD00BF0400605000800640DF
:100BC000554900202DE9F84FFFF710FD08226A4B28
:100BD0001A606A48436D83F0200303F0E00368491C
:100BE0004B65836D83F4803303F440338B65654B31
:100BF0001A60654B9B6813F0080FFAD0132000F0C1
:100C000057F9122000F054F900221146132000F089
:100C100001F900221146122000F0FCF813270125EB
:100C200045EC4470122645EC446045EC407045ECC0
:100C300040600F2000F03CF90E2000F039F900224E
:100C400011460F2000F0E6F8002211460E2000F0B9
:100C5000E1F80F2245EC44200E2345EC443045ECEE
:100C6000402045EC40300D2000F022F90C2000F02F
:100C70001FF9002211460D2000F0CCF80022114689
:100C80000C2000F0C7F84FF00D0945EC44904FF0F0
:100C90000C0845EC448045EC409045EC4080112028
:100CA00000F006F9102000F003F90022114611208F
:100CB00000F0B0F800221146102000F0ABF84FF021
:100CC000110B45EC44B04FF0100A45EC44A045EC44
:100CD00040B045EC40A02D4B4FF400329A614FF4E8
:100CE00040325A614FF480729A6002F580325A6045
:100CF000274A1A602946584600F0BCF82946504653
:100D000000F0B8F82946484600F0B4F829464046B5
:100D100000F0B0F82946384600F0ACF829463046D5
:100D200000F0A8F82946384600F0A4F829463046D5
:100D300000F0A0F80321384600F0AAF8032130465D
:100D400000F0A6F80321384600F0A2F8032130464F
:100D500000F09EF80321584600F09AF8032150460F
:100D600000F096F80321484600F092F8032140462F
:100D700000F08EF8BDE8F88F00200240000001402E
:100D800000100140003002400000024000000C4012
:100D9000010204118A420BD2835C02F1010C8C45E2
:100DA00004DA10F80C0040EA032070470020FAE74C
:100DB0000020704738B505460C4603F071F98442AF
:100DC00009D22B5D621C824203D2A85C40EA032058
:100DD00038BD0020FAE70020FAE700000C4B03EBD7
:100DE000800253F8203083F0400303F0C00302F583
:100DF000805CCCF80030C00000F1804000F520306D
:100E0000416002F540524FF480731360704700BF99
:100E10000480034010B40C4C04EB800C79B108231F
:100E20007AB10422134354F82020534003F00C03FA
:100E30000CF5805CCCF800305DF8044B7047002363
:100E4000EEE70022EEE700BF0480034039B1084B13
:100E500003EB800303F5005302221A607047044B32
:100E600003EB800303F5405302221A60704700BF72
:100E700004800340054A02EB800352F820205140D1
:100E800001F0010103F580531960704704800340AD
:100E9000064B03EB800253F8203083EA011303F082
:100EA000300302F580521360704700BF0480034096
:100EB00008B54FF0000242EC440042EC400005212E
:100EC000FFF78CFF08BD00000FB400B583B0049C91
:100ED000074802F08FFB3CB105A90191204602F0C2
:100EE00099FB044802F086FB012002F063FA00BF80
:100EF0009C520020AC520020EFF3108072B6064BDB
:100F0000D3E8CF1F01220029FAD1C3E8412F0029DD
:100F1000F6D1BFF35F8F7047BB5D00200023034A0B
:100F2000C2E88F3F80F31088704700BFBB5D002090
:100F300070B505460C461646FFF7DEFFE208A95CD1
:100F400004F0070C012303FA0CF3194205D1DBB2BC
:100F50000B43AB54FFF7E2FF70BD21463046FFF76D
:100F6000B3FFF8B506460D4614461F46FFF7C4FF0B
:100F700000E00134BC420ED84FEAD40C16F80C1035
:100F800004F0070301229A401142F2D1D2B20A437F
:100F900006F80C2001E04FF0FF34FFF7BFFF002CF4
:100FA00001DB2046F8BD002DFBD00698FFF78CFF33
:100FB000054A1078431CDBB21370172B02D9134675
:100FC00010221A70704700BFBD5B00204FF0E02276
:100FD000936843F00053936070470000002305E0DE
:100FE000044A1A440021C2E88F1F01331F2BF7D98E
:100FF000704700BFB05D0020064B9B68103043F87F
:101000002010BFF35F8F00230349C1E88F3F82F3B5
:101010001088704700ED00E0B95D0020004870477F
:1010200000E400E008B5FFF7F9FF002304E04FF00B
:10103000803240F8042B01330C2BF8D908BD000096
:101040004209064B53F8223000F01F000122824073
:1010500003EA0200003818BF0120704700E100E0F9
:101060003AB1064B00F1600243F8221043F8201019
:1010700070472030014B43F82010704700E100E03A
:1010800008B50A4600F01F03012199404009FFF707
:10109000E7FF08BD024B9B68103053F820007047F3
:1010A00000ED00E070B505460C46EFF3108672B611
:1010B0000F4BD3E8CF1F01220029FAD1C3E8412FFB
:1010C0000029F6D1BFF35F8FFFF7E4FF094B984289
:1010D00001D0A04205D1324621462846FFF78CFFB9
:1010E00070BD054B054AE721054802F069F900BFCC
:1010F000B95D00201D01001010530020E0590020B0
:10110000C8520020014B0B4403607047B05D0020C3
:1011100010B50446FFF74CFF01462046FFF7F2FFEB
:10112000FF232371BFF35F8F10BD10B50446FFF797
:101130003FFF01462046FFF7E5FFFF232371002311
:101140006371BFF35F8F10BD10B50D4C09E00D4BFF
:101150000D4A1A210D4802F033F92046FFF7D8FF57
:1011600008340B4B9C4209D22368002BF5D0012B8D
:10117000EDD12046FFF7D9FF0834F2E710BD00BFDC
:10118000D85B002048530020205A002068530020DC
:10119000E85B00200246EFF30583DBB2103B9908C1
:1011A00004D0034803F00303136070470148F9E7D4
:1011B00000800B4000000B4010B4846AA2EB040CCA
:1011C0000B1D50F823301B1B9C4504D3046A0123DC
:1011D0008B401C4202D1043140F821205DF8044BC1
:1011E000704741EA004070470D4B1A68EFF31081D9
:1011F00072B6D2E8CFCF0120BCF1000FF9D1C2E81E
:101200004C0FBCF1000FF4D1BFF35F8F1A680023BD
:10121000C2E88F3F81F3108840BF00200021704753
:10122000BCF006202DE9F04F85B003A8FFF7B2FF10
:10123000954B984214BF00230123039901EB8303CC
:10124000924A52F823402378994206D1054601225A
:101250008A4000F541535A602CE18D4B8D4A922112
:101260008D4802F0ADF8D4F8149006EB46074FEA2B
:10127000C70A09EBC707D7F808B0D7F80C8028468B
:1012800000F032FBB0EB0B0061EB0803002BC0F267
:101290001A81B8F1000F64DB3B691A4600937F4B5B
:1012A0009A4230D0798889B2B4F90800FFF799FFE3
:1012B0007969009B9847009001910099019A51EA41
:1012C00002034ED01346002A29DABBEB010268EB79
:1012D0000308BA60C7F80C8039F90A70002FC0F211
:1012E000F280D4F814E007EB47030EEBC3039968D0
:1012F000DB68511A68EB0303002BC0F2E480A446BC
:101300002CF8087F17E07A69136900921046984715
:1013100038B3009A1368009353680193CDE72846C9
:1013200000F0E2FA009B1A18019B43EB0108D0E79A
:101330009C463EF90B70002F0EDBBCF9003003EB2E
:1013400043034FEAC30B0EEBC3039868D968101A26
:1013500068EB01010029EBDA29F80A70ACF80060AB
:10136000B1E039F90A3023812369EFF3108272B6B4
:10137000D3E8CF0F01210028FAD1C3E8401F00288D
:10138000F6D1BFF35F8FB4F9023029F80A306680D6
:1013900021690023C1E88F3F82F3108893E023691D
:1013A000EFF3108272B6D3E8CF0F01210028FAD1F3
:1013B000C3E8401F0028F6D1BFF35F8FB4F8048064
:1013C0000FFA88F84FF6FF73A38021690023C1E864
:1013D0008F3F82F310881AE01F4630F90A60002E12
:1013E0000FDBB7F9003003EB43034FEAC30A00EB0E
:1013F000C3039968DA68BCEB01016EEB0202002AB4
:10140000EADAA7F8008030F9098020F80960B8F11D
:10141000000F5DDB606908EB48034FEAC30900EB8E
:10142000C303D3F808C0D3F80CE004F10807B4F9FB
:101430000860D4E70023A37104F1080CB4F9083064
:1014400010E04FF0FF384FF0FF39C0E90289B4F9DE
:101450000800984205D0ACF80020B4F90800C85341
:1014600023811346B3F1FF3F35D0616903EB43029B
:10147000D70001EBC20031F93220468816F4004F44
:10148000DFD18446EDE700BF00800B4080BF06201F
:10149000FC5300204C5A0020285400201511002035
:1014A000284600F021FA3F1A66EB0106012F76F17B
:1014B000000628DA039A01239340EB63B4F908602D
:1014C000002EBFF6D0AEA38813F4004F3FF467AFF1
:1014D000A379002BAED1B4F90830002B13DB62697D
:1014E00003EB430302EBC3039F68DE68B6F1FF3FE3
:1014F00008BFB7F1FF3FD3D03A4633460399284699
:10150000FFF75AFECCE740BF05B0BDE8F08F00BF43
:10151000F8B504460D4611460A4B984210D00026F5
:101520002E44012707FA05F525623046FFF7BAFD7C
:1015300039463046FFF7A4FD04F501542560F8BD97
:101540000426EDE700800B40F8B504460E4617462A
:101550001D46C160FFF72CFD164B03442361277025
:10156000ABB263814FF05042127862704FF6FF7257
:101570002281A280013B63804FF0000C08E00CF157
:10158000FF300CEB4C0E636923F83E000CF1010CAC
:10159000AC45F4D3084B9E4214BF0023012307EB54
:1015A0008303064A42F82340054A39463046FFF78E
:1015B000AFFFF8BDB05D002000800B4080BF06206B
:1015C0001511002008B5054B1B690BB1034808BD78
:1015D000034B044A6521044801F0F2FEC05B002081
:1015E00068540020345A002028540020F8B50446DE
:1015F0009E460069EFF3108172B6D0E8CF6F0125E7
:10160000002EFAD1C0E8465F002EF6D1BFF35F8FFF
:10161000B4F90250666905EB4500C70006EBC0004F
:10162000002D03DB36F907C0A4F802C04FF0000C10
:101630002369C3E88FCF81F31088654533DB0699B2
:101640000161079941618260C0F80CE0418889B26C
:101650000131C1F30E0101B9012141802846FFF794
:10166000C0FD2369EFF3108272B6D3E8CFCF01211A
:10167000BCF1000FF9D1C3E84C1FBCF1000FF4D14D
:10168000BFF35F8FA388F353A58021690023C1E8CE
:101690008F3F82F31088E368217801228A4003F5A6
:1016A00001535A60F8BD4FF0FF30FBE770B582B0D0
:1016B000064615461C469DF8203033B900F01CF94B
:1016C000854264EB010100290ADB079B0193069B1D
:1016D00000932A4623463046FFF788FF02B070BDCC
:1016E0000020FBE7F0B585B005460C4616461F46C0
:1016F000FFF768FF9DF828300293019700962A466D
:101700002346FFF7D3FF05B0F0BD03464089B0EB99
:10171000214F31DD10B50A14586902EB420200EB8B
:10172000C2001A69EFF3108C72B6D2E8CF4F5FF0A7
:10173000010E002CF9D1C2E844EF002CF5D1BFF323
:101740005F8F428892B289B28A420FD00020196915
:101750000022C1E88F2F8CF3108830B1DA681B7833
:101760000121994002F50153596010BD42F4004235
:10177000428001209871EAE70020704710B50446C6
:10178000FFF720FF2146FFF7C0FF10BDF0B583B083
:1017900005460C46EFF30583DBB293B1384B5B6A29
:1017A0008B4209D3364A926A824208D28B4201D0D8
:1017B000012002E0002000E0002003B0F0BD012085
:1017C000FBE7FFF7FFFEC7680678384600F08CF8A5
:1017D0002A1A64EB0101043657F826301B1A9A4284
:1017E00071F1000112DB20BF254B5B6A9C4209D8D6
:1017F000234A926AAA4207D29C4201D00120DCE728
:101800000020DAE70020D8E70120D6E70023009384
:101810001C4A28462146FFF765FF002818DD184BB3
:101820005B6A9C4205D8164A926AAA4202D29C423E
:1018300000D120BFFFF7A2FF114B5B6A9C421BD86F
:101840000F4A926AAA4219D29C4213D00120B4E7EF
:101850000B4B5B6A9C4209D8094A926AAA4207D29A
:101860009C4201D00120A8E70020A6E70020A4E7C1
:101870000120A2E70020A0E700209EE701209CE7CE
:1018800000000B40D91000200048704700000B40BA
:1018900010B50A4B1B6923B10A210948FFF732FC36
:1018A00010BDFFF7F1FF0446032100F00BF81023F1
:1018B000032221460148FFF747FEEDE7C05B002009
:1018C000BCF0062010B5054A054C064BA04214BFDB
:1018D0001846581CFFF72CFB10BD00BF8C5400208D
:1018E00000800B407C6400200246436A906A1946DF
:1018F000536A9942FAD1704708B50248FFF7F4FFDE
:1019000008BD00BF00000B4070B51646049D00EBFB
:10191000400C4FEA8C0C0CF1804C0CF5803CDCF850
:101920000420AA4201D2CCF80450A0F1040E5FFAC0
:101930008EFEBEF1010F28D90CF540524FF4006421
:1019400014601E4A52F8202042B11C4C6469B4FB5A
:10195000F2F4013404EB4404033CFDD2DCF8002033
:1019600082EA461202F0E0020CF580542260BEF1D9
:10197000010F16D90CF500524FF400611160CCF83C
:1019800004500E4A42F8203070BD0129D4D10CF524
:10199000405203241460DCF8082012F0010FFAD042
:1019A000DCE7DCF800204A4002F003022260DCF8A9
:1019B000084001228A401442F9D0DBE72C6A00205B
:1019C00010B582B04FF480340094FFF79DFF02B051
:1019D00010BD0000014B53F8200070472C6A002016
:1019E000F0B583B004460D461646134F3B46012220
:1019F00011460520FFF7E4FF00962B462246012101
:101A00000E4800F059F806FB05F5B4FBF5F40C4B55
:101A1000002202210420FFF7D3FF234600220121E8
:101A20000520FFF7CDFF3B46022200210620FFF7ED
:101A3000C7FF03B0F0BD00BF006CDC020000054032
:101A4000001BB7002DE9F04104460E4617469846A4
:101A50004FF4A0751AE0013B9BB103FB00FCB2FB05
:101A6000FCFEA645F7D10CFB1E210029F3D1104A3C
:101A700002FB05F535603860C8F800300120BDE88C
:101A8000F081013808B10346E6E7013D0F2D0CD97E
:101A900042F6E06205FB02F2A2F53723A3F5D87304
:101AA00004498B42F1D80720ECE70020E7E700BFAC
:101AB000001BB70050F80C0070B5049C344DB5FB0A
:101AC000F1FC344D1544344EB54237D8B2FBFCF529
:101AD000A5F1100EBEF5987F36D803F1FF3EBEF19A
:101AE000060F37D804F1FF3EBEF1060F32D8BCEB2B
:101AF000121F35D8240344EA03440368002B35DB66
:101B0000264B984242D00E2301229A40244B1A6061
:101B100003F580531A60234B9B6832EA0303FAD122
:101B20000160856000F54052043221231360036890
:101B3000002BFCDAC4600823136070BD1A4B1B4AEB
:101B400011211B4801F03CFC1A4B184A1921184876
:101B500001F036FC184B154A1C21154801F030FCE9
:101B6000164B124A2321124801F02AFC036803F0A5
:101B70003F038B42C4D18368C3F30B03AB42BFD195
:101B8000C36803F4EE23A342BAD1D6E70F23BBE721
:101B9000001BB70080E84BD380F8A93200800540D5
:101BA0000020024000000240B0540020645A00208F
:101BB000005500204855002064550020B0550020F5
:101BC000024B1A68024B5A60704700BF64BF062080
:101BD00000800D4008B5164B4FF080421A60A3F507
:101BE0004123144A9A6051B103F540234FF0E0625B
:101BF0001A6048B9104B4FF000421A6008BD0C4BF8
:101C00004FF0E0621A60F4E74FF47A7303FB00F0E0
:101C10000A4B1860B0F1807F02D36FF07F421A60E8
:101C2000FFF7CEFF044B4FF080421A60E6E700BF9B
:101C300000B00D40F3FFFF0100A00D4064BF06207F
:101C400008B5034B034ADA61FFF7C4FF08BD00BFC4
:101C500000800D402131B76A054A00EB400302EBDA
:101C60008303596000EB400080000123135070474C
:101C70000080104008B50023DB8A002242E800F211
:101C800012F4800F02D11021984708BD0421984713
:101C9000FBE70000034BD3F82838002BFAD0BFF342
:101CA0005F8F704700000E40002207E0054B134491
:101CB0009B00BFF35F8F002119600132072AF5D91D
:101CC000704700BF0382031008B5FFF7EDFF08BDA2
:101CD000074B4FF42A621A604FF4BC52DA6003F5E6
:101CE0000053044A1A60024B5B68002BFBDA704712
:101CF0000080044000B0FA0010B5044602E054F839
:101D0000043B9847014B9C42F9D310BD285C00204E
:101D10007047000008B50248FFF7EEFF08BD00BF9E
:101D2000E85B002008B50248FFF7E6FF08BD00BFEA
:101D3000145C0020064B074A1A6003F58053064ADC
:101D40001A60064B9A68044B9343FAD1704700BF60
:101D5000002002407F3BEFEFF6FFF303000002405C
:101D6000054BDB6CB3F5004F00D07047034B4FF4CD
:101D70008022DA64F9E700BF000011500020115002
:101D80004FF0E022D2F8881D034B0B43C2F8883D88
:101D900010EE3004704700BF03033000054B6FF0B6
:101DA00060421A60044B9B68DB4333F06043F9D117
:101DB000704700BF003002400000024008B545F205
:101DC0005320FFF757FF03460420984708BD08B586
:101DD00045F25320FFF74EFF03460120984708BD08
:101DE00008B5FFF7FBF808BD38B5054CA168054DEF
:101DF0004FF48872284602F0DDF8A56038BD00BFB8
:101E000000ED00E00000002038B50420FFF7E2FDFF
:101E1000064BA3FB0035AD0C002404E02946E0B2DC
:101E2000FFF71AFF0134052CF8DD38BD83DE1B43B4
:101E300030B583B0264B0022C3F88420FFF748FF5B
:101E4000244B0122DA63224B5B6C012BFBD1214B2B
:101E500003221A631E4B9B6B012BFBD102240094BF
:101E600005231D4A01211D48FFF726FE0525009583
:101E70002B461B4A01211B48FFF71EFE1A4B00226E
:101E800021460420FFF79CFD184C23460022012127
:101E90002846FFF795FD164D2B46002211460820D7
:101EA000FFF78EFD2B46002211460920FFF788FD23
:101EB0002346002211460620FFF782FD234600221A
:101EC00011460720FFF77CFDFFF79EFF03B030BDF2
:101ED0000000014000300140002F6859000005401B
:101EE000008C864700800540001BB70080D1F008B9
:101EF000006CDC0286B003B451FC0804CDE9020199
:101F000051FC0904CDE9040151EC0A04CDE90601B4
:101F100003BCF047BDE800504EEC00C4BDE80050E3
:101F20004EEC01C4BDE800504EEC02C400BD000000
:101F300000B5FFF7DFFF02E010FE30F4F8D441EC0B
:101F4000100443EC112400EE010410EE010480EEB5
:101F5000200451EC1004704700B5FFF7CBFF02E0FE
:101F600010FE30F4F8D441EC100443EC112400EEE0
:101F7000010410EE210480EE200451EC300470477F
:101F800000B5FFF7B7FF02E010FE30F4F8D410B54B
:101F900041EC100443EC112451EC040453EC0524EF
:101FA000A0FB024C5FF0000EE0FB03CEE1FB02CE93
:101FB0004CEC20440024E1FB03E444EC30E480EEEC
:101FC000200451EC5004BDE81040704700B5FFF705
:101FD00091FF02E010FE30F4F8D441EC100443EC21
:101FE000112451EC2104A0FB01126FEA820252FB82
:101FF000100052FB12F252FB1000A0EBD07C53EC0D
:1020000004245CFB13F153EC1524A1FB022001FB1B
:10201000030053EC4424A2EB000050FB1CF24FEAF7
:10202000111312EB017043EBE27140EA515020EAC8
:10203000915020F0070053EC7524A0FB023C53ECB8
:10204000752400FB03CC01FB02CC53EC0424ACEB65
:10205000824C40EA5C70A0F1010041EC400480EE4B
:10206000200451EC7004704700B5FFF743FF02E015
:1020700010FE30F4F8D440EC700400EE010410EED1
:10208000210480EE200451EC3004704700B5FFF7C6
:1020900031FF02E010FE30F4F8D440EC600400EEB2
:1020A000010410EE210480EE200451EC300470474E
:1020B00000B5FFF71FFF02E010FE30F4F8D441EC4A
:1020C000800400EE010410EE010480EE400410EEE6
:1020D0001304704700B5FFF70DFF02E010FE30F467
:1020E000F8D441EC800400EE010410EE010480EE0F
:1020F000400410EE3304704700B5FFF7FBFE02E02A
:1021000010FE30F4F8D441EC100443EC112400EE3E
:10211000010410EE3004C0F30070704700B5FFF703
:10212000E9FE02E010FE30F4F8D443EC102441EC58
:10213000110400EE010410EE30F48CBF01200020E9
:10214000704700BF00B5FFF7D5FE02E010FE30F487
:10215000F8D443EC102441EC110400EE010410EE1D
:1021600030F42CBF01200020704700BF00B5FFF7FE
:10217000C1FE02E010FE30F4F8D441EC100443EC50
:10218000112400EE010410EE30F42CBF01200020D9
:10219000704700BF00B5FFF7ADFE02E010FE30F45F
:1021A000F8D441EC100443EC112400EE010410EECD
:1021B00030F48CBF01200020704700BF704720B171
:1021C00008B50A684968904708BD70470146002075
:1021D00008E000EB8000531C0B60137803EB400316
:1021E000A3F130000A681378303BDBB2092BF0D939
:1021F00070472DE9F04F83B005460E4693461F46C3
:10220000DDF830A00D9CDDF838900F9B13F0030F24
:1022100019D1A046019208E002F1010B3B4631467C
:102220002020A84708F101085A46C845F4D3DDF834
:1022300004B008E0013C02F101083B4631461AF8BF
:102240000400A8474246002CF4D10F9B13F0020F64
:1022500009D1104603B0BDE8F08F541C3B4631460F
:102260002020A8472246A2EB0B034B45F5D3F0E70D
:102270002DE9F04385B099460C9D0D9C9DF8388062
:10228000DDF840E0119F129E16F0020F21D17FB1C0
:1022900016F0010F0CD0B8F1000F02D116F00C0FA0
:1022A00006D0013F04E04FF0300C05F804C00134C3
:1022B000744501D21F2CF6D916F0010F09D0BC428B
:1022C00007D21F2C05D84FF0300C05F804C001349C
:1022D000F2E716F0100F14D016F4806F04D11CB181
:1022E000744522D0BC4220D00F9B102B33D00F9BC3
:1022F000022B3DD01F2C0ED84FF0300C05F804C037
:1023000001341F2C07D8B8F1000F39D04FF02D0C35
:1023100005F804C0013403960297019400954B46DA
:10232000FFF767FF05B0BDE8F083B4F1010C1DD0E5
:102330000F9B102B0ED064460F9B102BD7D116F09D
:10234000200FD4D01F2CD2D84FF0580C05F804C061
:102350000134CFE7023C16F0200FEDD11F2CEBD853
:102360004FF0780C05F804C00134C3E76446BBE7BE
:102370001F2CD0D84FF0620C05F804C00134B9E727
:1023800016F0040F05D04FF02B0C05F804C00134F3
:10239000C1E716F0080FBED04FF0200C05F804C0BE
:1023A0000134B8E7F0B591B0169C189D1B9E0CB98E
:1023B00026F0100616F4806E1DD064B34FF0000EA8
:1023C00019E016F0200F24D04127BC445FFA8CFCA2
:1023D000ACF10A0C5FFA8CFC0EF101070EF1400E15
:1023E000EE440EF820CCB4FBF5FCAC4214D31F2F06
:1023F00012D8BE466446B4FBF5FC05FB1C4C5FFAE4
:102400008CFCBCF1090FDCD80CF1300C5FFA8CFCB1
:10241000E2E76127D9E7274606961A9C0594199C9E
:10242000049403959DF85C400294019708AC0094D5
:10243000FFF71EFF11B0F0BD2DE9F04F95B00990E8
:102440000A910B929846DDF878B0DDF87C90229DD9
:10245000239F269E5BEA090201D126F0100616F49E
:10246000806424D05BEA09022FD000241FE016F01C
:10247000200F28D041231344DBB20A3BDBB204F126
:10248000010A04F150020DEB020404F8203C2A4634
:102490003B465846494601F07FFBAB4579EB0709BF
:1024A00015D3BAF11F0F12D85446834689462A46DF
:1024B0003B465846494601F06FFBD2B2092AD6D8AE
:1024C0003032D3B2DBE76123D5E74FF0000A06963E
:1024D000259B0593249B049303959DF880300293DC
:1024E000CDF804A00CAB009343460B9A0A990998C7
:1024F000FFF7BEFE15B0BDE8F08F00000000000041
:102500002DE9F04F93B004460D4617461E46DDE90F
:102510001CAB52465B4650465946FFF7F1FD00287A
:1025200040F0F3804FF0FF32AD4B50465946FFF775
:1025300035FE002840F0E9804FF0FF326FF4801341
:1025400050465946FFF7EEFD002840F0DE8000229D
:10255000002350465946FFF7E5FD002840F0E6808D
:10256000CDE906AB209B13F480630F9301D10623C2
:102570001E93DDE9062310461946CDE90A01079BA3
:1025800052EA030100F0DC80C3F30A50C3F31303E3
:10259000904643F07F5949F44019A0F2FF30FFF70D
:1025A00067FD7DA3D3E90023FFF7EEFC7CA3D3E90D
:1025B0000023FFF7C1FCCDE908010022894B40460A
:1025C0004946FFF7CDFC78A3D3E90023FFF7DCFCF5
:1025D00002460B46DDE90801FFF7AEFCFFF76CFD94
:1025E0000890FFF745FD8046894671A3D3E9002393
:1025F000FFF7CAFC00227C4BFFF79EFCFFF75CFD57
:102600000A906DA3D3E9002340464946FFF7BCFC7E
:10261000804689460A98FFF72BFD69A3D3E900237A
:10262000FFF7B2FC02460B4640464946FFF798FCCE
:102630008046894602460B46FFF7A6FCCDE90C0111
:102640000A9B03F2FF3300210022CDE90A121B0589
:102650000B9300230A9342464B4640464946FFF7F8
:102660006BFCCDE9100142464B4600204FF0804103
:10267000FFF776FC8046894600225C4BDDE90C01C1
:10268000FFF7A8FC00225A4BFFF756FC02460B4608
:10269000DDE90C01FFF79EFC0022564BFFF74CFCD6
:1026A00002460B46DDE90C01FFF794FC02460B469F
:1026B00040464946FFF740FC02460B46DDE9100163
:1026C000FFF788FC00224C4BFFF736FCDDE90A23BC
:1026D000FFF75AFC80468946CDE90A89DDE90623E1
:1026E000FFF75CFD50B1089B013B08930022404B73
:1026F00040464946FFF76EFCCDE90A01089B63336B
:10270000C62B46D84FF004081EE0209B04931F9B65
:1027100003931E9B0293CDE900AB33463A4629460C
:10272000204600F0FDF813B0BDE8F08F9FED267B4A
:102730008DED067BCDF818A00BF10043079311E750
:10274000002308934FF00408209B13F4006F5FD020
:10275000DDE90A1213460B4313D01DA3D3E900236E
:10276000DDE90601FFF706FD002800F0B4801AA39A
:10277000D3E90023DDE90601FFF7D4FC002800F0CF
:10278000AA801E9A089B9A4238DDD31A013B1E93F9
:1027900036E04FF00508D7E7FB799F501344D33F4D
:1027A000B3C8608B288AC63F61436F63A787D23F57
:1027B00071A379094F930A401655B5BBB16B02401E
:1027C000EF39FAFE422EE63F000000000000000054
:1027D0002D431CEBE2361A3F0000000080842E419E
:1027E000FFFFEF7F0000F83F0000E03F00002C40BB
:1027F00000002440000018400000F03F00231E931A
:10280000209B43F4806320934FF00008CDF8208094
:102810001F9B984569D2A3EB0809209B13F0020384
:102820000C9304D0B8F1000F01D04FF00009089BC1
:102830003BB1DDE90A23DDE90601FFF7CBFBCDE97A
:1028400006010022002350465946FFF76BFC002882
:102850004ED1209B23F400630493CDF80C901E9B73
:1028600002939DED067B8DED007B33463A4629466B
:10287000204600F055F8B8F1000F3FF454AF209B0C
:1028800013F0200F3CD04FF0450C00F10109334606
:10289000024629466046A047089981EAE172A2EB08
:1028A000E1720523059308F1FF330493002303939A
:1028B0000A230293CB0F0193009233464A462946DE
:1028C0002046FFF76FFD0C9B002B3FF42CAF024618
:1028D000DDF87C901EE01E9B002B99D00F9B002BF7
:1028E00096D01E9B013B1E9392E74FF0000994E7A0
:1028F000DDE90601024601F10043CDE90623A8E720
:102900004FF0650CC1E702F101083346294620204B
:10291000A0474246D31B4B45F5D3104603E700BF03
:102920002DE9F04F2DED028B95B007900A9192465C
:102930009B46DDE92089229D42464B46404649465A
:10294000FFF7DEFB002835D14FF0FF326FF4801324
:1029500040464946FFF7E6FB00283AD14FF0FF32E8
:10296000B14B40464946FFF719FC002840D1AAA3C5
:10297000D3E9002340464946FFF710FC00284DD11B
:10298000A7A3D3E9002340464946FFF7CBFB002825
:1029900044D10022002340464946FFF7C3FB0028EC
:1029A0004AD100230B93249B13F4806F00F0B58071
:1029B000002454E0249B0393239B0293032301935D
:1029C0009A4B00935B4652460A990798FFF711FC11
:1029D0001BE1249B0393239B029304230193944BB9
:1029E00000935B4652460A990798FFF702FC0CE1F8
:1029F000249B13F0040F0ED08E4B042224990391D4
:102A000023990291019200935B4652460A990798D6
:102A1000FFF7EFFBF9E0884B0322EFE7249B0493D9
:102A2000239B03930295CDE900895B4652460A99A0
:102A30000798FFF765FDE8E042464B46002000217D
:102A4000FFF78EFA8046894601230B93ABE704F12A
:102A500050036B44302203F8202C013D01341F2C1D
:102A600001D8092DF3D840464946FFF725FB064615
:102A7000FFF7FEFA02460B4640464946FFF770FA5A
:102A80006E4B03EBC50393ED008B53EC182BFFF754
:102A90007BFA02460B46CDE90823FFF71FFB0746EA
:102AA000FFF7F8FA02460B46DDE90801FFF758FA8E
:102AB00002460B46CDE908230022614BFFF76EFB6F
:102AC00068B301373846FFF7E5FA02460B4651EC8A
:102AD000180BFFF73BFB08B1013600276DBB3046F2
:102AE000FFF7C6FA02460B4640464946FFF738FA5A
:102AF000074688460022524BFFF714FB00284CD1B2
:102B000000224F4B38464146FFF748FB002844D18E
:102B100016F0010F41D001363FE0062548E70022BC
:102B2000474BDDE90801FFF7FDFA0028D6D117B1C0
:102B300017F0010FD2D00137D0E71F2C17D8013D75
:102B4000404BA3FB0723DB08194603EB8303A7EBEA
:102B50004303621C303304F150000DEB000404F811
:102B6000203C092F02D90F461446E6E714461F2CD5
:102B70000AD86B1E45B104F150026A44302102F8B4
:102B8000201C1D460134F2E71F2C06D804F1500327
:102B90006B442E2203F8202C01341F2C17D82A4A0C
:102BA00082FB0632F317C3EBA2031A4603EB83033F
:102BB000A6EB4303611C303304F150000DEB00041D
:102BC00004F8203C16460AB10C46E6E70C46249B66
:102BD00003F00303012B39D01F2C09D80B9B002BCA
:102BE00051D004F150036B442D2203F8202C013402
:102BF000249B0393239B029301940CAB00935B46AD
:102C000052460A990798FFF7F4FA15B0BDEC028B0B
:102C1000BDE8F08FAFF300800000000065CDCD412E
:102C20000000000065CDCDC1FFFFEF7F30560020D2
:102C300034560020245600202C560020D05A002064
:102C40000000E03FCDCCCCCC67666666239BB3B179
:102C50000B9B1BB9249B13F00C0F12D0239B013B41
:102C60002393194606E004F150036B44302203F825
:102C7000202C01348C42AFD21F2CF4D9ACE723991D
:102C8000F8E72399F6E7249B13F0040F07D004F12B
:102C900050036B442B2203F8202C0134A8E7249B1B
:102CA00013F0080FA4D004F150036B44202203F862
:102CB000202C01349CE700BF2DE9F04F8FB08046F7
:102CC00017460D938946002900F04F83002508E040
:102CD0006C1C3B462A464946C0470D9B01330D9369
:102CE00025460D9B1878002800F042832528EFD157
:102CF00001330D9300261FE046F0010601320D92CC
:102D0000012318E046F0020601320D92012312E081
:102D100046F0040601320D9201230CE046F008064D
:102D200001320D92012306E046F0100601320D92A9
:102D3000012300E000234BB30D9A1378203B102BA6
:102D4000F8D801A151F823F00D2C0020252C0020EB
:102D5000252C0020192C0020252C0020252C0020BB
:102D6000252C0020252C0020252C0020252C00209F
:102D7000252C0020012C0020252C0020F52B0020E4
:102D8000252C0020252C0020E92B00200A930D9BE8
:102D90001A78A2F13003DBB2092B18D92A2A1BD0EA
:102DA0000A9B0B930D9B1A782E2A25D00D9A137827
:102DB000683B122B5CD8DFE803F0495BAC5B3B5B04
:102DC0005B5B5B5B5B5B575B5B5B5B5BB1000DA85D
:102DD000FFF7FCF90B90E5E7189B1A1D18921B688A
:102DE000002B04DB0B930D9B01330D93DAE746F0C8
:102DF00002065B420B93F6E746F480665A1C0D927E
:102E00005A78A2F13003DBB2092B0CD92A2ACDD192
:102E1000189B1A1D18921C6824EAE4730A930D9BF0
:102E200001330D93C2E70DA8FFF7D0F90A90BDE773
:102E300046F48071531C0D9353786C2B01D00E46D1
:102E400016E046F4407602320D9211E046F0800121
:102E5000531C0D935378682B01D00E4608E046F0C2
:102E6000C00602320D9203E046F4807601320D92E4
:102E70000D9B1878672856D82528C0F06C82A0F1E1
:102E80002503422B00F26782DFE813F05A02650245
:102E900065026502650265026502650265026502FA
:102EA00065026502650265026502650265026502EA
:102EB00065026502650265026502650265026502DA
:102EC00065026502650265026502650288016801A6
:102ED0008801650265026502650265026502650298
:102EE00065026502650265026502650265026502AA
:102EF0006502710065026502650265026502650290
:102F00006502650265027100AF0171008801680108
:102F1000880146F4007601320D92A9E746F48076E6
:102F200001320D92A4E7782800F215826928C0F0DA
:102F30001282A0F16902D2B20123934049F2410208
:102F4000134214D113F0800F40F0DF8113F4806F2F
:102F500000F00182189B1A1D1892D3F800A00A9B5A
:102F6000002B40F090814FF0FF32534674E16F2800
:102F70003DD005D858283CD0622803D1022304E074
:102F8000782838D026F010060A23582835D069282A
:102F900003D0642801D026F00C0616F4806F01D00F
:102FA00026F0010669282BD0642829D016F4007F6A
:102FB00040F0968016F4807F40F0AE8016F0400F0F
:102FC00000F0BF80189A111D1891127805960B9980
:102FD00004910A99039102930023019300923B46C6
:102FE0002A4649464046FFF7DDF9054629E0082311
:102FF000CBE71023C9E71023C7E746F02006C6E752
:1030000016F4007F21D116F4807F42D116F0400FD4
:1030100058D0189A111D1891127882EAE271A1EB2A
:10302000E27105960B9804900A9803900293D20FD0
:10303000019200913B462A4649464046FFF7B2F9C5
:1030400005460D9B01330D934BE6189A073222F08B
:10305000070202F108011891516812680846002918
:1030600013DB08960B9C07940A9C06940493002398
:103070000593C90F0291009201903B462A464946AA
:103080004046FFF7D9F90546DBE7524261EB4100C4
:10309000E7E7189A111D1891126882EAE271A1EB14
:1030A000E27105960B9804900A9803900293D20F50
:1030B000019200913B462A4649464046FFF772F985
:1030C0000546BEE716F0800F05D0189A111D18911D
:1030D000B2F90020A1E7189A111D189112689CE717
:1030E000189A073222F0070202F108011891089697
:1030F0000B9907910A990691002104930591029179
:10310000D2E90023CDE900233B462A464946404602
:10311000FFF792F9054694E7189A111D1891059644
:103120000B9904910A990391029300230193136868
:1031300000933B462A4649464046FFF733F9054689
:103140007FE716F0800F04D0189A111D189112888D
:103150003CE7189A111D1891126837E746281AD0D3
:10316000189B073323F0070303F108021892049613
:103170000B9A03920A9A0292D3E90023CDE9002325
:103180003B462A4649464046FFF7CAFB05460D9B8B
:1031900001330D93A5E546F02006E1E7672801D04D
:1031A000472801D146F40066452801D0472801D1BF
:1031B00046F02006189B073323F0070303F10802AB
:1031C000189204960B9A03920A9A0292D3E900236A
:1031D000CDE900233B462A4649464046FFF790F991
:1031E00005460D9B01330D937BE516F002061CD0BE
:1031F00001241898031D189305F1010A3B462A463D
:1032000049460078C047AEB90D9B01330D93554632
:1032100067E5551C3B4649462020C04723462A46C1
:103220005C1C9A45F5D81546E3E70123DDF82CA090
:103230002A46F5E75246DDF82CA006E0561C3B4630
:1032400049462020C0472C463246651CA245F5D889
:103250009246D9E701330A46197811B1511E002A66
:10326000F8D1A3EB0A0316F4806B03D00A9A9342B9
:1032700028BF134616F0020407D00C940A9E2A4673
:103280005D469B4623E00A9A6FE6CDF830B02A46A9
:1032900025460B9C07E002F1010B3B4649462020E6
:1032A000C04733465A465E1C9C42F4D8DDF830B025
:1032B0002C4633460C940A9E5D469B4607E01E460C
:1032C0000AF1010A541C3B464946C04722469AF877
:1032D000000020B1002DF3D0731E002EEFD10C9C06
:1032E00015465B461CB90D9B01330D93F9E40B9E0B
:1032F00006E0551C3B4649462020C04723462A4647
:103300005C1C9E42F5D81546EDE746F02106189B59
:103310001A1D18921B680596082204920A9A0392B5
:10332000102202920022019200933B462A4649460F
:103330004046FFF737F805460D9B01330D93D0E467
:103340006C1C3B462A4649462520C0470D9B01334D
:103350000D932546C5E46C1C3B462A464946C047AA
:103360000D9B01330D932546BBE4DFF82080ADE4CF
:10337000BD4208D37A1E3B4649460020C047284636
:103380000FB0BDE8F08F2A46F5E700BFAD20002062
:1033900000B585B002900391009313464FF0FF32C1
:1033A00002A90348FFF788FC05B05DF804FB00BFE5
:1033B000AF20002000BEFDE708B5FFF7FBFF0000CF
:1033C00000B583B08C4619465AB11446064B019499
:1033D000009363460246054800F03CF90120FFF7E0
:1033E000E9FF034B1C46F2E73C5600204C560020F8
:1033F0004856002010B5EFF30583DBB203B100BEE1
:10340000FEF788FC044C02E054F8043B9847034B59
:103410009C42F9D310BD00BF285C00202C5C00202A
:1034200008B5034608461B681146984708BD0000CA
:10343000F8B507460D461646437D13B100242046D5
:103440000CE003681146284698472EE03B7D10E0CB
:103450003B68022115489847601C0134B44214DAD5
:10346000002CF3DD2B1913F8013C0D2B14BF0023A6
:1034700001232A5D0A2AF0D1002BEED1A042E7DA1F
:103480003B68211A28449847E2E7B04203DA3B68D8
:10349000311A28449847002E07DD354415F8013CC1
:1034A0000D2B14BF002301233B75F8BD205B0020CA
:1034B00038B50368BBB105460B4B1C6806E02946CE
:1034C00051F8042B2046FFF7B3FF24694CB1236861
:1034D000002BFAD0054B1B68002BF0D0A342F4D18F
:1034E000EDE700232B6038BD546A0020586A0020A5
:1034F00038B505460C460B68802B05D023685A1C4E
:1035000022601C44257138BD0846FFF7D1FFF5E75E
:1035100008B5FEF7F1F9074A821841F10003002BC4
:1035200003DB054801F004FD08BD4FF0FF326FF0EA
:103530000043F6E740420F00E05B002008B5024878
:1035400001F010FD08BD00BFE05B00202DE9F04355
:1035500083B006460D4690461C46FFF7D9FF8146CC
:10356000B5F1FF3F04D044B1174F184B1C6807E07A
:10357000304600F095FD0546F5E7154FF5E724695F
:10358000BCB12368002BFAD0124B1B680BB1A342CD
:10359000F5D12A4631462046B847B8F1000FEED0A3
:1035A0000A238DF8073001220DF107012046B847A4
:1035B000E5E7B9F1000F03D1284603B0BDE8F08379
:1035C000FFF7BCFFF8E700BF21330020546A00205A
:1035D00011330020586A002010B5054B1C6800E02C
:1035E000246924B16368002BFAD09847F8E710BD2E
:1035F000546A002038B5054600F052FD0446012308
:103600001A4601462846FFF7A1FFFFF7E5FF2046CF
:1036100038BD0000F0B5A3B004460E46FFF778FFB2
:1036200005460023019301AF334622463946084838
:10363000FFF7AEFE04463846FFF73AFFFFF7CCFF30
:1036400015B9204623B0F0BDFFF778FFF9E700BFBA
:10365000E13300200FB400B583B004A951F8040B86
:103660000191FFF7D7FF03B05DF804EB04B070479A
:103670000022026042608260C26002614FF0FF324D
:1036800002614FF4803202604FF4F83242604FF42E
:10369000802282604FF440228260704770B41468C8
:1036A00001EB410300EBC303C3F8C8409468C3F8BF
:1036B000D04015696FEA050C184B03EA1C130CEA9D
:1036C0005C0C03EA5505D0F868411CEA030F00D0F2
:1036D000F4B9C5B1FCB156681D0D2D076E4001EB64
:1036E000410500EBC505C5F8CC60D2680CB11B03E1
:1036F0001C0A624001EB410100EBC100C0F8DC2074
:10370000002070BC70475668002CE5D12546E5E7DF
:103710006FF00A00F5E76FF00A00F2E7218410006D
:103720000A4609B110290CD100F12F4303F56003BB
:103730001B0D074951F8233033B9C0F86821002028
:1037400070476FF00A0070476FF00B00704700BFC2
:10375000D05D0020D0F8683123B111F0010F06D000
:103760000020704711F0040F03D0002070470120A3
:1037700070470120704708B5C979FFF7EBFF08BD16
:1037800070B504460D461646FFF7F5FFD0B195F922
:103790000530002B01DBB34217D104F12F4000F5B7
:1037A0006000000D0A4B53F820102A790123934042
:1037B000013B03FA06F20A4201D1002070BD6FF00E
:1037C0000800FBE76FF00A00F8E76FF00A00F5E782
:1037D000D05D002070B504460D461646FFF7D0FFB9
:1037E00098BB4FF0000C0FE013F0600F17D1D4F826
:1037F000682192B2534012E00CEB060E0EF1120E4D
:1038000044F82E300CF1010C2B7963450CD92B6850
:1038100033F81C3003F46042B2F5005FE4D0B3F536
:10382000005FE9D23344E7E7012202FA03F3013BE8
:1038300004F12F4404F56004240D044951F82420B8
:10384000B3401A4341F82420304670BDD05D0020BB
:1038500010B50A79202A19D800F12F4000F5600030
:10386000000D154B53F8204001239340013B91F983
:103870000510002910DB0846C2F12002914218DC35
:103880008B40234201D04FF0FF3010BD0B4B0C4A50
:1038900043210C48FFF794FDC2F12000002805DB0E
:1038A00003FA00F22242F0D00138F7E76FF0080087
:1038B000EBE74FF0FF30E8E7D05D00207C560020BA
:1038C000245B0020A856002010B582B000F12F40E4
:1038D00000F56000000D8400074B0093E31C2246B6
:1038E0000648FDF73EFB844202DC001B02B010BD1F
:1038F0004FF0FF30FAE700BFF05600208064002050
:1039000070B504460E46FDF7F7FA054631462046E7
:10391000FFF706FF04462846FDF700FB204670BD72
:10392000F8B505460E46FDF7E7FA07463146284644
:10393000FFF78EFF041E04DA3846FDF7EFFA204643
:10394000F8BD224631462846FFF744FF0446F3E718
:10395000F0B59DF81470D0F86841121B1F2A43D8A7
:1039600001EB410400EBC404D4F8DC60D4F8CC5083
:1039700001EB4104E400C834044404F540544FF41E
:10398000003CC4F804C017B14FF01F0E15E04FF013
:10399000000E12E0540144F0A05401EB410C00EB86
:1039A000CC0CCCF8DC404EF4604444F08004CCF8FD
:1039B000D840053B053202F01F02052BEAD8520120
:1039C00042EA836301EB410200EBC202C2F8DC3041
:1039D0004EF4604343F08003C2F8D830C2F8DC6094
:1039E000C2F8CC500020F0BD6FF00400FBE7F0B54A
:1039F00087B005460C46164602680121A14022EA1E
:103A00000102026043B31A462146FFF747FE08BB96
:103A100004EB4403DB00D0332B4403F580534FF019
:103A200000421A601A604FF00133A340AB60221DC0
:103A3000012303FA02F205F500510A6004F10802BD
:103A400093400B6006F01F0604EB440405EBC4052D
:103A5000C5F8D86007B0F0BD01AF3846FFF708FEE3
:103A60003A4621462846FFF719FED0E703BD10B5B8
:103A70000446FEF757F9A04710BD4FF050431B6DA9
:103A800013F0020FF9D04FF05043586540BF704714
:103A900000E020BF4FF050431B6D13F0010FF8D032
:103AA0004FF05043986D70472DE9F04186B00446C1
:103AB0000F4690461920FDF7C3FA0646002119204B
:103AC000FDF7DEFA00250095019501230293CDF85C
:103AD0000C80049705940DE04FF050439B6D4FF020
:103AE00050431B6D13F0010FF6D140BF09E00135C3
:103AF000052D0FD806AB03EB850353F8184C002CAB
:103B0000EDD02046FFF7B9FFFFF7C2FF8442EED0A9
:103B10000025EDE731461920FDF7B2FA06B0BDE801
:103B2000F081000008B512F0030F11D122F003025A
:103B30008B180A4A926843F80C0C43F8081C084991
:103B400043F8041CA3F10C010648FFF7ADFF08BDC4
:103B5000054B064A89210648FFF732FC00ED00E0DC
:103B60005F3900205D3900201C590020785B00205F
:103B7000CC58002008B5064A064B9A4205D3114698
:103B80004FF40062FFF7CEFF08BD4FF0FF31F7E7BB
:103B900000080820A005082053B94AB9002908BF29
:103BA00000281CBF4FF0FF314FF0FF3000F0B2B9DA
:103BB000ADF1080C6DE904CE00F006F8DDF804E084
:103BC000DDE9022304B070472DE9F04F8C46099ED1
:103BD00004460F46002B48D18A4215465ED9B2FAF8
:103BE00082F33BB1C3F120029F409D409C4020FAEC
:103BF00002F217434FEA154E1FFA85FC220CB7FB61
:103C0000FEF10EFB117701FB0CF042EA07429042F5
:103C100007D9AA1801F1FF3702D2904200F2588169
:103C20003946121AA4B2B2FBFEF00EFB102200FBC2
:103C30000CFC44EA0244A4450BD92C1900F1FF32D4
:103C40002CBF01270027A44502D9002F00F0438193
:103C5000104640EA0140A4EB0C0400211EB1DC40F8
:103C60000023C6E90043BDE8F08F8B4206D90EB1B0
:103C7000C6E9000100210846BDE8F08FB3FA83F1E0
:103C8000002951D16345C0F01681824240F2138170
:103C90000846002EE7D0C6E90047E4E7002A00F016
:103CA000AF80B2FA82F3002B40F0C2808A1A4FEA4A
:103CB000154EAFB20121200CB2FBFEFC0EFB1C2204
:103CC00040EA024207FB0CF090420ED9AA180CF110
:103CD000FF382CBF4FF001094FF00009904203D983
:103CE000B9F1000F00F0F080C446121AA4B2B2FB82
:103CF000FEF00EFB102200FB07F744EA0244A74245
:103D00000ED92C1900F1FF322CBF4FF0010E4FF0ED
:103D1000000EA74203D9BEF1000F00F0D28010467A
:103D2000E41B40EA0C4099E7C1F120058B400CFAF6
:103D300001F400FA01F922FA05F72CFA05FC8A4091
:103D40001F4320FA05F3380C23431FFA87FE1C0C8F
:103D5000BCFBF0F800FB18CC44EA0C4408FB0EFC5A
:103D6000A4450ED93C1908F1FF3A2CBF4FF0010BC6
:103D70004FF0000BA44503D9BBF1000F00F0B88051
:103D8000D046A4EB0C041FFA83FCB4FBF0F300FB59
:103D9000134403FB0EFE4CEA0444A6450ED93C191D
:103DA00003F1FF302CBF4FF0010C4FF0000CA64583
:103DB00003D9BCF1000F00F09F80034643EA08409E
:103DC000A4EB0E04A0FB02EC64457346E04602D36C
:103DD00007D1F14505D2BEEB02036CEB070C0138AD
:103DE000E0465EB1B9EB030264EB080404FA05F5A2
:103DF00022FA01F3CC401D43C6E90054002132E70A
:103E000042082F464B08AC4642EAC172AE46C40790
:103E1000110C92B241EA034142EA0142B1FBF5F1D1
:103E2000B3FBF5F01F23A2EB0C0241EA004142E78D
:103E30009D40C3F1200299409C402CFA02FC4FEABD
:103E4000154E20FA02F2AFB2BCFBFEF80A430EFB9D
:103E500018CC110C41EA0C4108FB07FC8C4550D9E9
:103E6000691808F1FF302CBF4FF001094FF000092D
:103E70008C4502D9B9F1000F30D0A1EB0C01B1FB98
:103E8000FEF808FB07FC0EFB181192B242EA014251
:103E9000624534D2AA1808F1FF312CBF4FF0010956
:103EA0004FF000096245BED2B9F1000FBBD1A8F1B5
:103EB00002012A44B7E7841A6CEB0302012017467B
:103EC000E7E62C4402382BE7ACF1020C2A440CE75D
:103ED00002392A44A5E62C440238BAE6A5EB0C0CBC
:103EE000A8F102006144B1FBFEF808FB07FCCAE739
:103EF000A8F102083C4444E7023B3C445EE74146EB
:103F000091E7A1EB0C014046B1FBFEF808FB07FC72
:103F1000B9E700BF704700BF830730B546D08418AB
:103F2000844604E003F8011B9D0704D09C46A44589
:103F30006346F7D130BD013A0244A2EB0C02032ADA
:103F400029D9CCB20F2A04EB042404EB04442FD962
:103F5000A2F1100C03F110052CF00F0CAC44C3E9D6
:103F60000044C3E9024410336345F8D112F00C0F4A
:103F700002F00F0E18D02EF0030CAEF104051A4615
:103F80009C4442F8044B6245FBD125F00304043302
:103F90000EF003022344002ACCD0C9B21A4403F81D
:103FA000011B9342FBD130BD7246F4E70346C6E7DE
:103FB0009646E0E7844641EA000313F0030349D143
:103FC000403A23D30B6803604B6843608B6883607F
:103FD000CB68C3600B6903614B6943618B69836183
:103FE000CB69C3610B6A03624B6A43628B6A83626B
:103FF000CB6AC3620B6B03634B6B43638B6B836353
:10400000CB6BC36340304031403ADBD230320BD30C
:104010000B6803604B6843608B688360CB68C36048
:1040200010301031103AF3D20C3205D351F8043B62
:1040300040F8043B043AF9D2043208D0D2071CBF3E
:1040400011F8013B00F8013B01D30B880380604667
:10405000704700BF082A13D38B07B1D010F00303B9
:10406000AED0C3F10403D21ADB071CBF11F8013B29
:1040700000F8013BA4D331F8023B20F8023B9FE754
:10408000043AD9D3013A11F8013B00F8013BF9D2C7
:104090000B7803704B7843708B7883706046704761
:1040A00020F0030110F00300C0F1000051F8043BC0
:1040B00000F1040C4FEACC0C6FF000021CBF22FA96
:1040C0000CF213434FF0010C4CEA0C2C4CEA0C4C54
:1040D000A3EB0C0222EA030212EACC1204BF51F84D
:1040E000043B0430F4D0C2F1000102EA0102B2FA4A
:1040F00082F2C2F11F0200EBD2007047F8B500BF98
:104100001E4B70B41B681A6BD10728D501241C48BC
:104110001C4A1D491C63047050680E681B4D801BAF
:1041200018BF012010705068B0F5967F94BF002032
:1041300001205070287892F801C0C0B2A44519D06F
:10414000C0B1134804705078124CC0B2287008688F
:1041500000F00100207000200C68546008601A6BA9
:10416000920705D50221084A1963136801331360C9
:1041700070BC7047002406480470E4E7B45B00207C
:10418000D4F006209C5B002060BF0620AC5B0020C2
:10419000D1F00620AD5B0020294B10B41B681A6BD0
:1041A000910725D5022227491A63B1F88000B1F89A
:1041B000822080B292B290423FD0B1F8822092B277
:1041C00031F81200B1F8822080B292B2013202F0CE
:1041D0003F02A1F882201C4A5C681168012201F1AB
:1041E000100C02FA0CF2224204BF043143F8210001
:1041F0001A6BD2071ED5012214491A630968586840
:1042000008318A40024215D1114A53F82100B2F810
:104210008030B2F882109BB2013303F03F0389B2C1
:104220008B4280B206D0B2F8801089B222F8110019
:10423000A2F880305DF8044B70470020CBE700BF48
:10424000B05B002024E00620C4F00620C0F0062069
:10425000A0DF062001212DE9F0430446314A324B0C
:1042600015681A6805F11003994053680B42FCD198
:1042700040F29113012102EB850ECEF8103001FAC5
:1042800005F905EB45030835A94015684FF00048CE
:1042900045EA0905156048F280054AF2270C6FEAE5
:1042A00009075420DE00D03602EBC3031644C3F8DE
:1042B000D85006F50055C5F80080C3F8D8C053683B
:1042C0000B42FCD10138DEF82030F8D1A01E04F2F8
:1042D0009E5453681942FCD1DEF82030C3F3032CFE
:1042E0004FEADC0545EA4C0CC3F303154FEA950889
:1042F00048EA8505C3F3030865F34A1C4FEAD8056D
:1043000045EA480868F3CF2C20F802CFA042E0D15C
:104310004FF0004306F54056336013681F401760A6
:10432000BDE8F083C8F00620B45B00202DE9F04F13
:104330004FF480764FF40074384D83B02B680F2013
:1043400003F505531E633649FCF7ACFE01210F202F
:10435000FCF796FE2B68102003F50553DC63314D06
:104360002F49FCF79FFE01211020FCF789FE2B68E6
:10437000112003F505531E632B49FCF793FE012121
:104380001120FCF77DFE2B68122003F50553DC633A
:104390002549FCF787FE01211220FCF771FE4FF042
:1043A000000B4FF0010A214C214F224EDFF8909074
:1043B000214DDFF8908030BF2378002BFBD084F8AC
:1043C00000B087F800A07378F3B999F800302A6834
:1043D00012339A42F9D97378002293B140F21F1335
:1043E0009A42E8D015480192FFF734FF019A88F805
:1043F00000A098F80030002BFBD073780132002B1E
:10440000ECD1EE2AD7D8EDE773682A6803F00103F0
:10441000C3F113039A42F7D9DDE700BFB45B002074
:10442000F13F0020B05B002089400020D4F006203E
:10443000AE5B00209C5B002060BF062000000820CF
:10444000AD5B0020D3F006202DE9F04FB34BB4490B
:10445000B44A85B05960D3681B04FCD4AF4AB24952
:10446000B04BD160DC6814F40044FBD1AF4BB04AD0
:10447000DB6883F4407383F00303C3F30A03D36060
:10448000BFF35F8FAB4803AB02AA01A9FDF7DAFACD
:1044900018B9A849A848FCF717FD0198DDE90212F0
:1044A000FDF79EFA25462046FCF702FD45EC444008
:1044B00001212046FCF7CAFC2046002201210134DC
:1044C000FCF7A8FC302CEED11720FCF7F1FC1724E8
:1044D00045EC4440002220460121FCF79BFC0121D1
:1044E0002046FCF7B3FC1620FCF7E2FC162445EC52
:1044F0004440002220460121FCF78CFC012120468B
:10450000FCF7A4FC1520FCF7D3FC152445EC444033
:1045100000228A4D20460121FCF77CFC2046012127
:10452000874CFCF793FC10212868FFF7E9F98549CF
:104530002068FFF7F5F9844980462068FFF7F0F915
:10454000824907462868FFF7EBF981490646286843
:10455000FFF7E6F905464046FBF78AFE3846FBF7CB
:10456000F7FE3046FBF75CFF2846FBF7BFFF012252
:10457000784B2168186800F110039A404C68144089
:10458000FCD140F291164FF48855734A031D41F84F
:10459000236072481560FFF7EDFAFCF713FB204625
:1045A000FCF7E6FA00F0FEFB6D4B6E4FDFF8D4B17E
:1045B0006D4CDFF8D48103F29C5A3B78002B00F05D
:1045C000908000233B709BF80030002BFBD100F063
:1045D00052FA6378002B00F0DB8000F0E3FB00254B
:1045E0004FF4B46698F80030002B57D04FF4B46203
:1045F0005E495F48FFF7DEFC002388F8003023782F
:10460000002B00F05F815B4A637806FB0529002BD5
:104610006AD0594B1B78002B00F002814FF4B46232
:1046200053494F48FFF7C6FCE368032B00F2CF80E5
:10463000DFE813F0E101D701CD01BC004FF4B47302
:10464000474ADFF848C100BF106800EA0C014FEA92
:104650009101D0FA41F042F8040B013BF4D14FF440
:10466000B46222203E4900F02FFA9BF80030002B64
:10467000FBD14FF4B4624946222000F025FA4846A7
:104680004FF4B4623A49FFF795FC627840F21F1389
:10469000002A08BFEF230135AB4202D900F082FBAC
:1046A000A0E74FF4B4622220344900F00DFA9BF8E1
:1046B0000030002BFBD14FF4B46222202F4900F0D0
:1046C00003FA9BF80030002BFBD100F0E7F92C4BEC
:1046D00062781B789A4240F085806378284ADBB282
:1046E000137000F05FFB68E7234B1B78002B40F052
:1046F0009E804FF4B4621E491948FFF75BFCE368E3
:10470000032BACD801A252F823F000BFB14800201F
:104710009D480020894800202D45002000201040A1
:104720000020FE5A000010400200FE5A00000D401A
:1047300000100D40604F0500D8510020B05B0020F4
:10474000B45B002078590020A0590020585900205F
:1047500038590020C8F00620008006401D42002085
:1047600000100820AE5B00209C5B002000000820A9
:10477000A0150820606B0020AD5B0020DC5D0020F0
:10478000AF5B0020D2F00620D3F006209CE79CE728
:104790002F259BF80030002BFBD14FF4B462222070
:1047A000A74900F091F9013DF3D116E74FF4B47336
:1047B000A44ADFF8ACC200BF106800EA0C014FEA5F
:1047C0009101D0FA41F042F8040B013BF4D14FF4CF
:1047D000B46222209B4900F077F99BF80030002B4F
:1047E000FBD146E79BF80030002BFBD100F043F9EA
:1047F0004FF410759BF80030002BFBD14FF4B462DE
:1048000022208F4900F060F9013DF3D19BF8003080
:1048100003F0FF05002BF9D100F040F93D705CE793
:10482000E368032B1BD8DFE803F0B0A39609E36825
:10483000032B36D8DFE803F0887B6E244FF4B47383
:104840004A46DFF81CC200BF106800EA0C014FEABC
:104850009101D0FA41F042F8040B013BF4D14FF43E
:10486000B4624946222000F02FF99BF80030002B5B
:10487000FBD14FF4B4622220734900F025F9FEE623
:104880004FF4B4734A46DFF8D8C100BF106800EA9D
:104890000C014FEA9101D0FA41F042F8040B013BC0
:1048A000F4D14FF4B4624946222000F00DF99BF890
:1048B0000030002BFBD14FF4B4622220624900F09B
:1048C00003F9DCE64FF4B46222205F4900F0FCF803
:1048D000A368032B13D8DFE803F0ABA095024FF4D5
:1048E000B473594ADFF878C1106800EA0C014FEA46
:1048F0009101D0FA41F042F8040B013BF4D19BF84E
:104900000030002BFBD14FF4B46222204E4900F05E
:10491000DBF8BAE64D48A9F1040309F29C5153F8BB
:10492000042F00EA520299421A60F8D1B9E74848C8
:10493000A9F1040309F29C5153F8042F00EA9202F2
:104940008B421A60F8D1ACE74FF4B46200214846BC
:10495000FFF7E2FAA5E73D48A9F1040309F29C51EB
:1049600053F8042F00EA520299421A60F8D176E710
:104970003748A9F1040309F29C5153F8042F00EAC7
:10498000920299421A60F8D169E74FF4B4620021AB
:104990004846FFF7C1FA62E72E4B2C4953F8042F23
:1049A00001EA520253451A60F8D158E6294B2849CA
:1049B00053F8042F01EA92029A451A60F8D14EE6A4
:1049C0004FF4B46200211F48FFF7A6FA47E6214BD7
:1049D0001E4953F8042F01EA520253451A60F8D1D8
:1049E000F5E61C4B1A4953F8042F01EA92029A4546
:1049F0001A60F8D1EBE64FF4B46200211148FFF7DA
:104A00008BFAE4E6144B114953F8042F01EA5202E1
:104A10001A60124A9A42F7D171E70F4B0C4953F8CA
:104A2000042F01EA92021A600C4A9A42F7D166E713
:104A30004FF4B46200210448FFF76EFA5FE700BF4D
:104A4000DC5D002000100820A0150820EF7BEF7B24
:104A5000E739E739FC0F08209C1508203C1B08208B
:104A60009CE79CE708B54FF0A0430122C3F80C2453
:104A7000FBF7BCFD08BD00B583B0B823009300234D
:104A80008DF80430FBF7DCFE4FF0A043C3F800D0F4
:104A90000522DA6103B05DF804FB000000B583B0C5
:104AA000084B93E8030000908DF80410FBF7C8FE54
:104AB0004FF0A043C3F800D00522DA6103B05DF8DF
:104AC00004FB00BFD859002070B584B08C46144652
:104AD0000F4B93E8030002908DF80C104FF47F46C3
:104AE000ADF804600B4D04AB13E903002860297195
:104AF0006146681DFFF75EFA631DEE520734FBF74F
:104B00009FFE4FF0A0431D60DC6104B070BD00BF8C
:104B1000845200208464002084460023184603E069
:104B20003CF81320504001338B42F9DB7047000002
:104B3000F8B50746002414E00D4E4FF480552A4680
:104B400004F1805101F580113046FFF733FA294610
:104B5000204600F099FA2A463146204600F01EFB16
:104B60002C44BC42E8D301210846FDF769F8FEE772
:104B7000BCE0062070B588B0044601F10043023B5A
:104B800030F8136001F10043013B30F81350023953
:104B9000FFF7C2FF4EF6FF639D4240F0F080864271
:104BA00040F0ED8063881B0AA188E28842EA014256
:104BB0000792A3F11002182A00F28780DFE802F0C2
:104BC000414F6F8585858585858585858585858525
:104BD0000D13198585858585320021896948FCF783
:104BE000E9F8002397E021896748FCF7E3F8002300
:104BF00091E0684600250095019502950395634B69
:104C00001A788DF800205A788DF801205A680192A0
:104C10009A680292DB68039322891021FCF7BAF8A4
:104C20002B4678E02389190ADAB2B3F5A06F01D2D6
:104C3000564B9960042A69D8544BDA600020034629
:104C400069E04FF48011084600F01EFA504B4FF413
:104C500080121A6000234F4A136018465BE02489D3
:104C60004C4A1368591C11604B48250AC55402333D
:104C700013604454FF2B02D8002003464BE0444C01
:104C80004FF480720146206800F088FA236803F52B
:104C90008073236000233F4A136018463BE03D4B7E
:104CA0001868002802DC0798FFF742FF3A4CC0F56D
:104CB0008072FF212044FFF72FF94FF480722146C4
:104CC000334B186800F06AFAEDE7079941F6FE7277
:104CD00091421ED8012B04D0022B0CD000200223BD
:104CE00019E0079B2D4AD15C079B0133D05C40EA59
:104CF000012000230FE02189079B284A080AD0548D
:104D0000079B0133D1540020034604E000200346F2
:104D100001E00020012345F2AA52ADF81020ADF8C1
:104D200012300024ADF81440ADF81600042104A898
:104D3000FFF7F2FEADF818004EF6FF63ADF81A303B
:104D4000224608E01649B1F8800080B221F81040F0
:104D5000A1F880300132052A11DC08AB03EB4203D5
:104D600033F8104C0E49B1F880309BB2013303F098
:104D70003F03B1F8821089B28B42E3D1EAE708B071
:104D800070BD00BF8C520020945200209C5B00201C
:104D9000B85B00205C6A0020606A0020A0BF06208B
:104DA00024E0062008B5274BB3F8802092B2B3F870
:104DB00082309BB29A4243D0224AB2F882309BB2F0
:104DC00032F8130080B2B2F882309BB2013303F0A4
:104DD0003F03A2F882301C4B1B78BBB91B4A1368F7
:104DE000591C11601A4A22F8130001291CDD93781E
:104DF000063399421ADA154B1B68072BD3DD124B89
:104E000001221A70114B00221A60CCE745F2AA5316
:104E10009842C8D10D4A00231360012111600C4A49
:104E20001080094A1370BEE70623E2E70848FFF73F
:104E3000A1FE054B01221A70044B00221A60DAE72A
:104E400008BD00BFA0DF0620BC5B0020A8E0062054
:104E5000ACE0062000B503460068EFF3108272B69E
:104E6000D0E8CFEF5FF0010CBEF1000FF8D1C0E841
:104E70004ECFBEF1000FF3D1BFF35F8F93F9040063
:104E800000280ADB81B10860002019680023C1E80E
:104E90008F3F82F310885DF804FB4FF0504191F989
:104EA000001019710120F0E70020EEE7F8B51E466A
:104EB0000368002B27D0044615464FF0504393F962
:104EC00000702168EFF3108C72B6D1E8CF2F012368
:104ED000002AFAD1C1E8423F002AF6D1BFF35F8F22
:104EE00094F904E0BEF1000F13DB22680023C2E84E
:104EF0008F3F8CF3108828463146FCF747FC00288A
:104F0000DFD000200DE0074B074AA6210748FEF737
:104F100057FA277122680023C2E88F3F8CF310886C
:104F20000120F8BDB0530020085A0020685300202B
:104F300070B582B0064615461C4601A9FFF78AFFE8
:104F400038B99DF904204FF0504393F900309A424C
:104F500001D102B070BD2A4623463046FFF7A6FFB6
:104F6000F7E7000008B50268EFF3108372B6D2E8E5
:104F7000CFCF0121BCF1000FF9D1C2E84C1FBCF129
:104F8000000FF4D1BFF35F8F90F90420002A09DBF2
:104F9000FF22027101680022C1E88F2F83F310887D
:104FA00040BF08BD024B034AD5210348FEF708FA6B
:104FB000C4530020FC590020685300200A4B1B7882
:104FC00083B9002209E0930003F1804303F56023D5
:104FD0001968064B43F8221001323F2AF3DD024BD9
:104FE00001221A70704700BFD0F006207C630020B9
:104FF00008B5014B984708BD7D630020034B1A6A32
:1050000002609A6A42605B6A8360704700000D40EC
:1050100008B50023DB8A402144F24640984708B196
:10502000006808BD034B044A4FF493710348FEF730
:10503000C7F900BF145700203C5B00201857002020
:1050400010B50446FFF7E4FF1CB10088C0F303303D
:1050500010BD0C20FCE7000010B504460120FFF74E
:10506000EFFF38B92268074B1A6262689A62A26839
:105070005A6210BD034B4FF48052DA624AF20202C8
:105080001A63F6E700000D402DE9F04784B00B18D5
:10509000B3F1807F57D8074688460023DA8A002379
:1050A00043E800F313F4800F53D1102144F2496018
:1050B000904705460023DA8A002343E800F313F4FF
:1050C000800F4CD1102145F645009047044600233F
:1050D000DA8A002343E800F313F4800F45D110214E
:1050E00044F25250904706460023DA8A002343E8F0
:1050F00000F313F4800F3ED1102144F24630904764
:105100008246002D3CD0002C3AD0002E38D000280A
:1051100036D0FFF753FF00F0DDF80DF104094846E3
:10512000FFF76CFFA847A047D8234FF480324146D1
:105130003846B047D047FFF75BFF4846FFF78CFF84
:1051400004B0BDE8F087114B114A74211148FEF7F5
:1051500037F9042144F2496090470546AAE7042143
:1051600045F6450090470446B1E7042144F2525009
:1051700090470646B8E7042144F246309047BFE71F
:10518000054B034A7C210348FEF71AF964570020B7
:10519000645B002018570020905700202DE9F04F45
:1051A00085B01318B3F1807F56D8074689469046DC
:1051B0000023DA8A002343E800F313F4800F51D16F
:1051C000102144F24960904705460023DA8A002303
:1051D00043E800F313F4800F4AD1102145F645004F
:1051E000904704460023DA8A002343E800F313F4CF
:1051F000800F43D1102145F252009047064600230C
:10520000DA8A002343E800F313F4800F3CD1102125
:1052100044F2463090478246002D3AD0002C38D0D8
:10522000002E36D0002834D0FFF7C8FE00F052F828
:105230000DF1040B5846FFF7E1FEA847A047424690
:1052400049463846B047D047FFF7D2FE5846FFF7E9
:1052500003FF05B0BDE8F08F114B124A99211248A7
:10526000FEF7AEF8042144F2496090470546ACE7EA
:10527000042145F6450090470446B3E7042145F272
:10528000520090470646BAE7042144F24630904760
:10529000C1E7064B034AA1210348FEF791F800BF7E
:1052A00064570020505B002018570020F85700205A
:1052B000014407E0831803F1C0534FF0000C83F85A
:1052C00000C008308842F5D3BFF34F8FBFF36F8F14
:1052D0007047000008B501224FF480410148FFF7F4
:1052E000E7FF08BD00C0FF0353797374656D206349
:1052F0006C6F636B206F66202575206B487A206386
:10530000616E6E6F742062652065786163746C797C
:10531000206163686965766564000000636861699F
:105320006E5F746F203C3D204E554D5F444D415F94
:105330004348414E4E454C5300000000433A2F5520
:10534000736572732F636C6175642F2E7069636F60
:105350002D73646B2F73646B2F322E312E312F73AC
:1053600072632F7270325F636F6D6D6F6E2F686145
:105370007264776172655F646D612F696E636C75CD
:1053800064652F68617264776172652F646D612E48
:1053900068000000B822A0051E000000312E302E4B
:1053A0003000000038316330613632000A2A2A2A80
:1053B0002050414E4943202A2A2A0A000A000000B0
:1053C00030783163203D3D20282A696E7374293E70
:1053D0003E31317500000000433A2F5573657273FA
:1053E0002F636C6175642F2E7069636F2D73646B0E
:1053F0002F73646B2F322E312E312F7372632F7205
:1054000070325F636F6D6D6F6E2F6861726477616C
:1054100072655F6972712F6972712E6300000000FE
:1054200063757272656E74203D3D205F5F756E68B6
:10543000616E646C65645F757365725F697271201B
:105440007C7C2063757272656E74203D3D206861BE
:105450006E646C657200000031203D3D2028756946
:105460006E747074725F74296C2D3E7370696E5F18
:105470006C6F636B00000000433A2F5573657273C5
:105480002F636C6175642F2E7069636F2D73646B6D
:105490002F73646B2F322E312E312F7372632F6373
:1054A0006F6D6D6F6E2F7069636F5F73796E632FB1
:1054B0006D757465782E6300746F74616C00000004
:1054C0006D74782D3E636F72652E7370696E5F6CBC
:1054D0006F636B006C6F636B5F69735F6F776E6593
:1054E000725F69645F76616C6964286D74782D3EC3
:1054F0006F776E65722900006D74782D3E656E744D
:1055000065725F636F756E7400000000706F6F6C82
:105510002D3E74696D65725F616C61726D5F6E7551
:105520006D203D3D2074696D65725F616C61726DC7
:105530005F6E756D00000000433A2F5573657273FE
:105540002F636C6175642F2E7069636F2D73646BAC
:105550002F73646B2F322E312E312F7372632F63B2
:105560006F6D6D6F6E2F7069636F5F74696D652FFE
:1055700074696D652E63000064656661756C745FA7
:10558000616C61726D5F706F6F6C5F696E69746979
:10559000616C697A656428290000000048617264C2
:1055A0007761726520616C61726D20256420616C89
:1055B000726561647920636C61696D6564000000E7
:1055C00076636F5F66726571203E3D205049434FA0
:1055D0005F504C4C5F56434F5F4D494E5F465245BE
:1055E000515F485A2026262076636F5F6672657188
:1055F000203C3D205049434F5F504C4C5F56434F39
:105600005F4D41585F465245515F485A00000000C7
:10561000433A2F55736572732F636C6175642F2E37
:105620007069636F2D73646B2F73646B2F322E312F
:105630002E312F7372632F7270325F636F6D6D6FD7
:105640006E2F68617264776172655F706C6C2F7029
:105650006C6C2E63000000006662646976203E3D3B
:10566000203136202626206662646976203C3D2063
:105670003332300028706F73745F64697631203E76
:105680003D203120262620706F73745F6469763167
:10569000203C3D2037292026262028706F73745F18
:1056A00064697632203E3D203120262620706F73BB
:1056B000745F64697632203C3D2037290000000089
:1056C0007265665F66726571203C3D202876636F67
:1056D0005F66726571202F2031362900446562753E
:1056E00067000000626F6F74325F77323571303857
:1056F00030000000302E3100322E312E31000000FB
:1057000070696D6F726F6E695F70676132333530CB
:10571000000000004672616D657468726F77657293
:105720005F44656E697365004465632032342032DE
:1057300030323500666E692B00000000666E69002D
:105740006E616E00666E692D000000002C2066758B
:105750006E6374696F6E3A200000000061737365B8
:105760007274696F6E2022257322206661696C65F0
:10577000643A2066696C6520222573222C206C69AE
:105780006E65202564257325730A000070726F67AB
:1057900072616D2D3E6C656E677468203C3D2050D3
:1057A000494F5F494E535452554354494F4E5F43FE
:1057B0004F554E5400000000433A2F5573657273E5
:1057C0002F636C6175642F2E7069636F2D73646B2A
:1057D0002F73646B2F322E312E312F7372632F7221
:1057E00070325F636F6D6D6F6E2F68617264776189
:1057F00072655F70696F2F70696F2E630000000023
:105800004E6F2050494F207374617465206D616341
:1058100068696E65732061726520617661696C618B
:10582000626C650070000000433A2F557365727317
:105830002F636C6175642F2E7069636F2D73646BB9
:105840002F73646B2F322E312E312F7372632F72B0
:1058500070325F636F6D6D6F6E2F68617264776118
:1058600072655F666C6173682F666C6173682E6326
:1058700000000000666C6173685F6F666673202BC2
:1058800020636F756E74203C3D205049434F5F4646
:105890004C4153485F53495A455F42595445530060
:1058A000636F6E6E6563745F696E7465726E616C52
:1058B0005F666C6173685F66756E6320262620667E
:1058C0006C6173685F657869745F7869705F66752D
:1058D0006E6320262620666C6173685F72616E6756
:1058E000655F65726173655F66756E63202626204D
:1058F000666C6173685F666C7573685F636163682B
:10590000655F66756E630000636F6E6E6563745FDE
:10591000696E7465726E616C5F666C6173685F66F8
:10592000756E6320262620666C6173685F657869F2
:10593000745F7869705F66756E6320262620666CDA
:105940006173685F72616E67655F70726F677261C5
:105950006D5F66756E6320262620666C6173685FD6
:10596000666C7573685F63616368655F66756E63B7
:1059700000000000636F6E6E6563745F696E74652E
:10598000726E616C5F666C6173685F66756E6320D2
:10599000262620666C6173685F657869745F786934
:1059A000705F66756E6320262620666C6173685F83
:1059B000666C7573685F63616368655F66756E6367
:1059C00000000000216C6F636B6F75745F696E5F20
:1059D00070726F677265737300000000433A2F5551
:1059E000736572732F636C6175642F2E7069636FBA
:1059F0002D73646B2F73646B2F322E312E312F7306
:105A000072632F7270325F636F6D6D6F6E2F70698E
:105A1000636F5F6D756C7469636F72652F6D756C04
:105A20007469636F72652E6300000000212873742F
:105A300061636B5F73697A655F6279746573202651
:105A40002033752900000000405900200BFF01029F
:105A500015200840784046A0A9006BA007A001C00F
:105A6000A080952063A00000605900200BFF010278
:105A700015200840784046A0AA00952018407040A4
:105A8000208000C0952000008059002010FF0100F8
:105A9000A020202001C03FE0C00042A2440000C07E
:105AA000403FA02052E03FE042A34C008B000000AA
:105AB000A859002009FF01029725172597251620D0
:105AC0009627004016270040440000006368616E7E
