:020000041000EA
:10000000002008205D0100101301001015010010F0
:100010001101001011010010110100101101001058
:100020001101001011010010110100101701001042
:100030001101001011010010190100101B01001026
:100040001D0100101D0100101D0100101D010010F8
:100050001D0100101D0100101D0100101D010010E8
:100060001D0100101D0100101D0100101D010010D8
:100070001D0100101D0100101D0100101D010010C8
:100080001D0100101D0100101D0100101D010010B8
:100090001D0100101D0100101D0100101D010010A8
:1000A0001D0100101D0100101D0100101D01001098
:1000B0001D0100101D0100101D0100101D01001088
:1000C0001D0100101D0100101D0100101D01001078
:1000D0001D0100101D0100101D0100101D01001068
:1000E0001D0100101D0100101D0100101D01001058
:1000F0001D0100101D0100101D0100101D01001048
:100100001D0100101D0100101D0100101D01001037
:1001100000BE00BE00BE00BE00BE00BEEFF3058004
:10012000103800BEF2EB8871143200103432001027
:10013000A801001090A31AE7D3DEFFFF42012110AF
:10014000FF010000E83F0000793512AB4FF00000DE
:100150002049086006C881F3088810474FF05040D6
:10016000006810B14FF00000F2E70FA40ECC002998
:1001700002D000F015F8F9E71749184A002000E00E
:1001800001C19142FCD1002080F30A8814498847BC
:10019000144988471449884700BEFDE701C901C2D8
:1001A0009A42FBD3704700BF343200101001002088
:1001B000A00E0020C43F0010000008205C010820B1
:1001C000204100100010082000100820000000004E
:1001D0007047000008ED00E0A00E002098250020E8
:1001E000A51F0010F50800109D1F0010F8B500BFF6
:1001F000064B0749C91A891048BF0131491003D07D
:10020000044B0BB101481847704700BFA00E0020F7
:10021000A00E00200000000008B5054B1BB10549E9
:100220000548AFF30080BDE80840FFF7E1BF00BF1D
:1002300000000000442500206430001038B5114C47
:100240000021204600F0E2FDE2682368011E03EB76
:10025000820E12DD0C4D0D4C2B68C818002203F0E5
:100260001F0C34F91CC001336CF30F026CF31F42F6
:1002700098424EF8042BF1D12860024800F0DCFDD2
:10028000012038BDDC1C00208025002064300010D7
:100290002DE9F04301230022112402200821C5B0DA
:1002A000CDE90204CDE9003105A8114600F02AFD90
:1002B000002305A91A460EA800F078FD41F20C03B0
:1002C0002148242141F214028646204C0360204B31
:1002D0004460204E1AA5D5E90045C0E904451E4DED
:1002E00081618260C3600DF1340C1FACA1F2244126
:1002F0005CF8048F0EF1080EDCF84830DCF89070E2
:1003000006EA832205EA07590B4042EA090243EA5A
:100310009823C8F30909BF0A42EA090243EA0753CE
:10032000A445CEE90523E3D141F214312D22074C37
:100330000A4BC0E92B141A6045B0BDE8F08300BF3A
:100340000810000054AFB20A38160020AB504D35EB
:1003500054534D3500FC0F000000F03F3C1D0020C1
:100360002DE9F043C1B04BF6803101A800F096FCB6
:10037000002301A91A460AA800F018FD41F20C0357
:100380002148242141F214028646204C0360204B70
:100390004460204E1AA5D5E90045C0E904451E4D2C
:1003A00081610DEB010C8260C3601BACA1F22441A2
:1003B0005CF8048F0EF1080EDCF84830DCF8907021
:1003C00006EA832205EA07590B4042EA090243EA9A
:1003D0009823C8F30909BF0A42EA090243EA07530E
:1003E000A445CEE90523E3D141F214312D22074C77
:1003F0000A4BC0E92B141A6041B0BDE8F08300BF7E
:100400000810000054AFB20A38150020AB504D352B
:1004100054534D3500FC0F000000F03F381D002004
:100420002DE9F043C1B04FF4C05246F6781101A84F
:1004300000F0F4FB002301A91A460AA800F0B6FC5C
:1004400041F20C032248242141F214028646214C39
:100450000360214B4460214E1BA5D5E90045C0E94E
:1004600004451F4D81610DEB010C8260C3601BAC24
:10047000A1F224415CF8048F0EF1080EDCF848303C
:10048000DCF8907006EA832205EA07590B4042EA3D
:10049000090243EA9823C8F30909BF0A42EA09029C
:1004A00043EA0753A445CEE90523E3D141F21431D1
:1004B0002D22084C0B4BC0E92B141A6041B0BDE84B
:1004C000F08300BFAFF300800810000054AFB20A01
:1004D000A00E0020AB504D3554534D3500FC0F009D
:1004E0000000F03FD41800202DE9F04FDFF830B3C2
:1004F000C74CDBF80810DBF80030C3B0042203EB74
:10050000810103A8236802F083FD034604215846B5
:10051000236000F09BFC012303A91A460CA800F0FD
:1005200045FC41F20C02BB4B9FEDB57B1A6041F2DA
:1005300014029A6024226FF4AB780BAC1F469E46DF
:10054000214683ED047B9A61B34ACDE900345A60B9
:10055000DFF8D8924244B148DFF8C882DA601DADB6
:1005600051F8044F0EF1080E8B6CD1F8906009EA37
:10057000832208EA065A034043EA9423C4F3090C91
:1005800042EA0A02B60A42EA0C0243EA06538D42E4
:10059000CEF81420CEF81830E2D1DBF80810DBF8E2
:1005A00000300422DDE9006403EB8101984B03A8CD
:1005B0001B6802F02DFD0346954A042198481360FC
:1005C00000F044FC012303A91A460CA800F0EEFB3E
:1005D00041F208034FF0240CC7F8AC308E4B214693
:1005E000C7E92C3C8B4FCDE90064BE46DFF83CA246
:1005F000DFF83092894851F8044F0EF1080E8B6CE9
:10060000D1F890600AEA832209EA0658034043EAD7
:100610009423C4F3090C42EA0802B60A42EA0C0227
:1006200043EA06538D42CEF8B020CEF8B430E2D182
:10063000DBF80810DBF800300422DDE9006403EB8E
:100640008101734B03A81B6802F0E2FC0346704A69
:1006500004217348136000F0F9FB012303A91A4633
:100660000CA800F0A3FB2423C7F8503166A3D3E9FC
:100670000023C7E95223674F2146BE46CDE90064F7
:10068000DFF8A8A1DFF89C91644851F8044F0EF1FF
:10069000080E8B6CD1F890600AEA832209EA0658AA
:1006A000034043EA9423C4F3090C42EA0802B60A61
:1006B00042EA0C0243EA0653A942CEF84C21CEF896
:1006C0005031E2D1DBF80810DBF800300422DDE91C
:1006D000006403EB81014E4B03A81B6802F098FCF9
:1006E00003464B4A04214E48136000F0AFFB012340
:1006F00003A91A460CA800F059FB41F20803242173
:10070000C7F8E431444BCDE90064C7E97A31414F81
:100710002146BE46DFF814A1DFF808913F4851F8A2
:10072000044F0EF1080E8B6CD1F890600AEA832218
:1007300009EA0658034043EA9423C4F3090C42EA49
:100740000802B60A42EA0C0243EA0653A942CEF86E
:10075000E821CEF8EC31E2D1DBF80810DBF800300C
:100760000422DDE9006403EB8101294B03A81B6827
:1007700002F04EFC0346264A04212948136000F08B
:1007800065FB012303A91A460CA800F00FFB1EA16C
:10079000D1E900012423BA46C7E9A001DFF88CC0E3
:1007A00020481E4AC7F8883254F8048F0836A36CD4
:1007B000D4F890700CEA832100EA0759134041EA0B
:1007C000090143EA9823C8F309094FEA972E41EA41
:1007D000090143EA0E53AC42C6E9A113E4D141F248
:1007E00064204FF47041CA220B4BCAF81C03CAF8AC
:1007F00020330D4BCAF824131A6043B0BDE8F08FC4
:1008000008100000ABAEB20A08100000AB524D3524
:10081000301D0020A00F0020AB524D3500FCFFFF23
:10082000DC1C00200000F03FD818002000FC0F0066
:100830002DE9F84F274EDFF8B490274DDFF8B08050
:10084000264C4FF05042536813F4000BFBD1D8F8FC
:10085000281053681F02FCD5D8F828305B1A132BD8
:10086000F1D91527013FBFB202F0C2FB002FF9D129
:100870004FF0A04AD9F80030194A1A4F136002F01D
:10088000B7FB4FF4B4722B68CAF880605B44CAF8B7
:100890008430CAF88820CAF88C40DAF890305801C1
:1008A000FBD40BF5B46BBB45E9D14FF05043D9F8FD
:1008B00000200D490A605A681102FCD4D8F82810AB
:1008C0005A681202FCD5D8F82820521A132AF2D8F6
:1008D000B7E700BFCE1D00202C1D002059407E0030
:1008E000842500200054060088250020B008002040
:1008F00000000B402DE9F04F002425468FB0204624
:1009000000F0F0FA4FF0000343EC44400022204690
:100910001146013400F0C2FA302CF0D1322000F040
:1009200027FF01F099F9162001F074F9322000F048
:100930001FFF9B4A9B4B3220DA6000F019FF3220E8
:1009400000F016FF984801F0D9FA984B984C1860BF
:10095000FFF79EFCFFF704FDFFF762FD4FF4807286
:100960009449954800F04CFA00F05AFECDE9015444
:10097000002492494FF4FA620023009100F0D0FF66
:10098000642000F0F5FEFFF7AFFD012225468C4BF9
:100990001A60204600F0A6FA45EC444001212046AA
:1009A000013400F08FFA0C2CF3D1142000F09AFAE5
:1009B000142745EC4470172000F094FA172645ECF4
:1009C0004460162000F08EFA162445EC44400121C4
:1009D000384600F077FA0121304600F073FA2046DD
:1009E000012100F06FFA0820764B774D18606B6D8F
:1009F000764C83F0200303F0E0036365AB6D74492C
:100A000083F4003303F44033724AA36508609368AB
:100A1000DB4313F00803FAD14FF400374FF44036AC
:100A20004FF4807540F60A3041F214510C246A4AA2
:100A3000DFF8D4C1C2F828C0DFF8D0C1C2F824C0A2
:100A40001360664B1360664BD76016615560936008
:100A500003F60A23D061136203F60A2351619361FE
:100A600020460021013400F0FBF9142CF8D14FF09E
:100A7000A04407220323DFF898C15A4E5A4D5B4F1A
:100A800026600A2065605A49A260C4F810C0266436
:100A90006564A2642765C4F80C34C4F8043400F01B
:100AA0004BFB01210A2000F021FB01274FF4885263
:100AB000504BDFF8609150481A605049C4F85074A8
:100AC000C9F8000001F0CEFB39460646D9F800000F
:100AD00001F0ACFB4FF44023F201089305924FF470
:100AE000F8334FF480324FF0000E0546CDE906236F
:100AF000DFF824B1CDF800E0CDF824E00DF1280CAA
:100B000006ACCBF8000094E80F008CE80F0006F16B
:100B10000A0A4FEA0A3AD9F800804AEAC6130B9348
:100B20009CE80F0084E80F007246294620234046C7
:100B300001F012FC23464FF48074079905986FF377
:100B4000D011014341EA0A0107910899324621F088
:100B5000FA7121F4803141F4A811089140462946E8
:100B600001F040FCD8F80030D9F80060DBF8002034
:100B700007FA05F523EA0503C8F8003007FA02F280
:100B800006F505531C630F201D49326300F0D4FAAB
:100B90000F20394600F0AAFA1A4801F0C3FCFEE71C
:100BA0000402004000000D40005406002C1D0020EF
:100BB000A0130020DC180020DC1C00203D020010E7
:100BC000EC1C002000200240000001400010014009
:100BD000003002400000024000000C4003020550BB
:100BE00000010100FC0800200400605019006800AA
:100BF000010008200080064000002050A4300010B2
:100C0000110100203108001068646000000110022A
:100C1000192068005C2500209025002030B50024B4
:100C2000A4461C4B4FEA214E6EF3070C5FFA8EFE72
:100C300013F80EE00471C1F3072484EA0E0E13F8D2
:100C40000EE0C9B281EA0E0E64F30F2C61F3174C6B
:100C500013F80E10C2F3074E8EEA0101595C6EF3D1
:100C60001F6CC0F805C0C2F3072C8CEA0101595C67
:100C7000D2B251405B5C827280F809C0C372426894
:100C80008368054DC2600560036142618361C26192
:100C9000036230BD100600200100004A38B51D2255
:100CA00005460C460730002101F030FF4BF680333B
:100CB0004FF4C2710A229C422980AA701ED04AF6C3
:100CC0004443E31AB3FA83F35B09DB0043F0010307
:100CD00011204A24DBB20A4AC3F16001C9B229716A
:100CE000515CAB714140515CEC704B40D35C68711E
:100CF000D35CD35CD35CD35CEB7238BD0D23E7E7E8
:100D00001006002010B59DF8084041EA42114FEA54
:100D1000831C9DF90C204CEA041C42EA0C0C0132A5
:100D200018BF0122002341EA02119DF810E0C9B268
:100D30005FFA8CFC01F191024FEA8E0E9DF814408F
:100D40005FFA8EFE6244724422445242D2B2C0F82C
:100D50000930C0F81D30C0F80D30C0F81130C0F8AF
:100D60001530C0F81930036262F3070361F30F23F3
:100D70006CF317436EF31F6343600A4B04729A5C73
:100D800051405A5C8CEA020C13F80C208EEA020ED9
:100D900013F80E2054401A5D9A5C9B5CC372024BA0
:100DA000036010BD1006002082020DE4F8B51D4658
:100DB00004460F4645EA4202DFF840C042F00C010B
:100DC0003CF811500C4E45EA8525012305608664E8
:100DD000C0F89060211D384602F012F9384604F13F
:100DE000940204F14C0102F0FFF86564C4F88C60D1
:100DF000C4F8D460F8BD00BF33CD0400F005002076
:100E00000023C0E900128360C3607047BFF35F8FA7
:100E10008368C268934202D9013B981A70474068C0
:100E2000801A29B9B3FA83F35B095B42184470470F
:100E3000013B1844704700BFC26843680A44013B45
:100E40001340C360BFF35F8F704700BF8268436881
:100E50000A44013B13408360BFF35F8F704700BFBC
:100E600010B44FF480740C4B53F8202003EB800334
:100E7000C00082F0400200F1804003F5805C02F087
:100E8000C00200F5203003F54053CCF8002041604B
:100E90001C605DF8044B70470480034010B4084C9C
:100EA000C90041EA820154F8202004EB800351403C
:100EB00003F5805301F00C015DF8044B1960704795
:100EC00004800340064B022203EB800319B103F5B3
:100ED00000531A60704703F540531A60704700BF13
:100EE0000480034030B44FF0000343EC440043EC73
:100EF000400005254FF480740B4BC20053F82010BE
:100F000003EB800081F0400102F1804303F52033C0
:100F100001F0C00200F5805100F540500A605D60AC
:100F2000046030BC704700BF048003400FB400B5BC
:100F300083B0049C074801F05BF93CB105A9204649
:100F4000019100F0FBFF044801F052F9012001F08B
:100F50000DF800BFE4300010F4300010EFF3108003
:100F600072B6064BD3E8CF1F01220029FAD1C3E89D
:100F7000412F0029F6D1BFF35F8F7047B3180020CF
:100F80000023034AC2E88F3F80F31088704700BFF8
:100F9000B318002070B58646EFF3108572B6124C78
:100FA000D4E8CF6F0120002EFAD1C4E8460F002EFE
:100FB000F6D1BFF35F8F4FF0010CC80801F00703B3
:100FC0000CFA03F31EF800C01CEA030608D14CEA31
:100FD000030C0EF800C0C4E88F6F85F3108870BD55
:100FE0001046FFF7A3FF00BFB3180020F8B5EFF3DA
:100FF000108772B61C4ED6E8CF5F0124002DFAD1BF
:10100000C6E8454F002DF6D1BFF35F8F9A421BD83B
:10101000012502E00132934222D3D40810F804E003
:1010200002F0070C05FA0CFC1EEA0C0FF2D14EEA96
:101030000C0E00F804E010460023C6E88F3F87F34B
:101040001088984207DBF8BD0023C6E88F3F87F37E
:1010500010884FF0FF300029F5D00698FFF766FFA3
:101060004FF0FF30E8E700BFB3180020044A1078C3
:10107000431CDBB2182B28BF10231370704700BF2E
:10108000180900204FF0E022936843F0005393606A
:10109000704700BF0021044B03F12002C3E88F1FFB
:1010A00001339342FAD17047A81800204FF0E02393
:1010B0004FF08032C3F80024C3F80424C3F8082496
:1010C000C3F80C24C3F81024C3F81424C3F818245C
:1010D000C3F81C24C3F82024C3F82424C3F828240C
:1010E000C3F82C24C3F83024704700BF012300F05C
:1010F0001F029340400941B1800000F1604000F5BB
:101100006140C0F8803103607047024A203042F8E5
:101110002030704700E100E00123064A410952F8FF
:10112000212000F01F0003FA00F01040003818BF23
:101130000120704700E100E0F8B50D46EFF310879D
:1011400072B6124ED6E8CF2F0123002AFAD1C6E894
:10115000423F002AF6D1BFF35F8F0D4B00F1100420
:101160009B680C4A53F82430934203D0994201D033
:1011700000F0C4FD064B9B6843F82450BFF35F8F1B
:101180000023C6E88F3F87F31088F8BDB118002010
:1011900000ED00E01D010010014B0B44036070479F
:1011A000A818002070B5104C104DAC420ED2FF268E
:1011B000236863B1FFF75AFF01462046FFF7ECFFB3
:1011C000A680BFF35F8F0834AC42F1D370BDFFF748
:1011D0004DFF01462046FFF7DFFF2671BFF35F8F0B
:1011E0000834AC42E4D370BD900E0020A00E002065
:1011F0000D4B1A68EFF3108172B6D2E8CFCF012001
:10120000BCF1000FF9D1C2E84C0FBCF1000FF4D1D2
:10121000BFF35F8F00221B68C3E88F2F81F3108814
:1012200040BF0020002170478C25002000000000F6
:101230002DE9F04F2DED028B85B0EFF30583DBB286
:10124000103B9A0818BF01224FF0010103F0030B75
:1012500018BFAF4DAF4B08BFAF4D0BEB820253F839
:10126000226001FA0BF205F541539FEDA78B019225
:101270005A602FE0B3881C0440F19380B379002BAF
:1012800040F0DD80B6F90820002AC0F21E817369A3
:1012900002EB420203EBC203D3E90247B7F1FF3F7F
:1012A00008BFB4F1FF3F0ED005EB8B01AB6A0A69B2
:1012B000D21AE31A934205D301232A6A03FA0BF3E5
:1012C000134200D10C61284600F0CCFBA042B9418A
:1012D000C0F2FB80B6F90830019A002B0093EA6354
:1012E000C8DBD6F8148003EB4309284608EBC9078E
:1012F000D7E9024A00F0B6FBA04271EB0A01B9DB64
:10130000BAF1000FC0F2C380D7E90431834A934297
:1013100000F0ED807A88B6F9080092B242EA004007
:10132000984702460B4652EA030100F0B080002BBA
:1013300080F2D180B4EB020E6AEB030A38F939303F
:10134000C7E902EA002B95DB716903EB430201EB6D
:10135000C202D2E90270BE457AEB000C4FEA4302AA
:1013600088DBB4462CF8083F06E003EB430001EBB2
:10137000C0005A00D0E90270BE451A447AEB000062
:1013800001EBC20404DB31F93230A446002BECDA65
:1013900028F83930009BACF80030B3881C043FF5C6
:1013A0006DAF3369EFF3108272B6D3E8CF0F01212E
:1013B0000028FAD1C3E8401F0028F6D1BFF35F8FA1
:1013C0004FF6FF74B0880023316900B2B480C1E8E1
:1013D0008F3F82F310889842FFF650AF0746A94628
:1013E000746906F1080807EB470E04EBCE03D3E956
:1013F0000250B6F90830C446002B13DBB246009702
:1014000004E034F936309446002B09DB03EB430645
:1014100004EBC602D2E90271BD4270EB0101F0DAC1
:101420005646009FACF8007034F93E7024F83E3008
:10143000002FD8DAB3794D46002B3FF423AF0023B9
:10144000B371B6F9083006F10808581C3DD01A46A9
:10145000776903E08046591C3FF416AF03EB430164
:1014600007EBC100B0F802C01C461CF4004F9E46BA
:1014700037F93130EED0944280ED028B05D0A8F8D8
:101480000030328927F8312034817246E3E738F89A
:10149000393033813369EFF3108272B6D3E8CF0F5E
:1014A00001210028FAD1C3E8401F0028F6D1BFF37C
:1014B0005F8F7388316928F83930009B738000236F
:1014C000C1E88F3F82F31088D4E640BF05B0BDEC81
:1014D000028BBDE8F08F2846CDE9022300F0C2FA66
:1014E000029A039B10EB020E43EB010A26E7084623
:1014F0000B69029198470028C9D00299D1E90023CD
:1015000011E700BFAFF30080FFFFFFFFFFFFFFFF0A
:1015100000800B406025002000000B4031120010BD
:101520002DE9F84F364C25692DB1BDE8F84F0A2159
:101530003448FFF731BEDFF8E4800321404600F075
:101540007FFA0326C4F80C80FFF790FD4FF0504C53
:101550002D4B267003442361DCF800300F216370AB
:10156000636961801D834FF00405A3F878504FF044
:101570000505A3F890504FF00605A3F8A8504FF0CA
:1015800007050E214FF6FF7208274FF00A0EA3F849
:10159000C0504FF001094FF00C0C4FF0020B4FF010
:1015A000090A0D204FF00B05A3F868111749A28016
:1015B000A3F808E1A160A3F848B0A3F8F0A0A3F84D
:1015C0002051A3F838C1A3F85001A3F83090A3F834
:1015D0006060A3F8D8701A800D4B3046C8F82070B0
:1015E0000C49DC60FFF7A8FD49463046FFF77EFD59
:1015F000094B0A211F640348BDE8F84FFFF7CCBD33
:101600001C0900208C250020A8180020FFFF1000D6
:10161000602500203112001000200B4000000B401C
:10162000004870471C0900200146F0B50069EFF33F
:10163000108772B6D0E8CF5F0124002DFAD1C0E840
:10164000454F002DF6D1BFF35F8FB1F902E04C6931
:101650000EEB4E0CBEF1000F4FEACC05086904EB0F
:10166000CC0C3CDB665B4E800026C0E88F6F87F3B6
:101670001088BCF80200CCE902230130C0F30E0050
:10168000012838BF0120059BACF80200CCF81030CF
:10169000069B40EA0E40CCF814300B69EFF3108241
:1016A00072B6D3E8CFCF0127BCF1000FF9D1C3E860
:1016B0004C7FBCF1000FF4D1BFF35F8F8B88635375
:1016C000A1F804E00B69C3E88F6F82F31088012250
:1016D000CB68097803F501538A405A60F0BD0023B6
:1016E000C0E88F3F87F310884FF0FF30F0BD00BF98
:1016F00003464089B0EB214F37DD58690A1402EBED
:10170000420210B500EBC2001C69EFF3108C72B6F8
:10171000D4E8CFEF0122BEF1000FF9D1C4E84E2F7B
:10172000BEF1000FF4D1BFF35F8F428889B292B24D
:101730008A4207D000221B69C3E88F2F8CF31088E0
:10174000002010BD42F400424280012100221869AD
:101750009971C0E88F2F8CF310881C78DA680846DE
:1017600002F50153A140596010BD0020704700BF31
:101770002DE9F04182B0064600F07CF94FF47A730F
:1017800004464FF0FF306FF00042E6FB0341A042F9
:1017900072EB01033ABF044615460D46A61F45F1FC
:1017A000FF37B44275EB07033CBF0026374600F015
:1017B00061F9301A67EB0101012871F1000106DAC5
:1017C0002046294602B0BDE8F04100F05DB900F0C6
:1017D00051F9864267EB010100290ADB0021174B12
:1017E0003246009316483B460191FFF71DFF01303A
:1017F000E6D04FF0000C134A1349536A9F4204D8B5
:10180000906AB042DCD29F42DAD10B68EFF31080CD
:1018100072B6D3E8CF8F5FF0010EB8F1000FF8D1A8
:10182000C3E848EFB8F1000FF3D1BFF35F8F0B6847
:10183000C3E88FCF80F3108820BFDEE7F1110010DE
:101840001C09002000000B408C2500202DE9F043EE
:1018500006460D4683B0EFF30584E4B23CB12D4B50
:101860005A6AAA421CD2002003B0BDE8F0832A4F76
:10187000D7F80C9097F80080484600F0F3F808F18C
:10188000040859F828301B1A301A65EB01019842F8
:1018900071F1000110DB20BF1E4B5A6AAA42E2D34D
:1018A00014BF012400249B6AB34234BF204644F095
:1018B000010003B0BDE8F08300F0DCF8864265EB80
:1018C0000101002914DB154B3846CDE900343246BE
:1018D0002B46FFF7A9FE011E0ADD0E4B5A6AAA42EB
:1018E00016D39B6AB34211D30B48FFF701FFB6E74B
:1018F000084B5C6AAC42B6D3641B18BF01249B6AD8
:10190000B34234BF204644F00100ADE7AA42EBD118
:1019100020BFE9E700000B401C090020F111001076
:101920002DE9F0410446DDE9071552EA030072D0C3
:10193000002B16461F4673DB0698C5E90023286175
:10194000AC60696100F096F84FF0FF326FF0004331
:10195000801947EB0107824273EB07013CBF1F462A
:1019600010462369EFF3108272B6D3E8CF6F0121DE
:10197000002EFAD1C3E8461F002EF6D1BFF35F8FC9
:10198000B4F90210666901EB410300294FEAC30C68
:10199000D4F8108006EBC30346DB36F80CE0A4F85D
:1019A00002E04FF0000EC8E88FEF82F310885A88EB
:1019B000C3E902070132C2F30E02012A38BF012235
:1019C0001E485A805D61186142EA01422369EFF3C3
:1019D000108072B6D3E8CF8F0127B8F1000FF9D18C
:1019E000C3E8487FB8F1000FF4D1BFF35F8FA3883D
:1019F00026F80C30A1802369C3E88FEF80F31088AC
:101A000001202178E36800FA01F103F501535960E0
:101A1000EA60BDE8F0810126002732463B468BE7AD
:101A2000564263EB430787E70020C8E88F0F82F335
:101A300010884FF0FF32EA60BDE8F08131120010EB
:101A400010B4054B054C064AA04214BF1846581C5A
:101A50005DF8044BFFF79EBAF01C002000800B409D
:101A6000F83000100346416A0A46986A596A8A4269
:101A7000FAD17047034B596A0A46986A596A9142EB
:101A8000FAD1704700000B40074A536A9942FCD8CC
:101A9000994207D1044B02E05A6A914202D19A6AF4
:101AA0009042F9D8704700BF00000B4000EB400C9B
:101AB0004FEA8C0C0CF1804C0CF5803CF0B51646CE
:101AC000DCF80420051FB2F5803F38BF4FF48032A8
:101AD000EDB238BFCCF80420012D2AD94FF40067AD
:101AE000254C0CF54052176054F82020B2B9DCF8B0
:101AF0000020012D82EA461202F0E0020CF5805629
:101B000032602AD94FF4006144F820304FF480331A
:101B10000CF500521160CCF80430F0BD6769B7FBDA
:101B2000F2FE0EF1010E0EEB4E0EBEF1030EFCD2D4
:101B3000DDE70129D2D103240CF540521460DCF812
:101B40000820D207FBD5DCF800200B4C82EA4612B5
:101B500002F0E0020CF5805632600122DCF8005001
:101B60004D4005F00305356002FA01F1DCF808206C
:101B70000A42FBD0C6E700BFF81C0020014B53F817
:101B800020007047F81C002070B4039D04682D03EA
:101B900045EA03451B4B002CB3FBF1F3B2FBF3F614
:101BA0001FDB194A194B904214BF4FF480424FF487
:101BB0000042174C1A6003F580531A60A36832EA9A
:101BC0000303FBD1212200F54053043301608660FA
:101BD0001A600268002AFCDA0822C5601A6070BC2C
:101BE0007047036803F03F038B42DAD18368C3F385
:101BF0000B03B342D5D1C36803F4EE23AB42D0D17B
:101C0000EDE700BF001BB700008005400020024048
:101C1000000002400A4B0B490B4A5960D368190473
:101C2000FCD40A4BD26843EA0013094953400948DF
:101C30001940054AC160D3681B04FCD4704700BF3B
:101C4000002010400020FE5A000010400000FE5A04
:101C5000F001FE5A00101040014B024A5A607047D2
:101C6000002010400001FE5A012300EB40008000DC
:101C700000F1804000F5841041600360704700BFB0
:101C80000023DB8A002242E800F2520201D4102134
:101C900018470421184700BF034AD2F82838002B00
:101CA000FBD0BFF35F8F704700000E400021044B54
:101CB000044ABFF35F8F43F8041B9342F9D1704786
:101CC0000C080E402C080E4010B44FF48D704FF4E9
:101CD0002A64064A064B07491460D06019605368AD
:101CE000002BFCDA5DF8044B704700BF0080044015
:101CF00000A0044000B0FA00704700BF08B50148DA
:101D0000FFF714F91C31001038B5054C054DAC42F5
:101D100004D254F8043B9847AC42FAD338BD00BF14
:101D2000203000106030001038B5054C054DAC4235
:101D300004D254F8043B9847AC42FAD338BD00BFF4
:101D40004C3000106030001010B40748074C084BAE
:101D5000084A094904601A608B6832EA0303FBD120
:101D60005DF8044B704700BF002002407F3BEFEF5F
:101D700000300240F6FFF30300000240044BDB6C2E
:101D8000B3F5004F03D14FF48022024BDA64704761
:101D900000001150002011504FF0E022044BD2F807
:101DA000881D0B43C2F8883D10EE3004704700BF19
:101DB000030330006FF06041044B054A19609368DB
:101DC000DB4333F06043FAD1704700BF003002407C
:101DD0000000024010B545F25320FFF751FFBDE867
:101DE000104003460420184710B545F25320FFF772
:101DF00047FFBDE81040034601201847FFF74AB9E6
:101E000010B5054B054C4FF488721846A16800F0D8
:101E1000F5FEA06010BD00BF0000002000ED00E056
:101E2000002330B52B4C83B0C4F88430FFF74CFF4F
:101E30000122294BDA63636C012BFCD10321264A72
:101E4000244B11639C6B012CFCD105250523022139
:101E5000224A23480094FFF797FE21462B46214A49
:101E600021480095FFF790FE0022022104201F4B1D
:101E7000FFF71CFE2146284600221D4BFFF716FEE9
:101E80000022082011461B4BFFF710FE00220920FC
:101E90001146184BFFF70AFE002206201146144B8C
:101EA000FFF704FE0022124B07201146FFF7FEFD4C
:101EB0000420FFF763FE00240F4BA3FB0035AD0C9D
:101EC000E0B229460134FFF7CFFE062CF8D103B06B
:101ED00030BD00BF0000014000300140805D775000
:101EE00000000540008C864700800540001BB700BD
:101EF00080DF1710006CDC0283DE1B4338B504461C
:101F0000094801F081F8204600F030FB05460648FC
:101F100001F072F82DB1054B2C449C4201D82846A3
:101F200038BD0348FFF702F8900E0020000008209B
:101F30002831001000B9704700F018B910B5094BEE
:101F400084B01C684CB1034600914FF0FF3203A9E6
:101F50000548A047012004B010BD00F049F9204613
:101F600004B010BD401D0020351F001000BEFDE76D
:101F7000074A0346106838B1064903448B428CBFB8
:101F80004FF0FF3013607047034908461160F3E7D4
:101F9000341D0020000008209825002008B5FFF718
:101FA000E5FF00BF38B5064C064DFFF7ADFEAC426D
:101FB00004D254F8043B9847AC42FAD338BD00BF72
:101FC000603000106430001003680846114618475E
:101FD0002DE9F0411546427D07468846002A46D045
:101FE000002D1DDD0B780A2B23D0012D4FF0000CA6
:101FF00018D04646012416F8012F21460A2A04F17A
:10200000010422D0A542F6D165450BDC08EB05039F
:1020100013F8013CA3F10D03B3FA83F35B093B759D
:10202000BDE8F0813B68A5EB0C0108EB0C0098477C
:10203000ECE7037D002BD8D1036802210F489847B5
:10204000012DE3D04FF0010CD3E716F8013C0D2B26
:10205000D8D08C4508EB0C00A1EB0C0101DA3B68F1
:102060009847022105483B689847A446CAE7294695
:1020700040463B68BDE8F041184700BF08320010F9
:102080002DE9F04782B00D4691461C460646FFF703
:10209000F1FC4FF0FF3C6FF000472E4A821841F1EF
:1020A0000003944577EB03013CBF62463B462A4858
:1020B00000F0B2FF6B1C804640D00CB3274F284B7A
:1020C0001C68B4B1B9F1000F1CD1DFF89C9001E09D
:1020D000246974B12368002BFAD0D9F800300BB111
:1020E0009C42F5D120462A463146B8472469002C47
:1020F000F0D1B8F1000F26D1284602B0BDE8F08734
:10210000184FDCE74FF00A0ADFF85C9002E0246920
:10211000002CEED02368002BF9D0D9F800300BB199
:10212000A342F4D12A4631462046B8470122204630
:102130000DF107018DF807A0B847E8E7304600F039
:10214000D3FD0546B9E7044800F056FF284602B023
:10215000BDE8F08740420F00980E0020D11F00100C
:10216000201D0020C91F0010281D0020F0B583B0DD
:1021700006468DF80700FFF77DFC4FF0FF356FF046
:102180000044174A821841F10003954274EB0301A1
:102190003CBF23462A46134800F03EFF124B074639
:1021A0001C689CB1114D01E024697CB12368002BAF
:1021B000FAD02B680BB19C42F6D1204601220DF1DA
:1021C0000701FFF705FF2469002CEFD117B930464E
:1021D00003B0F0BD034800F00FFF304603B0F0BD80
:1021E00040420F00980E0020201D0020281D0020D6
:1021F00038B5044600F078FD012305461A4620460E
:102200002946FFF73DFF084B1C682CB163682BB1D2
:1022100098472469002CF9D1284638BD2469002C40
:10222000F4D1284638BD00BF201D002010B504465B
:1022300004F12F4404F56004084B240D82B0A4007F
:1022400000932246E31C0648FEF7D0FE8442CCBF32
:102250004FF0FF30001B02B010BD00BF84310010F2
:10226000F41C00202DE9F0470F460546FEF776FEE8
:10227000012297F804A097F905C005F12F4EDFF869
:10228000D4800EF5600E02FA0AF24FEA1E5EBCF12F
:10229000000F58F82E6002F1FF32CAF1200435DB3E
:1022A000A44503DC02FA0CF3334206D04FF0FF34AE
:1022B000FEF766FE2046BDE8F087D5F86831F9796B
:1022C000002B41D14B0731D4644602FA0CF216427E
:1022D00033D13968BAF1000F10D0674601EB4A0AD2
:1022E00031F8023B07F11209B3F5005F38BF6344D0
:1022F000514507F1010745F82930F1D1324348F83B
:102300002E20FEF73DFE2046BDE8F087002C02DAC5
:1023100013E0013C11D302FA04F33342A446F8D18E
:10232000D5F86811FB7991B95B07CED56FF00A0437
:10233000FEF726FE2046BDE8F0876FF00804FEF7A2
:102340001FFE2046BDE8F087C907BDD5EEE7D907D7
:10235000BBD5EBE7C81800202DE9F041D0F8684163
:102360009DF81860121B1F2A38D84EF29F044EF2B7
:1023700080054FF4003801EB410C002E18BF2546B4
:1023800000EBCC0404F5435400EBCC0C052BDCF83B
:10239000DC704FEA410EDCF8CC60C4F80C800CD93C
:1023A0005401053B44F0A0540532052BCCF8DC4029
:1023B00002F01F02CCF8D850F2D8714400EBC101F2
:1023C0000020520142EA8363C1F8DC30C1F8D850E2
:1023D000C1F8DC70C1F8CC60BDE8F0816FF004009A
:1023E000FAE700BFF0B5012504688D4024EA050432
:1023F0000460B3B3D3E901561F68DC6801EB410305
:1024000000EBC303C3F8C8704FEA410CC3F8D060B7
:10241000C3F8CC50C3F8DC400CEB01034FF001359E
:1024200000EBC30C4FF0004600EBC30E01230EF58A
:10243000865E0C1D01F108078D40CEF8106003FA8E
:1024400004F4CEF8106002F01F028560BB4000F576
:10245000005004600EF1100E03600020CCF8D8206C
:10246000F0BD4FF480374FF440264FF4F83501EBC0
:10247000410400EBC404C4F8C8704FEA410CC4F82E
:10248000D060C4F8CC50C4F8DC30C5E703BD00BF51
:1024900010B50446FFF748FC2346BDE81040184736
:1024A000F0B5054687B0192017460E46FEF734FEF4
:1024B000002104461920FEF719FE0021CDE904652C
:1024C00003970026002701224FF050438C46CDE9A8
:1024D00000670292A9B11A6D9507FCD5596540BFF6
:1024E0001A6DD00703D420BF1A6DD207FBD59A6DA1
:1024F0008A420BD04FF0000C0DEB8C021168E9E71B
:102500009A6D1A6DD607FBD440BFE4E70CF1010CBD
:10251000BCF1060FF0D12146192007B0BDE8F0400C
:10252000FEF7E4BD0C4B0D4A93420ED39C4603F2DA
:10253000F4710B4A9268CCF8F4070A48CCF8F837E3
:10254000CCF8FC070848FFF7ABBF4FF0FF3340F271
:10255000F3719C46EDE700BF000808205C010820ED
:1025600000ED00E0912400108D240010024B014684
:10257000186800F003B800BF480D002001F10B03FC
:10258000162B2DE9F04F074683B023D8102900F20F
:10259000AF8000F0AFFA102518230220BA4E334462
:1025A0005C68A3F10802944200F0568163683846E3
:1025B00023F00303D4E902122344CA6091605A68ED
:1025C000083442F001025A6000F09AFA204603B043
:1025D000BDE8F08F002B23F00705C0F28980A942E7
:1025E00000F2868000F086FAB5F5FC7FC0F07B82B1
:1025F0006B0A00F08480042B00F26281AB0903F1C6
:10260000390003F1380EC3009F4E3344A3F1080C88
:102610005C68A44507D10DE0002AE16880F21681CC
:102620008C450C4606D0636823F003035A1B0F2A1F
:10263000F2DD7046DFF868823469444500F0F280CC
:10264000636823F0030CACEB05030F2B00F37481DC
:10265000002BC6E9048880F26381BCF5007FD6F8C0
:1026600004E080F0FF804FEADC0301224FEA5C1CAB
:10267000013302FA0CF256F833104EEA020E06EB62
:10268000C302083AC6F804E0C4E9021246F833402F
:10269000CC6083104FF0010C0CFA03FCF44534D8E5
:1026A0001CEA0E0F07D120F003004FEA4C0C043057
:1026B0001CEA0E0FF9D006EBC00A8146D646DEF8BA
:1026C0000C300BE05A681C46DB6822F00302511BF9
:1026D0000F2900F30181002980F215819E45F1D177
:1026E00009F101090EF1080E19F0030FE7D158E1C5
:1026F0000C233B600024204603B0BDE8F08F4FF46C
:10270000007340204FF03F0E7EE7B468636823F00B
:102710000309A945A9EB050302D30F2B00F385801C
:102720005A4B08201B6803F1100804EB09030093BF
:1027300000F056FA564AA84483461368013305D080
:1027400008F1FF384342804403EA0808414638460E
:1027500000F02AFAB0F1FF3F82464D4A00F00781AF
:1027600004EB0903834200F200814A4B0BF1FF3C6A
:1027700018684044186000F064811168013100F06D
:102780006C8104EB0902AAEB020202441A601AF0FF
:102790000702CDE9002300F02781C2F10802384684
:1027A00092445A44D04408EA0C01521A02EA0C0B33
:1027B000594600F0F9F9421C019B00F06A81A0EB38
:1027C0000A0000EB0B08186848F00102B442C6F892
:1027D00008A05844CAF80420186017D0B9F10F0FA8
:1027E00040F23E816168A9F10C024FF0050C22F025
:1027F000070201F0010111430F2A616004EB02019D
:10280000C1E901CC00F24D81DAF80420224B544694
:102810001968814238BF1860204B1968814238BF5F
:102820001860A6E0D6F804E033E7621945F0010528
:1028300043F00103083444F8045C3846B260536046
:1028400000F05EF9204603B0BDE8F08FA268234493
:102850003846D1608A60B2E6DC68A3427FF4A6AE57
:102860000230E7E6BCF5206F4FEA5C2276D3142AEB
:1028700000F2CD8002F15C035B32DB00F118F3580B
:102880000839994211D1A5E0400900206C170020B9
:10289000340900203C17002064170020681700202E
:1028A000480900209B68994204D05A6822F003022C
:1028B0006245F7D8D968C4E902318C60DC60E8E68B
:1028C000142B63D9542B00F2AB802B0B03F16F0058
:1028D00003F16E0EC30097E6D4F808C038466719B6
:1028E00045F001056560CCF80C30C3F808C041F034
:1028F0000103C6E90477C7E902887B60A150083468
:1029000000F0FEF8F7E622443846516841F0010134
:10291000516054F8082FD3609A6000F0F1F8EAE6AD
:10292000A44438460834DCF8043043F00103CCF802
:10293000043000F0E5F8DEE6621943F0010145F0ED
:10294000010538466560C6E90422C2E90288516083
:1029500044F80C30083400F0D3F8CCE64FEA9C126F
:1029600002F139033832DB0088E7B44262D0B46840
:10297000626822F00308A845A8EB050302D30F2BD9
:102980003FF753AF384600F0BBF8B3E603F15C0005
:1029900003F15B0EC30037E65AF80839534540F09F
:1029A000A08010F0030F00F1FF30F5D1736823EA27
:1029B0000C0373604FEA4C0C0CF1FF329A4204D3C3
:1029C000A3E64FEA4C0C09F104091CEA030FF8D006
:1029D000484670E692104FF0010C0CFA02F24EEAF3
:1029E000020EC6F804E066E70AEB0802384602EA7F
:1029F0000C02ABEB020B0BEA0C0B594600F0D4F8BF
:102A0000431C019B7FF4DBAEDDF800B0DBE6542A0B
:102A10002AD84FEA1C3202F16F036E32DB002DE739
:102A2000B3F5AA7F2AD8EB0B03F1780003F1770EF8
:102A3000C300E9E52E4B0BF1FF3C186840441860D9
:102A40009BE61AEA0C0F7FF498AEC844D6F808A0AB
:102A500048F00102CAF80420D8E6C2F800A096E6C1
:102A60000123CAF804308DE7B2F5AA7F24D84FEAD3
:102A7000DC3202F178037732DB00FFE640F2545299
:102A8000934224D8AB0C03F17D0003F17C0EC3000C
:102A9000BAE5009A4FF0000B083A9044A8EB0A08F8
:102AA00091E6384604F10801009300F0A7F9009B75
:102AB000D6F808A01868A7E640F254539A420CD8FA
:102AC0004FEA9C4202F17D037C32DB00D6E64FF4F4
:102AD0007E737F204FF07E0E96E54FF47E737E224C
:102AE000CCE6736866E7E80805F1080356E500BF21
:102AF0003C170020014800F06FB800BF38170020D5
:102B0000014800F06BB800BF38170020830730B5CC
:102B100046D08418844604E003F8011B9D0704D0C6
:102B20009C46A4456346F7D130BD013A0244A2EB6E
:102B30000C02032A29D9CCB20F2A04EB042404EB9B
:102B400004442FD9A2F1100C03F110052CF00F0C46
:102B5000AC44C3E90044C3E9024410336345F8D1EF
:102B600012F00C0F02F00F0E18D02EF0030CAEF185
:102B700004051A469C4442F8044B6245FBD125F0FB
:102B8000030404330EF003022344002ACCD0C9B25C
:102B90001A4403F8011B9342FBD130BD7246F4E79F
:102BA0000346C6E79646E0E738B50022064D0446E0
:102BB00008462A60FFF7DCF9431C00D038BD2B68BB
:102BC000002BFBD0236038BD241D0020014B18686A
:102BD000704700BF480D0020704700BF704700BF1E
:102BE000082802D14FF48050704708B5FFF7EEFF78
:102BF000162203464FF0FF301A6008BD844641EAB2
:102C0000000313F0030349D1403A23D30B68036058
:102C10004B6843608B688360CB68C3600B6903615A
:102C20004B6943618B698361CB69C3610B6A036242
:102C30004B6A43628B6A8362CB6AC3620B6B03632A
:102C40004B6B43638B6B8363CB6BC363403040310F
:102C5000403ADBD230320BD30B6803604B684360E1
:102C60008B688360CB68C36010301031103AF3D2A8
:102C70000C3205D351F8043B40F8043B043AF9D236
:102C8000043208D0D2071CBF11F8013B00F8013B09
:102C900001D30B8803806046704700BF082A13D316
:102CA0008B07B1D010F00303AED0C3F10403D21AE6
:102CB000DB071CBF11F8013B00F8013BA4D331F83E
:102CC000023B20F8023B9FE7043AD9D3013A11F8BE
:102CD000013B00F8013BF9D20B7803704B7843704D
:102CE0008B7883706046704720F0030110F003007A
:102CF000C0F1000051F8043B00F1040C4FEACC0C89
:102D00006FF000021CBF22FA0CF213434FF0010CCB
:102D10004CEA0C2C4CEA0C4CA3EB0C0222EA03020A
:102D200012EACC1204BF51F8043B0430F4D0C2F1D3
:102D3000000102EA0102B2FA82F2C2F11F0200EBC4
:102D4000D20070472DE9F8430646DFF8AC80082032
:102D50008946FFF745FF05463046FFF7CBFED8F81A
:102D600008305F6827F00307A7F11104A4EB0904FA
:102D70002C44B4FBF5F4013C05FB04F4A54208DC4B
:102D800000213046FFF710FFD8F808303B44984246
:102D900005D03046FFF7B4FE0020BDE8F88361425D
:102DA0003046FFF701FF01300FD03F1B104AD8F823
:102DB0000830304647F001075F6013681B1B136043
:102DC000FFF79EFE0120BDE8F88300213046FFF7A3
:102DD000EBFED8F80820831A0F2BDADD43F001034D
:102DE00003495360034B1B68C01A0860D1E700BF5A
:102DF0003C170020340900204009002000295AD047
:102E0000F8B50C460746FFF775FE734D54F804CC31
:102E1000A4F10802A8682CF001030CF0010ED118EF
:102E20004E68884226F003067CD088194E604068C0
:102E300000F00100BEF1000F2ED154F8084C05F14E
:102E4000080C121B23449468644560D0D2F80CE04F
:102E5000C4F80CE0CEF8084000287DD043F0010013
:102E600050600B60B3F5007F2ED25809D9080123BA
:102E7000834068680131034355F831006B6005EB0E
:102E8000C103083BC2E9020345F83120C26038465D
:102E9000BDE8F840FFF734BE70B9334405F1080CC3
:102EA000886843F0010460456ED0C968C1608860DD
:102EB0005460D350D6E770474CF00101B3F5007F62
:102EC00044F8041CD350D0D3B3F5206F4FEA5321FC
:102ED00044D2990901F1390001F13804C1006818A0
:102EE00069580838884203D155E08968884204D07F
:102EF0004C6824F003049C42F7D8C868C2E9021069
:102F000082603846CA60BDE8F840FFF7F9BD80BB73
:102F10001E44D1E90213CB60996046F0010353606F
:102F20009651B4E71E44BEF1000F07D154F8083C97
:102F3000D21A1E44D2E90213CB60996046F0010315
:102F40005360264BAA601B68B342A0D8244B384676
:102F50001968FFF7F7FE9AE73344A1E714290DD962
:102F600054291FD8190B01F16F0001F16E04C10043
:102F7000B5E743F0010050600B6088E701F15C00A9
:102F800001F15B04C100AAE7C5E90422C2E902CC51
:102F90005460D3507BE7A4100123A3406C68234303
:102FA0006B60ABE7B1F5AA7F06D8D90B01F17800C9
:102FB00001F17704C10092E740F25450814206D8F3
:102FC000990C01F17D0001F17C04C10087E74FF409
:102FD0007E717E2483E700BF40090020380900206D
:102FE0006C170020F8B500BF5FF800F0FD0300206B
:102FF0005FF800F02D0100205FF800F06508002068
:103000005FF800F0C90100205FF800F01107002010
:103010005FF800F0B10400205FF800F0FD07002029
:10302000D51D0010491D00107D1D0010211E00102F
:10303000B51D0010AD1C0010FD1D0010991C0010E6
:10304000A5110010011E001021150010F91C001020
:10305000E91D0010991D001085100010AD10001022
:043060001902001041
:103064000080F898FBB01CC782DA6DEA41F689FD4E
:10307400FFFF89FD41F66DEA82DA1CC7FBB0F898C0
:1030840000800767044FE3387D259215BE09760258
:1030940000007602BE0992157D25E338044F0767C8
:1030A400AC3000100BFF0102A08027A01725972544
:1030B40000C0142094240040142400404600000062
:1030C4009669699669969669699696699669699604
:1030D40069969669966969969669699669969669F4
:1030E4000A2A2A2A2050414E4943202A2A2A0A0021
:1030F4000A000000486172647761726520616C6146
:10310400726D20256420616C726561647920636C42
:1031140061696D65640000004861726420617373C5
:10312400657274004F7574206F66206D656D6F72E3
:103134007900000052656C6561736500626F6F749D
:10314400325F77323571303830000000302E310074
:10315400322E312E310000007069636F320000009E
:103164004672616D657468726F7765725F44656EEF
:10317400697365004A756E20323020323032350072
:103184004E6F2050494F207374617465206D6163E4
:1031940068696E65732061726520617661696C612E
:1031A400626C650006005250D3F07542383100104D
:1031B40006005250E182887F4031001006005250D0
:1031C4003ABCA9115031001006005250ABB3605301
:1031D4005431001006005250BBFF3CB65C31001065
:1031E40006005250861C030264310010060052503F
:1031F4005422A29D7831001005005250DE65F46817
:08320400344100100D0A000026
:08320C00F0F9FF7F0100000052
:10321400A8310010B4310010C0310010CC310010BE
:10322400D8310010E4310010F0310010FC310010EE
:10323400044B1B681A6BD20703D5012202491A6397
:103244000A7070475C25002096250020012170B586
:103254004FF00045214A224B10681A6800EB4003E6
:1032640002EBC303041D03F5865301FA04F402F5CB
:10327400005600F1100C1D6101FA0CF11D6134605F
:1032840053680B42FCD1012140F28F1300F1080571
:1032940002EB800E01FA00F0A940C543CEF81030CD
:1032A4001368DFF840C003430CF5C8641360536827
:1032B4000B42FCD1DEF82030580103F0F00600F494
:1032C40060401B0140EA0610DBB203432CF8023FC6
:1032D4006445ECD113681D40156070BD9025002035
:1032E4005C250020421D002042F0080C002B08BF82
:1032F400624670B50378884C5D0005F0040545EA24
:103304000C0534F815609D0005F004052A4334F8D3
:10331400122042EA86220A605A0802F0040242EAB3
:103324000C0234F812E0DA0802F0040242EA0C0259
:1033340034F812609A0802F0040242EA0C0234F8EB
:1033440012505A0902F0040242EA0C0245EA8625A8
:1033540034F812601A0903F0040343EA0C0334F846
:10336400133002F0040243EA8E2342EA0C024B605B
:1033740034F812308D6043EA8623CB6043785A00D8
:1033840002F0040242EA0C0234F812509A0002F0ED
:10339400040242EA0C0234F8122042EA85220A614D
:1033A4005A0802F0040242EA0C0234F812E0DA0885
:1033B40002F0040242EA0C0234F812609A0802F0A5
:1033C400040242EA0C0234F812505A0902F00402D0
:1033D40042EA0C0245EA862534F812601A0903F021
:1033E400040343EA0C0334F8133002F0040242EA03
:1033F4000C0243EA8E234B6134F812308D6143EAA8
:103404008623CB6183785A0002F0040242EA0C025C
:1034140034F812509A0002F0040242EA0C0234F822
:10342400122042EA85220A625A0802F0040242EAA1
:103434000C0234F8125003F0040242EA0C0234F88D
:10344400122042EA85224A62DA0802F0040242EAC1
:103454000C0234F812509A0802F0040242EA0C02F8
:1034640034F8122042EA85228A625A091B0902F0C2
:10347400040203F0040342EA0C0243EA0C0334F8A6
:10348400122034F8133043EA8223CB62C3785A0003
:1034940002F0040242EA0C0234F812009A0002F02C
:1034A400040242EA0C0234F8122042EA80220A633F
:1034B4005A0802F0040242EA0C0234F81200DA0854
:1034C40002F0040242EA0C0234F812509A0802F0A4
:1034D400040242EA0C0234F8122042EA85228A638A
:1034E4005A0902F0040242EA0C0234F812601A0982
:1034F40002F0040203F0040343EA0C0342EA0C0260
:1035040034F8135034F8123045EA802043EA862315
:103514004863CB6370BD00BFF00500202DE9F04780
:103524004CF6CC4E294C01F1080C033008324831DA
:10353400437C477A46781B04457E43EA072333439A
:1035440043EA056383EAD31505F0AA156B4083EAC1
:10355400C51383EA933505EA0E056B4083EA853388
:10356400C3F3034803F00F07C3F30316C3F3035570
:1035740034F818A034F8155034F8178034F816705D
:10358400C3F30369C3F3032647EA8527C3F303356B
:103594001B0F34F8199034F8166034F8155034F8C9
:1035A400133048EA8A284CE902870CF1080C46EAF1
:1035B400892645EA8323614542E9026300F101005B
:1035C40002F10802B4D1BDE8F08700BFF005002085
:1035D4002DE9F04F0124032B1E46C8BF002390465B
:1035E400D8BF04FA03F304FA02F24FF0020402F122
:1035F400FF32454FD2B283B0427082F0B502D8BFD9
:103604001B01BA5CD8BFDBB283705340FB5CB8F1DA
:10361400000F0470C37074DD84464FF0000ACDE9D6
:1036240000083A4A04314FEAC80500EBC80B31F9E7
:10363400044C31F9020C5FFA84F817F80830C4F32B
:1036440007246340FB5C5FFA80FEFB5CC0F3072049
:103654008EEA0303FB5C8CF80640434017F80390A2
:10366400E308D35C04F0070423414FEAD804145D53
:103674008CF8058008F0070844FA08F46340C4088D
:10368400145D8CF8090000F0070044FA00F04FEADA
:10369400DE04145D8CF808E00EF0070E44FA0EF414
:1036A40083F04B03604003F0010380F04B00DB0028
:1036B40000F0010043EAC01343F0110383EA09094F
:1036C4008CF80A3017F809308CF804A08CF807A09D
:1036D4008CF80B300CF1080CE34501F10401A6D180
:1036E400DDE90008C8F10402043500212844D200B1
:1036F40000F06AF9B6EB080000D5C03003B0BDE8AD
:10370400F08F4FEAC805EDE710060020C430001022
:103714009C026302E402E20271011E018E013C017B
:10372400CC0239019C01C6028E0271026301C302FC
:1037340000D9B56C6DB4D801DA036FB6B76E02DB8D
:10374400B36A06DFDE076BB269B0DC0504DDB1687D
:1037540061B8D40D0CD5B960BB620ED7D60F63BA6D
:10376400D20B67BEBF660AD308D1BD6465BCD0095D
:10377400C21B77AEAF761AC318C1AD7475ACC0194D
:1037840071A8C41D1CC5A970AB721EC7C61F73AA3D
:10379400A37A16CFCE177BA279A0CC1514CDA1782D
:1037A40010C9A57C7DA4C811CA137FA6A77E12CB1D
:1037B400835A36EFEE375B825980EC3534ED81580D
:1037C40030E9855C5D84E831EA335F86875E32EBFD
:1037D400E23B578E8F563AE338E18D54558CE039ED
:1037E4005188E43D3CE589508B523EE7E63F538ADD
:1037F4004198F42D2CF599409B422EF7F62F439ACD
:10380400F22B479E9F462AF328F19D44459CF029BC
:1038140020F9954C4D94F821FA234F96974E22FBAC
:10382400934A26FFFE274B924990FC2524FD91489C
:103834004FF0504310B5026893F90040EFF3108342
:1038440072B6D2E8CFCF0121BCF1000FF9D1C2E8A2
:103854004C1FBCF1000FF4D1BFF35F8F90F904202B
:10386400002A1CDB00210268C2E88F1F83F3108842
:1038740020BF0268EFF3108372B6D2E8CFEF5FF097
:10388400010CBEF1000FF8D1C2E84ECFBEF1000F1B
:10389400F3D1BFF35F8F90F90420002AE3DA00220A
:1038A40001680471C1E88F2F83F3108810BD00BF35
:1038B4004FF050412DE9F0410027044616461D46BD
:1038C400D1F8008008E0C1E88F7F8CF3108830467F
:1038D400294600F075F8E8B92168EFF3108C72B648
:1038E400D1E8CF2F0123002AFAD1C1E8423F002AB0
:1038F400F6D1BFF35F8F94F904302168002BE2DA2C
:10390400002384F80480C1E88F3F8CF310880120E1
:10391400BDE8F0810020BDE8F08100BF30B5046847
:10392400EFF3108C72B6D4E8CFEF0125BEF1000F8F
:10393400F9D1C4E84E5FBEF1000FF4D1BFF35F8F3D
:1039440090F904400568002C10DB0021C5E88F1FA6
:103954008CF310884FF0504595F90050A54201D1E1
:10396400084630BDBDE83040FFF7A2BF4FF05042DB
:10397400126800230271C5E88F3F8CF31088012080
:1039840030BD00BF0368EFF3108272B6D3E8CFCF27
:103994000121BCF1000FF9D1C3E84C1FBCF1000FA9
:1039A400F4D1BFF35F8F4FF0FF0C0023016880F860
:1039B40004C0C1E88F3F82F3108840BF704700BF46
:1039C4005FF800F04D1800105FF800F00D2B0010A8
:1039D400020000000C100000AB524D3540100000F6
:1039E40054514D353A100000AB524D3508100000CB
:1039F400ABAE423502100000CCCEC42CD022000065
:103A04000C100000AB504D354010000054534D35A0
:103A140014130000AB504D3500F000000C100000F2
:103A2400AB524D354010000054514D351413000075
:103A3400AB524D3500F00000100000000000000003
:103A44000000000000000000000000000000000072
:103A5400B8130020FFFFFFFF000002000000000079
:103A64000000000000000000400900204009002080
:103A7400480900204809002050090020500900206E
:103A8400580900205809002060090020600900201E
:103A940068090020680900207009002070090020CE
:103AA400780900207809002080090020800900207E
:103AB400880900208809002090090020900900202E
:103AC4009809002098090020A0090020A0090020DE
:103AD400A8090020A8090020B0090020B00900208E
:103AE400B8090020B8090020C0090020C00900203E
:103AF400C8090020C8090020D0090020D0090020EE
:103B0400D8090020D8090020E0090020E00900209D
:103B1400E8090020E8090020F0090020F00900204D
:103B2400F8090020F8090020000A0020000A0020FB
:103B3400080A0020080A0020100A0020100A0020A9
:103B4400180A0020180A0020200A0020200A002059
:103B5400280A0020280A0020300A0020300A002009
:103B6400380A0020380A0020400A0020400A0020B9
:103B7400480A0020480A0020500A0020500A002069
:103B8400580A0020580A0020600A0020600A002019
:103B9400680A0020680A0020700A0020700A0020C9
:103BA400780A0020780A0020800A0020800A002079
:103BB400880A0020880A0020900A0020900A002029
:103BC400980A0020980A0020A00A0020A00A0020D9
:103BD400A80A0020A80A0020B00A0020B00A002089
:103BE400B80A0020B80A0020C00A0020C00A002039
:103BF400C80A0020C80A0020D00A0020D00A0020E9
:103C0400D80A0020D80A0020E00A0020E00A002098
:103C1400E80A0020E80A0020F00A0020F00A002048
:103C2400F80A0020F80A0020000B0020000B0020F6
:103C3400080B0020080B0020100B0020100B0020A4
:103C4400180B0020180B0020200B0020200B002054
:103C5400280B0020280B0020300B0020300B002004
:103C6400380B0020380B0020400B0020400B0020B4
:103C7400480B0020480B0020500B0020500B002064
:103C8400580B0020580B0020600B0020600B002014
:103C9400680B0020680B0020700B0020700B0020C4
:103CA400780B0020780B0020800B0020800B002074
:103CB400880B0020880B0020900B0020900B002024
:103CC400980B0020980B0020A00B0020A00B0020D4
:103CD400A80B0020A80B0020B00B0020B00B002084
:103CE400B80B0020B80B0020C00B0020C00B002034
:103CF400C80B0020C80B0020D00B0020D00B0020E4
:103D0400D80B0020D80B0020E00B0020E00B002093
:103D1400E80B0020E80B0020F00B0020F00B002043
:103D2400F80B0020F80B0020000C0020000C0020F1
:103D3400080C0020080C0020100C0020100C00209F
:103D4400180C0020180C0020200C0020200C00204F
:103D5400280C0020280C0020300C0020300C0020FF
:103D6400380C0020380C0020400C0020400C0020AF
:103D7400480C0020480C0020500C0020500C00205F
:103D8400580C0020580C0020600C0020600C00200F
:103D9400680C0020680C0020700C0020700C0020BF
:103DA400780C0020780C0020800C0020800C00206F
:103DB400880C0020880C0020900C0020900C00201F
:103DC400980C0020980C0020A00C0020A00C0020CF
:103DD400A80C0020A80C0020B00C0020B00C00207F
:103DE400B80C0020B80C0020C00C0020C00C00202F
:103DF400C80C0020C80C0020D00C0020D00C0020DF
:103E0400D80C0020D80C0020E00C0020E00C00208E
:103E1400E80C0020E80C0020F00C0020F00C00203E
:103E2400F80C0020F80C0020000D0020000D0020EC
:103E3400080D0020080D0020100D0020100D00209A
:103E4400180D0020180D0020200D0020200D00204A
:103E5400280D0020280D0020300D0020300D0020FA
:103E6400380D0020380D0020500D00200000000007
:103E74000000000070170020D81700204018002010
:103E8400000000000000000000000000000000002E
:103E9400000000000000000000000000000000001E
:103EA400000000000000000000000000000000000E
:103EB40000000000000000000000000000000000FE
:103EC40000000000000000000000000000000000EE
:103ED40000000000000000000000000000000000DE
:103EE40000000000000000000000000000000000CE
:103EF40000000000000000000000000000000000BE
:103F040000000000000000000100000000000000AC
:103F14000E33CDAB34126DE6ECDE05000B00000071
:103F2400000000000000000000000000000000008D
:103F3400000000000000000000000000000000007D
:103F4400000000000000000000000000000000006D
:103F5400000000000000000000000000000000005D
:103F6400000000000000000000000000000000004D
:103F7400000000000000000000000000000000003D
:103F8400000000000000000000000000000000002D
:103F9400000000000000000000000000000000001D
:103FA400000000000000000000000000000000000D
:103FB40000000000000000000000000000000000FD
:103FC400012230B54FF0A04E4148424C017881EABD
:103FD400020C8B018A40CEF800247344DA6822680C
:103FE40080F800C0042A1AD92268392A17D822680E
:103FF400052A4ED02268062A5ED02268072A61D09C
:104004000722354919609A600020344A34491368FC
:10401400087001331360334B1B787BB130BD2268C9
:10402400302A18D82268312A3CD02F4A2F491268E6
:1040340019609A602B4B1B78002BEFD140F2712151
:1040440022682B4B0132A3FB02035B0A01FB1323FF
:104054002360236830BD234A107898B1204D297815
:1040640029BB21683139490828704FF4B4652148C7
:10407400006805FB01014FF4B470196000219860D9
:104084001170DBE70B2001211B4C11701C60986040
:1040940030BD0025194A1A4812681A49056019608A
:1040A4009A60B1E70722184919609A60C2E721684B
:1040B400002032394908D7E7144A154912681960B3
:1040C4009A60A1E7134A1449126819609A609BE741
:1040D40094250020B0080020E0080020301D0020B6
:1040E4009525002097250020D8180020A00F002037
:1040F4005917B7D12C1D0020B40800203C1D002006
:10410400EC1C002038160020FC080020381D00207C
:0C41140038150020D4180020A00E002058
:10412000D3DEFFFFFE010000FF01000018C0FFFF0B
:04413000793512AB20
:040000051000014D99
:00000001FF
